{
	"data": {
		"bytecode": {
			"linkReferences": {},
			"object": "60c060408190526003805461dead6001600160a01b0319909116179055600480546001600160d81b0319166580850505050560a11b1790556010805463ffffffff60381b1966ffffffff0000001962ffffff19831660ff610100601261ffff19909616861704811662010000029190911790931790811661ffff60281b19630100000063ff00000019841604851664010000000002908116919091176501000000000065ffffff0000001990931660ff60281b1992909216919091179190910483166601000000000000021790811661ffff60481b1967010000000000000060ff60381b198416048416680100000000000000000290811691909117690100000000000000000062ffffff60381b1990931660ff60481b199290921691909117919091049091166a0100000000000000000000021790556011805460ff19166001179055670de0b6b3a764000060135562004313388190039081908339810160408190526200016e9162000705565b604080518082018252600b81526a09acae8c29ac2f0be9a9ab60ab1b6020820152600080546001600160a01b031916339081178255925191928e92909182917f8be0079c531659141344cd1fd0a4f28419497f9722a3daafe3b4186f6b6457e0908290a350600180546001600160a01b0319166001600160a01b0383161790556002620001fc8382620008a7565b506040516001600160a01b038216903480156108fc02916000818181858888f1935050505015801562000233573d6000803e3d6000fd5b50600e91506200024690508b82620008a7565b50600f620002558a82620008a7565b506010805460ff191660ff8a169081179091556200027590600a62000a86565b62000281908862000a94565b600b819055620002949060001962000ac4565b620002a29060001962000adb565b600c55600b5433600090815260066020908152604090912091909155620002f49061271090620002e0908a90600190620019f6620005ec821b17901c565b6200060360201b62001a021790919060201c565b601355600c543360008181526005602090815260409091209290925560108054600160581b600160f81b0319166b01000000000000000000000090920291909117905562000359906103e890620002e0908a90600190620005ec811b620019f617901c565b6012819055506000869050806001600160a01b031663c45a01556040518163ffffffff1660e01b8152600401602060405180830381865afa158015620003a3573d6000803e3d6000fd5b505050506040513d601f19601f82011682018060405250810190620003c9919062000af1565b6001600160a01b031663c9c6539630836001600160a01b031663ad5c46486040518163ffffffff1660e01b8152600401602060405180830381865afa15801562000417573d6000803e3d6000fd5b505050506040513d601f19601f820116820180604052508101906200043d919062000af1565b6040516001600160e01b031960e085901b1681526001600160a01b039283166004820152911660248201526044016020604051808303816000875af11580156200048b573d6000803e3d6000fd5b505050506040513d601f19601f82011682018060405250810190620004b1919062000af1565b6001600160a01b0390811660a0528116608052600160086000336001600160a01b0316815260208082019290925260409081016000908120805460ff1990811695151595909517905530815260089092529020805490911660011790556010805463ff00ff00191661010060ff8981169190910263ff0000001916919091176301000000868316021764ff000000ff60281b1916650100000000008783160260ff60481b1916176901000000000000000000858316021760ff60381b1916670100000000000000918816919091021790556200058a3390565b6001600160a01b031660006001600160a01b03167fddf252ad1be2c89b69c2b068fc378daa952ba7f163c4a11628f55a4df523b3ef600b54604051620005d291815260200190565b60405180910390a350505050505050505050505062000b26565b6000620005fa828462000a94565b90505b92915050565b6000620005fa828462000b0f565b80516001600160a01b03811681146200062957600080fd5b919050565b634e487b7160e01b600052604160045260246000fd5b600082601f8301126200065657600080fd5b81516001600160401b03808211156200067357620006736200062e565b604051601f8301601f19908116603f011681019082821181831017156200069e576200069e6200062e565b81604052838152602092508683858801011115620006bb57600080fd5b600091505b83821015620006df5785820183015181830184015290820190620006c0565b600093810190920192909252949350505050565b805160ff811681146200062957600080fd5b60008060008060008060008060008060006101608c8e0312156200072857600080fd5b620007338c62000611565b60208d0151909b506001600160401b038111156200075057600080fd5b6200075e8e828f0162000644565b60408e0151909b5090506001600160401b038111156200077d57600080fd5b6200078b8e828f0162000644565b9950506200079c60608d01620006f3565b975060808c01519650620007b360a08d0162000611565b9550620007c360c08d01620006f3565b9450620007d360e08d01620006f3565b9350620007e46101008d01620006f3565b9250620007f56101208d01620006f3565b9150620008066101408d01620006f3565b90509295989b509295989b9093969950565b600181811c908216806200082d57607f821691505b6020821081036200084e57634e487b7160e01b600052602260045260246000fd5b50919050565b601f821115620008a257600081815260208120601f850160051c810160208610156200087d5750805b601f850160051c820191505b818110156200089e5782815560010162000889565b5050505b505050565b81516001600160401b03811115620008c357620008c36200062e565b620008db81620008d4845462000818565b8462000854565b602080601f831160018114620009135760008415620008fa5750858301515b600019600386901b1c1916600185901b1785556200089e565b600085815260208120601f198616915b82811015620009445788860151825594840194600190910190840162000923565b5085821015620009635787850151600019600388901b60f8161c191681555b5050505050600190811b01905550565b634e487b7160e01b600052601160045260246000fd5b600181815b80851115620009ca578160001904821115620009ae57620009ae62000973565b80851615620009bc57918102915b93841c93908002906200098e565b509250929050565b600082620009e357506001620005fd565b81620009f257506000620005fd565b816001811462000a0b576002811462000a165762000a36565b6001915050620005fd565b60ff84111562000a2a5762000a2a62000973565b50506001821b620005fd565b5060208310610133831016604e8410600b841016171562000a5b575081810a620005fd565b62000a67838362000989565b806000190482111562000a7e5762000a7e62000973565b029392505050565b6000620005fa8383620009d2565b8082028115828204841417620005fd57620005fd62000973565b634e487b7160e01b600052601260045260246000fd5b60008262000ad65762000ad662000aae565b500690565b81810381811115620005fd57620005fd62000973565b60006020828403121562000b0457600080fd5b620005fa8262000611565b60008262000b215762000b2162000aae565b500490565b60805160a05161378f62000b846000396000818161071e0152611c590152600081816104a6015281816128660152818161291f0152818161294e015281816129e001528181612a1201528181612b070152612be9015261378f6000f3fe6080604052600436106103855760003560e01c80636bc87c3a116101d1578063af465a2711610102578063c7992f9a116100a0578063ea2f0b371161006f578063ea2f0b3714610b08578063f25f4b5614610b28578063f2fde38b14610b4f578063f6a3c9a914610b6f57600080fd5b8063c7992f9a14610a76578063d12a768814610a97578063d28d885214610aad578063dd62ed3e14610ac257600080fd5b8063bdc653ef116100dc578063bdc653ef14610a0c578063c0b0fda214610a21578063c2e7d95c14610a42578063c49b9a8014610a5657600080fd5b8063af465a27146109c1578063b09f1266146109d7578063b29a8140146109ec57600080fd5b80638da5cb5b1161016f578063a0712d6811610149578063a0712d681461094c578063a457c2d71461096c578063a9059cbb1461098c578063aa23e03d146109ac57600080fd5b80638da5cb5b146108f957806390d49b9d1461091757806395d89b411461093757600080fd5b8063715018a6116101ab578063715018a61461084b5780637afa1eed1461086057806382d2a4bb146108a057806388f82020146108c057600080fd5b80636bc87c3a146107e957806370690b111461080a57806370a082311461082b57600080fd5b80633b124fe7116102b657806349b0db141161025457806352390c021161022357806352390c02146107405780635342acb41461076057806354ce65781461079957806354fd4d50146107ba57600080fd5b806349b0db141461069f5780634a74bb02146106d157806351330a19146106eb578063521432901461070c57600080fd5b806342966c681161029057806342966c681461061e578063430ca0901461063e578063437823ec1461065f5780634549b0391461067f57600080fd5b80633b124fe7146105be5780633bd5d173146105dd5780633c81385c146105fd57600080fd5b80632d6abf8711610323578063324f8dbf116102fd578063324f8dbf1461051857806334b1a50c146105395780633685d4191461057c578063395093511461059e57600080fd5b80632d6abf87146104945780632d838119146104e0578063313ce5671461050057600080fd5b806315fa749a1161035f57806315fa749a1461040b57806318160ddd1461043e57806319de79ab1461045357806323b872dd1461047457600080fd5b806306fdde0314610391578063095ea7b3146103bc57806313114a9d146103ec57600080fd5b3661038c57005b600080fd5b34801561039d57600080fd5b506103a6610b8f565b6040516103b39190613157565b60405180910390f35b3480156103c857600080fd5b506103dc6103d73660046131ba565b610c21565b60405190151581526020016103b3565b3480156103f857600080fd5b50600d545b6040519081526020016103b3565b34801561041757600080fd5b5060045461042c90600160c01b900460ff1681565b60405160ff90911681526020016103b3565b34801561044a57600080fd5b50600b546103fd565b34801561045f57600080fd5b5060105461042c90600160481b900460ff1681565b34801561048057600080fd5b506103dc61048f3660046131e6565b610c38565b3480156104a057600080fd5b506104c87f000000000000000000000000000000000000000000000000000000000000000081565b6040516001600160a01b0390911681526020016103b3565b3480156104ec57600080fd5b506103fd6104fb366004613227565b610ca1565b34801561050c57600080fd5b5060105460ff1661042c565b34801561052457600080fd5b5060045461042c90600160c81b900460ff1681565b34801561054557600080fd5b506103a66040518060400160405280601781526020017668747470733a2f2f6d6574616d61782e66696e616e636560481b81525081565b34801561058857600080fd5b5061059c610597366004613240565b610d17565b005b3480156105aa57600080fd5b506103dc6105b93660046131ba565b610ec0565b3480156105ca57600080fd5b5060105461042c90610100900460ff1681565b3480156105e957600080fd5b5061059c6105f8366004613227565b610ef6565b34801561060957600080fd5b5060045461042c90600160b01b900460ff1681565b34801561062a57600080fd5b506103dc610639366004613227565b610fe0565b34801561064a57600080fd5b5060045461042c90600160a01b900460ff1681565b34801561066b57600080fd5b5061059c61067a366004613240565b61101e565b34801561068b57600080fd5b506103fd61069a36600461326b565b61106c565b3480156106ab57600080fd5b506103a660405180604001604052806006815260200165076312e302e360d41b81525081565b3480156106dd57600080fd5b506011546103dc9060ff1681565b3480156106f757600080fd5b5060045461042c90600160b81b900460ff1681565b34801561071857600080fd5b506104c87f000000000000000000000000000000000000000000000000000000000000000081565b34801561074c57600080fd5b5061059c61075b366004613240565b6110f9565b34801561076c57600080fd5b506103dc61077b366004613240565b6001600160a01b031660009081526008602052604090205460ff1690565b3480156107a557600080fd5b5060105461042c90600160381b900460ff1681565b3480156107c657600080fd5b50604080518082019091526006815265076312e302e360d41b60208201526103a6565b3480156107f557600080fd5b5060105461042c906301000000900460ff1681565b34801561081657600080fd5b5060045461042c90600160d01b900460ff1681565b34801561083757600080fd5b506103fd610846366004613240565b611206565b34801561085757600080fd5b5061059c611265565b34801561086c57600080fd5b5060408051808201909152601781527668747470733a2f2f6d6574616d61782e66696e616e636560481b60208201526103a6565b3480156108ac57600080fd5b5061059c6108bb366004613227565b6112d9565b3480156108cc57600080fd5b506103dc6108db366004613240565b6001600160a01b031660009081526009602052604090205460ff1690565b34801561090557600080fd5b506000546001600160a01b03166104c8565b34801561092357600080fd5b5061059c610932366004613240565b611324565b34801561094357600080fd5b506103a66113dd565b34801561095857600080fd5b506103dc610967366004613227565b6113ec565b34801561097857600080fd5b506103dc6109873660046131ba565b611421565b34801561099857600080fd5b506103dc6109a73660046131ba565b611470565b3480156109b857600080fd5b506103a661147d565b3480156109cd57600080fd5b506103fd600b5481565b3480156109e357600080fd5b506103a661148c565b3480156109f857600080fd5b5061059c610a073660046131ba565b61151a565b348015610a1857600080fd5b506013546103fd565b348015610a2d57600080fd5b5060105461042c90600160281b900460ff1681565b348015610a4e57600080fd5b5060016103dc565b348015610a6257600080fd5b5061059c610a7136600461329b565b611623565b348015610a8257600080fd5b5060045461042c90600160a81b900460ff1681565b348015610aa357600080fd5b506103fd60125481565b348015610ab957600080fd5b506103a6611694565b348015610ace57600080fd5b506103fd610add3660046132b8565b6001600160a01b03918216600090815260076020908152604080832093909416825291909152205490565b348015610b1457600080fd5b5061059c610b23366004613240565b6116a1565b348015610b3457600080fd5b506010546104c890600160581b90046001600160a01b031681565b348015610b5b57600080fd5b5061059c610b6a366004613240565b6116ec565b348015610b7b57600080fd5b5061059c610b8a3660046132f7565b6117db565b6060600e8054610b9e9061335c565b80601f0160208091040260200160405190810160405280929190818152602001828054610bca9061335c565b8015610c175780601f10610bec57610100808354040283529160200191610c17565b820191906000526020600020905b815481529060010190602001808311610bfa57829003601f168201915b5050505050905090565b6000610c2e338484611a0e565b5060015b92915050565b6000610c45848484611b1c565b610c978433610c92856040518060600160405280602881526020016136cb602891396001600160a01b038a1660009081526007602090815260408083203384529091529020549190611d7a565b611a0e565b5060019392505050565b6000600c54821115610cfa5760405162461bcd60e51b815260206004820152601e60248201527f416d74206d757374206265206c657373207468616e20746f74207265666c000060448201526064015b60405180910390fd5b6000610d04611da6565b9050610d108382611a02565b9392505050565b6000546001600160a01b03163314610d415760405162461bcd60e51b8152600401610cf190613396565b6001600160a01b03811660009081526009602052604090205460ff16610d9c5760405162461bcd60e51b815260206004820152601060248201526f105b1c9958591e48195e18db1d59195960821b6044820152606401610cf1565b60005b600a54811015610ebc57816001600160a01b0316600a8281548110610dc657610dc66133db565b6000918252602090912001546001600160a01b031603610eaa57600a8054610df090600190613407565b81548110610e0057610e006133db565b600091825260209091200154600a80546001600160a01b039092169183908110610e2c57610e2c6133db565b600091825260208083209190910180546001600160a01b0319166001600160a01b039485161790559184168152600682526040808220829055600990925220805460ff19169055600a805480610e8457610e8461341a565b600082815260209020810160001990810180546001600160a01b03191690550190555050565b80610eb481613430565b915050610d9f565b5050565b3360008181526007602090815260408083206001600160a01b03871684529091528120549091610c2e918590610c929086611dc9565b3360008181526009602052604090205460ff1615610f6b5760405162461bcd60e51b815260206004820152602c60248201527f4578636c75646564206164647265737365732063616e6e6f742063616c6c207460448201526b3434b990333ab731ba34b7b760a11b6064820152608401610cf1565b6000610f7683611dd5565b505050506001600160a01b038416600090815260056020526040902054919250610fa291905082611e24565b6001600160a01b038316600090815260056020526040902055600c54610fc89082611e24565b600c55600d54610fd89084611dc9565b600d55505050565b600080546001600160a01b0316331461100b5760405162461bcd60e51b8152600401610cf190613396565b6110153383611e30565b5060015b919050565b6000546001600160a01b031633146110485760405162461bcd60e51b8152600401610cf190613396565b6001600160a01b03166000908152600860205260409020805460ff19166001179055565b6000600b548311156110c05760405162461bcd60e51b815260206004820152601c60248201527f416d74206d757374206265206c657373207468616e20737570706c79000000006044820152606401610cf1565b816110df5760006110d084611dd5565b50939550610c32945050505050565b60006110ea84611dd5565b50929550610c32945050505050565b6000546001600160a01b031633146111235760405162461bcd60e51b8152600401610cf190613396565b6001600160a01b03811660009081526009602052604090205460ff16611203576001600160a01b0381166000908152600560205260409020541561119d576001600160a01b03811660009081526005602052604090205461118390610ca1565b6001600160a01b0382166000908152600660205260409020555b6001600160a01b0381166000818152600960205260408120805460ff19166001908117909155600a805491820181559091527fc65a7bb8d6351c1cf70c95a316cc6a92839c986682d98bc35f958f4883f9d2a80180546001600160a01b03191690911790555b50565b6001600160a01b03811660009081526009602052604081205460ff161561124357506001600160a01b031660009081526006602052604090205490565b6001600160a01b038216600090815260056020526040902054610c3290610ca1565b6000546001600160a01b0316331461128f5760405162461bcd60e51b8152600401610cf190613396565b600080546040516001600160a01b03909116907f8be0079c531659141344cd1fd0a4f28419497f9722a3daafe3b4186f6b6457e0908390a3600080546001600160a01b0319169055565b6000546001600160a01b031633146113035760405162461bcd60e51b8152600401610cf190613396565b6010546113149060ff16600a61352d565b61131e908261353c565b60135550565b6000546001600160a01b0316331461134e5760405162461bcd60e51b8152600401610cf190613396565b6001600160a01b0381166113935760405162461bcd60e51b815260206004820152600c60248201526b5a45524f204144445245535360a01b6044820152606401610cf1565b61139c816110f9565b601080546001600160a01b03909216600160581b027fff0000000000000000000000000000000000000000ffffffffffffffffffffff909216919091179055565b6060600f8054610b9e9061335c565b600080546001600160a01b031633146114175760405162461bcd60e51b8152600401610cf190613396565b6110153383611f42565b6000610c2e3384610c9285604051806060016040528060258152602001613735602591393360009081526007602090815260408083206001600160a01b038d1684529091529020549190611d7a565b6000610c2e338484611b1c565b606060028054610b9e9061335c565b600f80546114999061335c565b80601f01602080910402602001604051908101604052809291908181526020018280546114c59061335c565b80156115125780601f106114e757610100808354040283529160200191611512565b820191906000526020600020905b8154815290600101906020018083116114f557829003601f168201915b505050505081565b6000546001600160a01b031633146115445760405162461bcd60e51b8152600401610cf190613396565b306001600160a01b0383160361158c5760405162461bcd60e51b815260206004820152600d60248201526c53656c6620776974686472617760981b6044820152606401610cf1565b816001600160a01b031663a9059cbb6115ad6000546001600160a01b031690565b6040516001600160e01b031960e084901b1681526001600160a01b039091166004820152602481018490526044016020604051808303816000875af11580156115fa573d6000803e3d6000fd5b505050506040513d601f19601f8201168201806040525081019061161e9190613553565b505050565b6000546001600160a01b0316331461164d5760405162461bcd60e51b8152600401610cf190613396565b6011805460ff19168215159081179091556040519081527f53726dfcaf90650aa7eb35524f4d3220f07413c8d6cb404cc8c18bf5591bc1599060200160405180910390a150565b600e80546114999061335c565b6000546001600160a01b031633146116cb5760405162461bcd60e51b8152600401610cf190613396565b6001600160a01b03166000908152600860205260409020805460ff19169055565b6000546001600160a01b031633146117165760405162461bcd60e51b8152600401610cf190613396565b6001600160a01b0381166117805760405162461bcd60e51b815260206004820152602b60248201527f45524332304f776e61626c653a206e6577206f776e657220697320746865207a60448201526a65726f206164647265737360a81b6064820152608401610cf1565b600080546040516001600160a01b03808516939216917f8be0079c531659141344cd1fd0a4f28419497f9722a3daafe3b4186f6b6457e091a3600080546001600160a01b0319166001600160a01b0392909216919091179055565b6000546001600160a01b031633146118055760405162461bcd60e51b8152600401610cf190613396565b60045460ff600160a81b909104811690861611156118505760405162461bcd60e51b81526020600482015260086024820152672a231032b93937b960c11b6044820152606401610cf1565b60045460ff600160a01b9091048116908516111561189b5760405162461bcd60e51b815260206004820152600860248201526726231032b93937b960c11b6044820152606401610cf1565b60045460ff600160b01b909104811690841611156118e65760405162461bcd60e51b815260206004820152600860248201526721231032b93937b960c11b6044820152606401610cf1565b60045460ff600160b81b909104811690831611156119315760405162461bcd60e51b81526020600482015260086024820152672ba31032b93937b960c11b6044820152606401610cf1565b60045460ff600160c01b9091048116908216111561197d5760405162461bcd60e51b81526020600482015260096024820152682121231032b93937b960b91b6044820152606401610cf1565b6010805463ff00ff00191661010060ff9788160263ff0000001916176301000000958716959095029490941769ff000000ff00000000001916600160281b9386169390930260ff60481b191692909217600160481b928516929092029190911760ff60381b1916600160381b9190931602919091179055565b6000610d10828461353c565b6000610d108284613570565b6001600160a01b038316611a645760405162461bcd60e51b815260206004820181905260248201527f45524332303a20617070726f76652066726f6d207a65726f20616464726573736044820152606401610cf1565b6001600160a01b038216611aba5760405162461bcd60e51b815260206004820152601e60248201527f45524332303a20617070726f766520746f207a65726f206164647265737300006044820152606401610cf1565b6001600160a01b0383811660008181526007602090815260408083209487168084529482529182902085905590518481527f8c5be1e5ebec7d5bd14f71427d1e84f3dd0314c0f7b2291e5b200ac8c7c3b92591015b60405180910390a3505050565b6001600160a01b038316611b7c5760405162461bcd60e51b815260206004820152602160248201527f45524332303a207472616e736665722066726f6d207a65726f206164647265736044820152607360f81b6064820152608401610cf1565b6001600160a01b038216611bd25760405162461bcd60e51b815260206004820152601f60248201527f45524332303a207472616e7366657220746f207a65726f2061646472657373006044820152606401610cf1565b60008111611c345760405162461bcd60e51b815260206004820152602960248201527f5472616e7366657220616d6f756e74206d7573742062652067726561746572206044820152687468616e207a65726f60b81b6064820152608401610cf1565b6000611c3f30611206565b601054909150600160f81b900460ff16158015611c8d57507f00000000000000000000000000000000000000000000000000000000000000006001600160a01b0316836001600160a01b0316145b8015611c9b575060115460ff165b15611d1c576012548110611cb65750601254611cb68161202b565b601054600160481b900460ff1615611d1c576010544790611cdb9060ff16600a61352d565b611ce690600161353c565b811115611d1a57601354811115611cfc57506013545b611d1a611d156064611d0f8460326119f6565b90611a02565b612250565b505b6001600160a01b03841660009081526008602052604090205460019060ff1680611d5e57506001600160a01b03841660009081526008602052604090205460ff165b15611d67575060005b611d7385858584612286565b5050505050565b60008184841115611d9e5760405162461bcd60e51b8152600401610cf19190613157565b505050900390565b6000806000611db36124a7565b9092509050611dc28282611a02565b9250505090565b6000610d108284613592565b6000806000806000806000806000611dec8a612629565b9250925092506000806000611e0a8d8686611e05611da6565b61266b565b919f909e50909c50959a5093985091965092945050505050565b6000610d108284613407565b6001600160a01b038216611e905760405162461bcd60e51b815260206004820152602160248201527f42455032303a206275726e2066726f6d20746865207a65726f206164647265736044820152607360f81b6064820152608401610cf1565b601054600090611ea49060ff16600a6135a5565b611eae908361353c565b9050611eed81604051806060016040528060228152602001613713602291396001600160a01b0386166000908152600660205260409020549190611d7a565b6001600160a01b038416600090815260066020526040902055600b54611f139082611e24565b600b556040518181526000906001600160a01b038516906000805160206136f383398151915290602001611b0f565b6001600160a01b038216611f985760405162461bcd60e51b815260206004820152601f60248201527f42455032303a206d696e7420746f20746865207a65726f2061646472657373006044820152606401610cf1565b601054600090611fac9060ff16600a6135a5565b611fb6908361353c565b600b54909150611fc69082611dc9565b600b556001600160a01b038316600090815260066020526040902054611fec9082611dc9565b6001600160a01b0384166000818152600660205260408082209390935591519091906000805160206136f383398151915290611b0f9085815260200190565b601080546001600160f81b0316600160f81b1790819055600090600160481b810460ff908116916301000000810482169161207891600160381b8104821691600160281b909104166135b1565b61208291906135b1565b61208c91906135b1565b6010549091506000908190600160281b900460ff16156120eb576010546120cd9060ff600160281b9091048116906120c79087908716611a02565b906119f6565b6003549092506120e89030906001600160a01b0316846126bb565b50805b601054600160381b900460ff161561214d5760105461211e9060ff600160381b9091048116906120c79087908716611a02565b9150612140306010600b9054906101000a90046001600160a01b0316846126bb565b61214a8282613592565b90505b601054600160481b900460ff1615612198576010546121809060ff600160481b9091048116906120c79087908716611a02565b915061218b8261280f565b6121958282613592565b90505b6010546301000000900460ff161561223b576121b48482611e24565b935060006121c3856002611a02565b905060006121d18683611e24565b9050476121dd8361280f565b60006121e94783611e24565b90506121f583826129da565b60408051858152602081018390529081018490527f17bbfb9a6069321b6ded73bd96327c9e6b7212a5cd51ff219cd61370acafb5619060600160405180910390a1505050505b5050601080546001600160f81b031690555050565b601080546001600160f81b0316600160f81b17905580156122745761227481612ae4565b50601080546001600160f81b03169055565b8061229357612293612c7a565b6001600160a01b03841660009081526009602052604090205460ff1680156122d457506001600160a01b03831660009081526009602052604090205460ff16155b156122e9576122e4848484612db6565b6123e7565b6001600160a01b03841660009081526009602052604090205460ff1615801561232a57506001600160a01b03831660009081526009602052604090205460ff165b1561233a576122e4848484612eca565b6001600160a01b03841660009081526009602052604090205460ff1615801561237c57506001600160a01b03831660009081526009602052604090205460ff16155b1561238c576122e4848484612f73565b6001600160a01b03841660009081526009602052604090205460ff1680156123cc57506001600160a01b03831660009081526009602052604090205460ff165b156123dc576122e4848484612fb7565b6123e7848484612f73565b806124a1576010805460ff60481b1967ff00ff00000000001963ff00ff0019831663ff0000001961010062010000860460ff908116919091029182169290921764010000000061ff00199096169091179490940481166301000000029390931790811660ff60381b19660100000000000083048516600160281b0290811691909117600160401b65ff000000000019909316909117919091048316600160381b0217908116600160501b909104909116600160481b021790555b50505050565b600c54600b546000918291825b600a548110156125f9578260056000600a84815481106124d6576124d66133db565b60009182526020808320909101546001600160a01b03168352820192909252604001902054118061254157508160066000600a848154811061251a5761251a6133db565b60009182526020808320909101546001600160a01b03168352820192909252604001902054115b1561255757600c54600b54945094505050509091565b61259d60056000600a8481548110612571576125716133db565b60009182526020808320909101546001600160a01b031683528201929092526040019020548490611e24565b92506125e560066000600a84815481106125b9576125b96133db565b60009182526020808320909101546001600160a01b031683528201929092526040019020548390611e24565b9150806125f181613430565b9150506124b4565b50600b54600c5461260991611a02565b82101561262057600c54600b549350935050509091565b90939092509050565b6000806000806126388561302a565b905060006126458661304a565b9050600061265d826126578986611e24565b90611e24565b979296509094509092505050565b600080808061267a88866119f6565b9050600061268888876119f6565b9050600061269688886119f6565b905060006126a8826126578686611e24565b939b939a50919850919650505050505050565b6001600160a01b0383166000908152600560205260409020546126de9082611e24565b6001600160a01b03808516600090815260056020526040808220939093559084168152205461270d9082611dc9565b6001600160a01b0380841660009081526005602090815260408083209490945591861681526009909152205460ff161561277e576001600160a01b0383166000908152600660205260409020546127649082611e24565b6001600160a01b0384166000908152600660205260409020555b6001600160a01b03821660009081526009602052604090205460ff16156127dc576001600160a01b0382166000908152600660205260409020546127c29082611dc9565b6001600160a01b0383166000908152600660205260409020555b816001600160a01b0316836001600160a01b03166000805160206136f383398151915283604051611b0f91815260200190565b6040805160028082526060820183526000926020830190803683370190505090503081600081518110612844576128446133db565b60200260200101906001600160a01b031690816001600160a01b0316815250507f00000000000000000000000000000000000000000000000000000000000000006001600160a01b031663ad5c46486040518163ffffffff1660e01b8152600401602060405180830381865afa1580156128c2573d6000803e3d6000fd5b505050506040513d601f19601f820116820180604052508101906128e691906135ca565b816001815181106128f9576128f96133db565b60200260200101906001600160a01b031690816001600160a01b031681525050612944307f000000000000000000000000000000000000000000000000000000000000000084611a0e565b6001600160a01b037f00000000000000000000000000000000000000000000000000000000000000001663791ac94783600084306129844261012c611dc9565b6040518663ffffffff1660e01b81526004016129a495949392919061362b565b600060405180830381600087803b1580156129be57600080fd5b505af11580156129d2573d6000803e3d6000fd5b505050505050565b612a05307f000000000000000000000000000000000000000000000000000000000000000084611a0e565b6003546001600160a01b037f000000000000000000000000000000000000000000000000000000000000000081169163f305d71991849130918791600091829116612a524261012c611dc9565b60405160e089901b6001600160e01b03191681526001600160a01b039687166004820152602481019590955260448501939093526064840191909152909216608482015260a481019190915260c40160606040518083038185885af1158015612abf573d6000803e3d6000fd5b50505050506040513d601f19601f82011682018060405250810190611d739190613667565b6040805160028082526060820183526000926020830190803683370190505090507f00000000000000000000000000000000000000000000000000000000000000006001600160a01b031663ad5c46486040518163ffffffff1660e01b8152600401602060405180830381865afa158015612b63573d6000803e3d6000fd5b505050506040513d601f19601f82011682018060405250810190612b8791906135ca565b81600081518110612b9a57612b9a6133db565b60200260200101906001600160a01b031690816001600160a01b0316815250503081600181518110612bce57612bce6133db565b6001600160a01b0392831660209182029290920101526003547f000000000000000000000000000000000000000000000000000000000000000082169163b6f9de95918591600091869116612c254261012c611dc9565b6040518663ffffffff1660e01b8152600401612c449493929190613695565b6000604051808303818588803b158015612c5d57600080fd5b505af1158015612c71573d6000803e3d6000fd5b50505050505050565b601054610100900460ff16158015612c9c57506010546301000000900460ff16155b8015612cb25750601054600160281b900460ff16155b8015612cc85750601054600160381b900460ff16155b8015612cde5750601054600160481b900460ff16155b15612ce557565b601080546affff00ff00ff00ff00ff001968ff00ff0000000000001964ff00ff000019831664ff0000000019610100850460ff908116620100000291821692909217630100000062ff000019909616909117949094048116640100000000029390931790811668ff000000000000000019600160281b8304851666010000000000000290811691909117600160381b66ff00000000000019909316909117919091048316600160401b0217908116600160481b909104909116600160501b0269ff00ff00ff00ff00ff001916179055565b600080600080600080612dc887611dd5565b6001600160a01b038f16600090815260066020526040902054959b50939950919750955093509150612dfa9088611e24565b6001600160a01b038a16600090815260066020908152604080832093909355600590522054612e299087611e24565b6001600160a01b03808b1660009081526005602052604080822093909355908a1681522054612e589086611dc9565b6001600160a01b038916600090815260056020526040902055612e7a816130ab565b612e848483613133565b876001600160a01b0316896001600160a01b03166000805160206136f383398151915285604051612eb791815260200190565b60405180910390a3505050505050505050565b600080600080600080612edc87611dd5565b6001600160a01b038f16600090815260056020526040902054959b50939950919750955093509150612f0e9087611e24565b6001600160a01b03808b16600090815260056020908152604080832094909455918b16815260069091522054612f449084611dc9565b6001600160a01b038916600090815260066020908152604080832093909355600590522054612e589086611dc9565b600080600080600080612f8587611dd5565b6001600160a01b038f16600090815260056020526040902054959b50939950919750955093509150612e299087611e24565b600080600080600080612fc987611dd5565b6001600160a01b038f16600090815260066020526040902054959b50939950919750955093509150612ffb9088611e24565b6001600160a01b038a16600090815260066020908152604080832093909355600590522054612f0e9087611e24565b601054600090610c3290606490611d0f908590610100900460ff166119f6565b601054600090610c3290606490611d0f9060ff600160481b8204811691600160381b810482169161308d91600160281b81048216916301000000909104166135b1565b61309791906135b1565b6130a191906135b1565b859060ff166119f6565b60006130b5611da6565b905060006130c383836119f6565b306000908152600560205260409020549091506130e09082611dc9565b3060009081526005602090815260408083209390935560099052205460ff161561161e573060009081526006602052604090205461311e9084611dc9565b30600090815260066020526040902055505050565b600c546131409083611e24565b600c55600d546131509082611dc9565b600d555050565b600060208083528351808285015260005b8181101561318457858101830151858201604001528201613168565b506000604082860101526040601f19601f8301168501019250505092915050565b6001600160a01b038116811461120357600080fd5b600080604083850312156131cd57600080fd5b82356131d8816131a5565b946020939093013593505050565b6000806000606084860312156131fb57600080fd5b8335613206816131a5565b92506020840135613216816131a5565b929592945050506040919091013590565b60006020828403121561323957600080fd5b5035919050565b60006020828403121561325257600080fd5b8135610d10816131a5565b801515811461120357600080fd5b6000806040838503121561327e57600080fd5b8235915060208301356132908161325d565b809150509250929050565b6000602082840312156132ad57600080fd5b8135610d108161325d565b600080604083850312156132cb57600080fd5b82356132d6816131a5565b91506020830135613290816131a5565b803560ff8116811461101957600080fd5b600080600080600060a0868803121561330f57600080fd5b613318866132e6565b9450613326602087016132e6565b9350613334604087016132e6565b9250613342606087016132e6565b9150613350608087016132e6565b90509295509295909350565b600181811c9082168061337057607f821691505b60208210810361339057634e487b7160e01b600052602260045260246000fd5b50919050565b60208082526025908201527f45524332304f776e61626c653a2063616c6c6572206973206e6f74207468652060408201526437bbb732b960d91b606082015260800190565b634e487b7160e01b600052603260045260246000fd5b634e487b7160e01b600052601160045260246000fd5b81810381811115610c3257610c326133f1565b634e487b7160e01b600052603160045260246000fd5b600060018201613442576134426133f1565b5060010190565b600181815b8085111561348457816000190482111561346a5761346a6133f1565b8085161561347757918102915b93841c939080029061344e565b509250929050565b60008261349b57506001610c32565b816134a857506000610c32565b81600181146134be57600281146134c8576134e4565b6001915050610c32565b60ff8411156134d9576134d96133f1565b50506001821b610c32565b5060208310610133831016604e8410600b8410161715613507575081810a610c32565b6135118383613449565b8060001904821115613525576135256133f1565b029392505050565b6000610d1060ff84168361348c565b8082028115828204841417610c3257610c326133f1565b60006020828403121561356557600080fd5b8151610d108161325d565b60008261358d57634e487b7160e01b600052601260045260246000fd5b500490565b80820180821115610c3257610c326133f1565b6000610d10838361348c565b60ff8181168382160190811115610c3257610c326133f1565b6000602082840312156135dc57600080fd5b8151610d10816131a5565b600081518084526020808501945080840160005b838110156136205781516001600160a01b0316875295820195908201906001016135fb565b509495945050505050565b85815284602082015260a06040820152600061364a60a08301866135e7565b6001600160a01b0394909416606083015250608001529392505050565b60008060006060848603121561367c57600080fd5b8351925060208401519150604084015190509250925092565b8481526080602082015260006136ae60808301866135e7565b6001600160a01b0394909416604083015250606001529291505056fe45524332303a207472616e7366657220616d6f756e74206578636565647320616c6c6f77616e6365ddf252ad1be2c89b69c2b068fc378daa952ba7f163c4a11628f55a4df523b3ef42455032303a206275726e20616d6f756e7420657863656564732062616c616e636545524332303a2064656372656173656420616c6c6f77616e63652062656c6f77207a65726fa2646970667358221220aa8fd3a28e94c4803d3a7cd354ffdea2342b4c7f76b0fc07e155ae523b73927a64736f6c63430008120033",
			"opcodes": "PUSH1 0xC0 PUSH1 0x40 DUP2 SWAP1 MSTORE PUSH1 0x3 DUP1 SLOAD PUSH2 0xDEAD PUSH1 0x1 PUSH1 0x1 PUSH1 0xA0 SHL SUB NOT SWAP1 SWAP2 AND OR SWAP1 SSTORE PUSH1 0x4 DUP1 SLOAD PUSH1 0x1 PUSH1 0x1 PUSH1 0xD8 SHL SUB NOT AND PUSH6 0x808505050505 PUSH1 0xA1 SHL OR SWAP1 SSTORE PUSH1 0x10 DUP1 SLOAD PUSH4 0xFFFFFFFF PUSH1 0x38 SHL NOT PUSH7 0xFFFFFFFF000000 NOT PUSH3 0xFFFFFF NOT DUP4 AND PUSH1 0xFF PUSH2 0x100 PUSH1 0x12 PUSH2 0xFFFF NOT SWAP1 SWAP7 AND DUP7 OR DIV DUP2 AND PUSH3 0x10000 MUL SWAP2 SWAP1 SWAP2 OR SWAP1 SWAP4 OR SWAP1 DUP2 AND PUSH2 0xFFFF PUSH1 0x28 SHL NOT PUSH4 0x1000000 PUSH4 0xFF000000 NOT DUP5 AND DIV DUP6 AND PUSH5 0x100000000 MUL SWAP1 DUP2 AND SWAP2 SWAP1 SWAP2 OR PUSH6 0x10000000000 PUSH6 0xFFFFFF000000 NOT SWAP1 SWAP4 AND PUSH1 0xFF PUSH1 0x28 SHL NOT SWAP3 SWAP1 SWAP3 AND SWAP2 SWAP1 SWAP2 OR SWAP2 SWAP1 SWAP2 DIV DUP4 AND PUSH7 0x1000000000000 MUL OR SWAP1 DUP2 AND PUSH2 0xFFFF PUSH1 0x48 SHL NOT PUSH8 0x100000000000000 PUSH1 0xFF PUSH1 0x38 SHL NOT DUP5 AND DIV DUP5 AND PUSH9 0x10000000000000000 MUL SWAP1 DUP2 AND SWAP2 SWAP1 SWAP2 OR PUSH10 0x1000000000000000000 PUSH3 0xFFFFFF PUSH1 0x38 SHL NOT SWAP1 SWAP4 AND PUSH1 0xFF PUSH1 0x48 SHL NOT SWAP3 SWAP1 SWAP3 AND SWAP2 SWAP1 SWAP2 OR SWAP2 SWAP1 SWAP2 DIV SWAP1 SWAP2 AND PUSH11 0x100000000000000000000 MUL OR SWAP1 SSTORE PUSH1 0x11 DUP1 SLOAD PUSH1 0xFF NOT AND PUSH1 0x1 OR SWAP1 SSTORE PUSH8 0xDE0B6B3A7640000 PUSH1 0x13 SSTORE PUSH3 0x4313 CODESIZE DUP2 SWAP1 SUB SWAP1 DUP2 SWAP1 DUP4 CODECOPY DUP2 ADD PUSH1 0x40 DUP2 SWAP1 MSTORE PUSH3 0x16E SWAP2 PUSH3 0x705 JUMP JUMPDEST PUSH1 0x40 DUP1 MLOAD DUP1 DUP3 ADD DUP3 MSTORE PUSH1 0xB DUP2 MSTORE PUSH11 0x9ACAE8C29AC2F0BE9A9AB PUSH1 0xAB SHL PUSH1 0x20 DUP3 ADD MSTORE PUSH1 0x0 DUP1 SLOAD PUSH1 0x1 PUSH1 0x1 PUSH1 0xA0 SHL SUB NOT AND CALLER SWAP1 DUP2 OR DUP3 SSTORE SWAP3 MLOAD SWAP2 SWAP3 DUP15 SWAP3 SWAP1 SWAP2 DUP3 SWAP2 PUSH32 0x8BE0079C531659141344CD1FD0A4F28419497F9722A3DAAFE3B4186F6B6457E0 SWAP1 DUP3 SWAP1 LOG3 POP PUSH1 0x1 DUP1 SLOAD PUSH1 0x1 PUSH1 0x1 PUSH1 0xA0 SHL SUB NOT AND PUSH1 0x1 PUSH1 0x1 PUSH1 0xA0 SHL SUB DUP4 AND OR SWAP1 SSTORE PUSH1 0x2 PUSH3 0x1FC DUP4 DUP3 PUSH3 0x8A7 JUMP JUMPDEST POP PUSH1 0x40 MLOAD PUSH1 0x1 PUSH1 0x1 PUSH1 0xA0 SHL SUB DUP3 AND SWAP1 CALLVALUE DUP1 ISZERO PUSH2 0x8FC MUL SWAP2 PUSH1 0x0 DUP2 DUP2 DUP2 DUP6 DUP9 DUP9 CALL SWAP4 POP POP POP POP ISZERO DUP1 ISZERO PUSH3 0x233 JUMPI RETURNDATASIZE PUSH1 0x0 DUP1 RETURNDATACOPY RETURNDATASIZE PUSH1 0x0 REVERT JUMPDEST POP PUSH1 0xE SWAP2 POP PUSH3 0x246 SWAP1 POP DUP12 DUP3 PUSH3 0x8A7 JUMP JUMPDEST POP PUSH1 0xF PUSH3 0x255 DUP11 DUP3 PUSH3 0x8A7 JUMP JUMPDEST POP PUSH1 0x10 DUP1 SLOAD PUSH1 0xFF NOT AND PUSH1 0xFF DUP11 AND SWAP1 DUP2 OR SWAP1 SWAP2 SSTORE PUSH3 0x275 SWAP1 PUSH1 0xA PUSH3 0xA86 JUMP JUMPDEST PUSH3 0x281 SWAP1 DUP9 PUSH3 0xA94 JUMP JUMPDEST PUSH1 0xB DUP2 SWAP1 SSTORE PUSH3 0x294 SWAP1 PUSH1 0x0 NOT PUSH3 0xAC4 JUMP JUMPDEST PUSH3 0x2A2 SWAP1 PUSH1 0x0 NOT PUSH3 0xADB JUMP JUMPDEST PUSH1 0xC SSTORE PUSH1 0xB SLOAD CALLER PUSH1 0x0 SWAP1 DUP2 MSTORE PUSH1 0x6 PUSH1 0x20 SWAP1 DUP2 MSTORE PUSH1 0x40 SWAP1 SWAP2 KECCAK256 SWAP2 SWAP1 SWAP2 SSTORE PUSH3 0x2F4 SWAP1 PUSH2 0x2710 SWAP1 PUSH3 0x2E0 SWAP1 DUP11 SWAP1 PUSH1 0x1 SWAP1 PUSH3 0x19F6 PUSH3 0x5EC DUP3 SHL OR SWAP1 SHR JUMP JUMPDEST PUSH3 0x603 PUSH1 0x20 SHL PUSH3 0x1A02 OR SWAP1 SWAP2 SWAP1 PUSH1 0x20 SHR JUMP JUMPDEST PUSH1 0x13 SSTORE PUSH1 0xC SLOAD CALLER PUSH1 0x0 DUP2 DUP2 MSTORE PUSH1 0x5 PUSH1 0x20 SWAP1 DUP2 MSTORE PUSH1 0x40 SWAP1 SWAP2 KECCAK256 SWAP3 SWAP1 SWAP3 SSTORE PUSH1 0x10 DUP1 SLOAD PUSH1 0x1 PUSH1 0x58 SHL PUSH1 0x1 PUSH1 0xF8 SHL SUB NOT AND PUSH12 0x10000000000000000000000 SWAP1 SWAP3 MUL SWAP2 SWAP1 SWAP2 OR SWAP1 SSTORE PUSH3 0x359 SWAP1 PUSH2 0x3E8 SWAP1 PUSH3 0x2E0 SWAP1 DUP11 SWAP1 PUSH1 0x1 SWAP1 PUSH3 0x5EC DUP2 SHL PUSH3 0x19F6 OR SWAP1 SHR JUMP JUMPDEST PUSH1 0x12 DUP2 SWAP1 SSTORE POP PUSH1 0x0 DUP7 SWAP1 POP DUP1 PUSH1 0x1 PUSH1 0x1 PUSH1 0xA0 SHL SUB AND PUSH4 0xC45A0155 PUSH1 0x40 MLOAD DUP2 PUSH4 0xFFFFFFFF AND PUSH1 0xE0 SHL DUP2 MSTORE PUSH1 0x4 ADD PUSH1 0x20 PUSH1 0x40 MLOAD DUP1 DUP4 SUB DUP2 DUP7 GAS STATICCALL ISZERO DUP1 ISZERO PUSH3 0x3A3 JUMPI RETURNDATASIZE PUSH1 0x0 DUP1 RETURNDATACOPY RETURNDATASIZE PUSH1 0x0 REVERT JUMPDEST POP POP POP POP PUSH1 0x40 MLOAD RETURNDATASIZE PUSH1 0x1F NOT PUSH1 0x1F DUP3 ADD AND DUP3 ADD DUP1 PUSH1 0x40 MSTORE POP DUP2 ADD SWAP1 PUSH3 0x3C9 SWAP2 SWAP1 PUSH3 0xAF1 JUMP JUMPDEST PUSH1 0x1 PUSH1 0x1 PUSH1 0xA0 SHL SUB AND PUSH4 0xC9C65396 ADDRESS DUP4 PUSH1 0x1 PUSH1 0x1 PUSH1 0xA0 SHL SUB AND PUSH4 0xAD5C4648 PUSH1 0x40 MLOAD DUP2 PUSH4 0xFFFFFFFF AND PUSH1 0xE0 SHL DUP2 MSTORE PUSH1 0x4 ADD PUSH1 0x20 PUSH1 0x40 MLOAD DUP1 DUP4 SUB DUP2 DUP7 GAS STATICCALL ISZERO DUP1 ISZERO PUSH3 0x417 JUMPI RETURNDATASIZE PUSH1 0x0 DUP1 RETURNDATACOPY RETURNDATASIZE PUSH1 0x0 REVERT JUMPDEST POP POP POP POP PUSH1 0x40 MLOAD RETURNDATASIZE PUSH1 0x1F NOT PUSH1 0x1F DUP3 ADD AND DUP3 ADD DUP1 PUSH1 0x40 MSTORE POP DUP2 ADD SWAP1 PUSH3 0x43D SWAP2 SWAP1 PUSH3 0xAF1 JUMP JUMPDEST PUSH1 0x40 MLOAD PUSH1 0x1 PUSH1 0x1 PUSH1 0xE0 SHL SUB NOT PUSH1 0xE0 DUP6 SWAP1 SHL AND DUP2 MSTORE PUSH1 0x1 PUSH1 0x1 PUSH1 0xA0 SHL SUB SWAP3 DUP4 AND PUSH1 0x4 DUP3 ADD MSTORE SWAP2 AND PUSH1 0x24 DUP3 ADD MSTORE PUSH1 0x44 ADD PUSH1 0x20 PUSH1 0x40 MLOAD DUP1 DUP4 SUB DUP2 PUSH1 0x0 DUP8 GAS CALL ISZERO DUP1 ISZERO PUSH3 0x48B JUMPI RETURNDATASIZE PUSH1 0x0 DUP1 RETURNDATACOPY RETURNDATASIZE PUSH1 0x0 REVERT JUMPDEST POP POP POP POP PUSH1 0x40 MLOAD RETURNDATASIZE PUSH1 0x1F NOT PUSH1 0x1F DUP3 ADD AND DUP3 ADD DUP1 PUSH1 0x40 MSTORE POP DUP2 ADD SWAP1 PUSH3 0x4B1 SWAP2 SWAP1 PUSH3 0xAF1 JUMP JUMPDEST PUSH1 0x1 PUSH1 0x1 PUSH1 0xA0 SHL SUB SWAP1 DUP2 AND PUSH1 0xA0 MSTORE DUP2 AND PUSH1 0x80 MSTORE PUSH1 0x1 PUSH1 0x8 PUSH1 0x0 CALLER PUSH1 0x1 PUSH1 0x1 PUSH1 0xA0 SHL SUB AND DUP2 MSTORE PUSH1 0x20 DUP1 DUP3 ADD SWAP3 SWAP1 SWAP3 MSTORE PUSH1 0x40 SWAP1 DUP2 ADD PUSH1 0x0 SWAP1 DUP2 KECCAK256 DUP1 SLOAD PUSH1 0xFF NOT SWAP1 DUP2 AND SWAP6 ISZERO ISZERO SWAP6 SWAP1 SWAP6 OR SWAP1 SSTORE ADDRESS DUP2 MSTORE PUSH1 0x8 SWAP1 SWAP3 MSTORE SWAP1 KECCAK256 DUP1 SLOAD SWAP1 SWAP2 AND PUSH1 0x1 OR SWAP1 SSTORE PUSH1 0x10 DUP1 SLOAD PUSH4 0xFF00FF00 NOT AND PUSH2 0x100 PUSH1 0xFF DUP10 DUP2 AND SWAP2 SWAP1 SWAP2 MUL PUSH4 0xFF000000 NOT AND SWAP2 SWAP1 SWAP2 OR PUSH4 0x1000000 DUP7 DUP4 AND MUL OR PUSH5 0xFF000000FF PUSH1 0x28 SHL NOT AND PUSH6 0x10000000000 DUP8 DUP4 AND MUL PUSH1 0xFF PUSH1 0x48 SHL NOT AND OR PUSH10 0x1000000000000000000 DUP6 DUP4 AND MUL OR PUSH1 0xFF PUSH1 0x38 SHL NOT AND PUSH8 0x100000000000000 SWAP2 DUP9 AND SWAP2 SWAP1 SWAP2 MUL OR SWAP1 SSTORE PUSH3 0x58A CALLER SWAP1 JUMP JUMPDEST PUSH1 0x1 PUSH1 0x1 PUSH1 0xA0 SHL SUB AND PUSH1 0x0 PUSH1 0x1 PUSH1 0x1 PUSH1 0xA0 SHL SUB AND PUSH32 0xDDF252AD1BE2C89B69C2B068FC378DAA952BA7F163C4A11628F55A4DF523B3EF PUSH1 0xB SLOAD PUSH1 0x40 MLOAD PUSH3 0x5D2 SWAP2 DUP2 MSTORE PUSH1 0x20 ADD SWAP1 JUMP JUMPDEST PUSH1 0x40 MLOAD DUP1 SWAP2 SUB SWAP1 LOG3 POP POP POP POP POP POP POP POP POP POP POP POP PUSH3 0xB26 JUMP JUMPDEST PUSH1 0x0 PUSH3 0x5FA DUP3 DUP5 PUSH3 0xA94 JUMP JUMPDEST SWAP1 POP JUMPDEST SWAP3 SWAP2 POP POP JUMP JUMPDEST PUSH1 0x0 PUSH3 0x5FA DUP3 DUP5 PUSH3 0xB0F JUMP JUMPDEST DUP1 MLOAD PUSH1 0x1 PUSH1 0x1 PUSH1 0xA0 SHL SUB DUP2 AND DUP2 EQ PUSH3 0x629 JUMPI PUSH1 0x0 DUP1 REVERT JUMPDEST SWAP2 SWAP1 POP JUMP JUMPDEST PUSH4 0x4E487B71 PUSH1 0xE0 SHL PUSH1 0x0 MSTORE PUSH1 0x41 PUSH1 0x4 MSTORE PUSH1 0x24 PUSH1 0x0 REVERT JUMPDEST PUSH1 0x0 DUP3 PUSH1 0x1F DUP4 ADD SLT PUSH3 0x656 JUMPI PUSH1 0x0 DUP1 REVERT JUMPDEST DUP2 MLOAD PUSH1 0x1 PUSH1 0x1 PUSH1 0x40 SHL SUB DUP1 DUP3 GT ISZERO PUSH3 0x673 JUMPI PUSH3 0x673 PUSH3 0x62E JUMP JUMPDEST PUSH1 0x40 MLOAD PUSH1 0x1F DUP4 ADD PUSH1 0x1F NOT SWAP1 DUP2 AND PUSH1 0x3F ADD AND DUP2 ADD SWAP1 DUP3 DUP3 GT DUP2 DUP4 LT OR ISZERO PUSH3 0x69E JUMPI PUSH3 0x69E PUSH3 0x62E JUMP JUMPDEST DUP2 PUSH1 0x40 MSTORE DUP4 DUP2 MSTORE PUSH1 0x20 SWAP3 POP DUP7 DUP4 DUP6 DUP9 ADD ADD GT ISZERO PUSH3 0x6BB JUMPI PUSH1 0x0 DUP1 REVERT JUMPDEST PUSH1 0x0 SWAP2 POP JUMPDEST DUP4 DUP3 LT ISZERO PUSH3 0x6DF JUMPI DUP6 DUP3 ADD DUP4 ADD MLOAD DUP2 DUP4 ADD DUP5 ADD MSTORE SWAP1 DUP3 ADD SWAP1 PUSH3 0x6C0 JUMP JUMPDEST PUSH1 0x0 SWAP4 DUP2 ADD SWAP1 SWAP3 ADD SWAP3 SWAP1 SWAP3 MSTORE SWAP5 SWAP4 POP POP POP POP JUMP JUMPDEST DUP1 MLOAD PUSH1 0xFF DUP2 AND DUP2 EQ PUSH3 0x629 JUMPI PUSH1 0x0 DUP1 REVERT JUMPDEST PUSH1 0x0 DUP1 PUSH1 0x0 DUP1 PUSH1 0x0 DUP1 PUSH1 0x0 DUP1 PUSH1 0x0 DUP1 PUSH1 0x0 PUSH2 0x160 DUP13 DUP15 SUB SLT ISZERO PUSH3 0x728 JUMPI PUSH1 0x0 DUP1 REVERT JUMPDEST PUSH3 0x733 DUP13 PUSH3 0x611 JUMP JUMPDEST PUSH1 0x20 DUP14 ADD MLOAD SWAP1 SWAP12 POP PUSH1 0x1 PUSH1 0x1 PUSH1 0x40 SHL SUB DUP2 GT ISZERO PUSH3 0x750 JUMPI PUSH1 0x0 DUP1 REVERT JUMPDEST PUSH3 0x75E DUP15 DUP3 DUP16 ADD PUSH3 0x644 JUMP JUMPDEST PUSH1 0x40 DUP15 ADD MLOAD SWAP1 SWAP12 POP SWAP1 POP PUSH1 0x1 PUSH1 0x1 PUSH1 0x40 SHL SUB DUP2 GT ISZERO PUSH3 0x77D JUMPI PUSH1 0x0 DUP1 REVERT JUMPDEST PUSH3 0x78B DUP15 DUP3 DUP16 ADD PUSH3 0x644 JUMP JUMPDEST SWAP10 POP POP PUSH3 0x79C PUSH1 0x60 DUP14 ADD PUSH3 0x6F3 JUMP JUMPDEST SWAP8 POP PUSH1 0x80 DUP13 ADD MLOAD SWAP7 POP PUSH3 0x7B3 PUSH1 0xA0 DUP14 ADD PUSH3 0x611 JUMP JUMPDEST SWAP6 POP PUSH3 0x7C3 PUSH1 0xC0 DUP14 ADD PUSH3 0x6F3 JUMP JUMPDEST SWAP5 POP PUSH3 0x7D3 PUSH1 0xE0 DUP14 ADD PUSH3 0x6F3 JUMP JUMPDEST SWAP4 POP PUSH3 0x7E4 PUSH2 0x100 DUP14 ADD PUSH3 0x6F3 JUMP JUMPDEST SWAP3 POP PUSH3 0x7F5 PUSH2 0x120 DUP14 ADD PUSH3 0x6F3 JUMP JUMPDEST SWAP2 POP PUSH3 0x806 PUSH2 0x140 DUP14 ADD PUSH3 0x6F3 JUMP JUMPDEST SWAP1 POP SWAP3 SWAP6 SWAP9 SWAP12 POP SWAP3 SWAP6 SWAP9 SWAP12 SWAP1 SWAP4 SWAP7 SWAP10 POP JUMP JUMPDEST PUSH1 0x1 DUP2 DUP2 SHR SWAP1 DUP3 AND DUP1 PUSH3 0x82D JUMPI PUSH1 0x7F DUP3 AND SWAP2 POP JUMPDEST PUSH1 0x20 DUP3 LT DUP2 SUB PUSH3 0x84E JUMPI PUSH4 0x4E487B71 PUSH1 0xE0 SHL PUSH1 0x0 MSTORE PUSH1 0x22 PUSH1 0x4 MSTORE PUSH1 0x24 PUSH1 0x0 REVERT JUMPDEST POP SWAP2 SWAP1 POP JUMP JUMPDEST PUSH1 0x1F DUP3 GT ISZERO PUSH3 0x8A2 JUMPI PUSH1 0x0 DUP2 DUP2 MSTORE PUSH1 0x20 DUP2 KECCAK256 PUSH1 0x1F DUP6 ADD PUSH1 0x5 SHR DUP2 ADD PUSH1 0x20 DUP7 LT ISZERO PUSH3 0x87D JUMPI POP DUP1 JUMPDEST PUSH1 0x1F DUP6 ADD PUSH1 0x5 SHR DUP3 ADD SWAP2 POP JUMPDEST DUP2 DUP2 LT ISZERO PUSH3 0x89E JUMPI DUP3 DUP2 SSTORE PUSH1 0x1 ADD PUSH3 0x889 JUMP JUMPDEST POP POP POP JUMPDEST POP POP POP JUMP JUMPDEST DUP2 MLOAD PUSH1 0x1 PUSH1 0x1 PUSH1 0x40 SHL SUB DUP2 GT ISZERO PUSH3 0x8C3 JUMPI PUSH3 0x8C3 PUSH3 0x62E JUMP JUMPDEST PUSH3 0x8DB DUP2 PUSH3 0x8D4 DUP5 SLOAD PUSH3 0x818 JUMP JUMPDEST DUP5 PUSH3 0x854 JUMP JUMPDEST PUSH1 0x20 DUP1 PUSH1 0x1F DUP4 GT PUSH1 0x1 DUP2 EQ PUSH3 0x913 JUMPI PUSH1 0x0 DUP5 ISZERO PUSH3 0x8FA JUMPI POP DUP6 DUP4 ADD MLOAD JUMPDEST PUSH1 0x0 NOT PUSH1 0x3 DUP7 SWAP1 SHL SHR NOT AND PUSH1 0x1 DUP6 SWAP1 SHL OR DUP6 SSTORE PUSH3 0x89E JUMP JUMPDEST PUSH1 0x0 DUP6 DUP2 MSTORE PUSH1 0x20 DUP2 KECCAK256 PUSH1 0x1F NOT DUP7 AND SWAP2 JUMPDEST DUP3 DUP2 LT ISZERO PUSH3 0x944 JUMPI DUP9 DUP7 ADD MLOAD DUP3 SSTORE SWAP5 DUP5 ADD SWAP5 PUSH1 0x1 SWAP1 SWAP2 ADD SWAP1 DUP5 ADD PUSH3 0x923 JUMP JUMPDEST POP DUP6 DUP3 LT ISZERO PUSH3 0x963 JUMPI DUP8 DUP6 ADD MLOAD PUSH1 0x0 NOT PUSH1 0x3 DUP9 SWAP1 SHL PUSH1 0xF8 AND SHR NOT AND DUP2 SSTORE JUMPDEST POP POP POP POP POP PUSH1 0x1 SWAP1 DUP2 SHL ADD SWAP1 SSTORE POP JUMP JUMPDEST PUSH4 0x4E487B71 PUSH1 0xE0 SHL PUSH1 0x0 MSTORE PUSH1 0x11 PUSH1 0x4 MSTORE PUSH1 0x24 PUSH1 0x0 REVERT JUMPDEST PUSH1 0x1 DUP2 DUP2 JUMPDEST DUP1 DUP6 GT ISZERO PUSH3 0x9CA JUMPI DUP2 PUSH1 0x0 NOT DIV DUP3 GT ISZERO PUSH3 0x9AE JUMPI PUSH3 0x9AE PUSH3 0x973 JUMP JUMPDEST DUP1 DUP6 AND ISZERO PUSH3 0x9BC JUMPI SWAP2 DUP2 MUL SWAP2 JUMPDEST SWAP4 DUP5 SHR SWAP4 SWAP1 DUP1 MUL SWAP1 PUSH3 0x98E JUMP JUMPDEST POP SWAP3 POP SWAP3 SWAP1 POP JUMP JUMPDEST PUSH1 0x0 DUP3 PUSH3 0x9E3 JUMPI POP PUSH1 0x1 PUSH3 0x5FD JUMP JUMPDEST DUP2 PUSH3 0x9F2 JUMPI POP PUSH1 0x0 PUSH3 0x5FD JUMP JUMPDEST DUP2 PUSH1 0x1 DUP2 EQ PUSH3 0xA0B JUMPI PUSH1 0x2 DUP2 EQ PUSH3 0xA16 JUMPI PUSH3 0xA36 JUMP JUMPDEST PUSH1 0x1 SWAP2 POP POP PUSH3 0x5FD JUMP JUMPDEST PUSH1 0xFF DUP5 GT ISZERO PUSH3 0xA2A JUMPI PUSH3 0xA2A PUSH3 0x973 JUMP JUMPDEST POP POP PUSH1 0x1 DUP3 SHL PUSH3 0x5FD JUMP JUMPDEST POP PUSH1 0x20 DUP4 LT PUSH2 0x133 DUP4 LT AND PUSH1 0x4E DUP5 LT PUSH1 0xB DUP5 LT AND OR ISZERO PUSH3 0xA5B JUMPI POP DUP2 DUP2 EXP PUSH3 0x5FD JUMP JUMPDEST PUSH3 0xA67 DUP4 DUP4 PUSH3 0x989 JUMP JUMPDEST DUP1 PUSH1 0x0 NOT DIV DUP3 GT ISZERO PUSH3 0xA7E JUMPI PUSH3 0xA7E PUSH3 0x973 JUMP JUMPDEST MUL SWAP4 SWAP3 POP POP POP JUMP JUMPDEST PUSH1 0x0 PUSH3 0x5FA DUP4 DUP4 PUSH3 0x9D2 JUMP JUMPDEST DUP1 DUP3 MUL DUP2 ISZERO DUP3 DUP3 DIV DUP5 EQ OR PUSH3 0x5FD JUMPI PUSH3 0x5FD PUSH3 0x973 JUMP JUMPDEST PUSH4 0x4E487B71 PUSH1 0xE0 SHL PUSH1 0x0 MSTORE PUSH1 0x12 PUSH1 0x4 MSTORE PUSH1 0x24 PUSH1 0x0 REVERT JUMPDEST PUSH1 0x0 DUP3 PUSH3 0xAD6 JUMPI PUSH3 0xAD6 PUSH3 0xAAE JUMP JUMPDEST POP MOD SWAP1 JUMP JUMPDEST DUP2 DUP2 SUB DUP2 DUP2 GT ISZERO PUSH3 0x5FD JUMPI PUSH3 0x5FD PUSH3 0x973 JUMP JUMPDEST PUSH1 0x0 PUSH1 0x20 DUP3 DUP5 SUB SLT ISZERO PUSH3 0xB04 JUMPI PUSH1 0x0 DUP1 REVERT JUMPDEST PUSH3 0x5FA DUP3 PUSH3 0x611 JUMP JUMPDEST PUSH1 0x0 DUP3 PUSH3 0xB21 JUMPI PUSH3 0xB21 PUSH3 0xAAE JUMP JUMPDEST POP DIV SWAP1 JUMP JUMPDEST PUSH1 0x80 MLOAD PUSH1 0xA0 MLOAD PUSH2 0x378F PUSH3 0xB84 PUSH1 0x0 CODECOPY PUSH1 0x0 DUP2 DUP2 PUSH2 0x71E ADD MSTORE PUSH2 0x1C59 ADD MSTORE PUSH1 0x0 DUP2 DUP2 PUSH2 0x4A6 ADD MSTORE DUP2 DUP2 PUSH2 0x2866 ADD MSTORE DUP2 DUP2 PUSH2 0x291F ADD MSTORE DUP2 DUP2 PUSH2 0x294E ADD MSTORE DUP2 DUP2 PUSH2 0x29E0 ADD MSTORE DUP2 DUP2 PUSH2 0x2A12 ADD MSTORE DUP2 DUP2 PUSH2 0x2B07 ADD MSTORE PUSH2 0x2BE9 ADD MSTORE PUSH2 0x378F PUSH1 0x0 RETURN INVALID PUSH1 0x80 PUSH1 0x40 MSTORE PUSH1 0x4 CALLDATASIZE LT PUSH2 0x385 JUMPI PUSH1 0x0 CALLDATALOAD PUSH1 0xE0 SHR DUP1 PUSH4 0x6BC87C3A GT PUSH2 0x1D1 JUMPI DUP1 PUSH4 0xAF465A27 GT PUSH2 0x102 JUMPI DUP1 PUSH4 0xC7992F9A GT PUSH2 0xA0 JUMPI DUP1 PUSH4 0xEA2F0B37 GT PUSH2 0x6F JUMPI DUP1 PUSH4 0xEA2F0B37 EQ PUSH2 0xB08 JUMPI DUP1 PUSH4 0xF25F4B56 EQ PUSH2 0xB28 JUMPI DUP1 PUSH4 0xF2FDE38B EQ PUSH2 0xB4F JUMPI DUP1 PUSH4 0xF6A3C9A9 EQ PUSH2 0xB6F JUMPI PUSH1 0x0 DUP1 REVERT JUMPDEST DUP1 PUSH4 0xC7992F9A EQ PUSH2 0xA76 JUMPI DUP1 PUSH4 0xD12A7688 EQ PUSH2 0xA97 JUMPI DUP1 PUSH4 0xD28D8852 EQ PUSH2 0xAAD JUMPI DUP1 PUSH4 0xDD62ED3E EQ PUSH2 0xAC2 JUMPI PUSH1 0x0 DUP1 REVERT JUMPDEST DUP1 PUSH4 0xBDC653EF GT PUSH2 0xDC JUMPI DUP1 PUSH4 0xBDC653EF EQ PUSH2 0xA0C JUMPI DUP1 PUSH4 0xC0B0FDA2 EQ PUSH2 0xA21 JUMPI DUP1 PUSH4 0xC2E7D95C EQ PUSH2 0xA42 JUMPI DUP1 PUSH4 0xC49B9A80 EQ PUSH2 0xA56 JUMPI PUSH1 0x0 DUP1 REVERT JUMPDEST DUP1 PUSH4 0xAF465A27 EQ PUSH2 0x9C1 JUMPI DUP1 PUSH4 0xB09F1266 EQ PUSH2 0x9D7 JUMPI DUP1 PUSH4 0xB29A8140 EQ PUSH2 0x9EC JUMPI PUSH1 0x0 DUP1 REVERT JUMPDEST DUP1 PUSH4 0x8DA5CB5B GT PUSH2 0x16F JUMPI DUP1 PUSH4 0xA0712D68 GT PUSH2 0x149 JUMPI DUP1 PUSH4 0xA0712D68 EQ PUSH2 0x94C JUMPI DUP1 PUSH4 0xA457C2D7 EQ PUSH2 0x96C JUMPI DUP1 PUSH4 0xA9059CBB EQ PUSH2 0x98C JUMPI DUP1 PUSH4 0xAA23E03D EQ PUSH2 0x9AC JUMPI PUSH1 0x0 DUP1 REVERT JUMPDEST DUP1 PUSH4 0x8DA5CB5B EQ PUSH2 0x8F9 JUMPI DUP1 PUSH4 0x90D49B9D EQ PUSH2 0x917 JUMPI DUP1 PUSH4 0x95D89B41 EQ PUSH2 0x937 JUMPI PUSH1 0x0 DUP1 REVERT JUMPDEST DUP1 PUSH4 0x715018A6 GT PUSH2 0x1AB JUMPI DUP1 PUSH4 0x715018A6 EQ PUSH2 0x84B JUMPI DUP1 PUSH4 0x7AFA1EED EQ PUSH2 0x860 JUMPI DUP1 PUSH4 0x82D2A4BB EQ PUSH2 0x8A0 JUMPI DUP1 PUSH4 0x88F82020 EQ PUSH2 0x8C0 JUMPI PUSH1 0x0 DUP1 REVERT JUMPDEST DUP1 PUSH4 0x6BC87C3A EQ PUSH2 0x7E9 JUMPI DUP1 PUSH4 0x70690B11 EQ PUSH2 0x80A JUMPI DUP1 PUSH4 0x70A08231 EQ PUSH2 0x82B JUMPI PUSH1 0x0 DUP1 REVERT JUMPDEST DUP1 PUSH4 0x3B124FE7 GT PUSH2 0x2B6 JUMPI DUP1 PUSH4 0x49B0DB14 GT PUSH2 0x254 JUMPI DUP1 PUSH4 0x52390C02 GT PUSH2 0x223 JUMPI DUP1 PUSH4 0x52390C02 EQ PUSH2 0x740 JUMPI DUP1 PUSH4 0x5342ACB4 EQ PUSH2 0x760 JUMPI DUP1 PUSH4 0x54CE6578 EQ PUSH2 0x799 JUMPI DUP1 PUSH4 0x54FD4D50 EQ PUSH2 0x7BA JUMPI PUSH1 0x0 DUP1 REVERT JUMPDEST DUP1 PUSH4 0x49B0DB14 EQ PUSH2 0x69F JUMPI DUP1 PUSH4 0x4A74BB02 EQ PUSH2 0x6D1 JUMPI DUP1 PUSH4 0x51330A19 EQ PUSH2 0x6EB JUMPI DUP1 PUSH4 0x52143290 EQ PUSH2 0x70C JUMPI PUSH1 0x0 DUP1 REVERT JUMPDEST DUP1 PUSH4 0x42966C68 GT PUSH2 0x290 JUMPI DUP1 PUSH4 0x42966C68 EQ PUSH2 0x61E JUMPI DUP1 PUSH4 0x430CA090 EQ PUSH2 0x63E JUMPI DUP1 PUSH4 0x437823EC EQ PUSH2 0x65F JUMPI DUP1 PUSH4 0x4549B039 EQ PUSH2 0x67F JUMPI PUSH1 0x0 DUP1 REVERT JUMPDEST DUP1 PUSH4 0x3B124FE7 EQ PUSH2 0x5BE JUMPI DUP1 PUSH4 0x3BD5D173 EQ PUSH2 0x5DD JUMPI DUP1 PUSH4 0x3C81385C EQ PUSH2 0x5FD JUMPI PUSH1 0x0 DUP1 REVERT JUMPDEST DUP1 PUSH4 0x2D6ABF87 GT PUSH2 0x323 JUMPI DUP1 PUSH4 0x324F8DBF GT PUSH2 0x2FD JUMPI DUP1 PUSH4 0x324F8DBF EQ PUSH2 0x518 JUMPI DUP1 PUSH4 0x34B1A50C EQ PUSH2 0x539 JUMPI DUP1 PUSH4 0x3685D419 EQ PUSH2 0x57C JUMPI DUP1 PUSH4 0x39509351 EQ PUSH2 0x59E JUMPI PUSH1 0x0 DUP1 REVERT JUMPDEST DUP1 PUSH4 0x2D6ABF87 EQ PUSH2 0x494 JUMPI DUP1 PUSH4 0x2D838119 EQ PUSH2 0x4E0 JUMPI DUP1 PUSH4 0x313CE567 EQ PUSH2 0x500 JUMPI PUSH1 0x0 DUP1 REVERT JUMPDEST DUP1 PUSH4 0x15FA749A GT PUSH2 0x35F JUMPI DUP1 PUSH4 0x15FA749A EQ PUSH2 0x40B JUMPI DUP1 PUSH4 0x18160DDD EQ PUSH2 0x43E JUMPI DUP1 PUSH4 0x19DE79AB EQ PUSH2 0x453 JUMPI DUP1 PUSH4 0x23B872DD EQ PUSH2 0x474 JUMPI PUSH1 0x0 DUP1 REVERT JUMPDEST DUP1 PUSH4 0x6FDDE03 EQ PUSH2 0x391 JUMPI DUP1 PUSH4 0x95EA7B3 EQ PUSH2 0x3BC JUMPI DUP1 PUSH4 0x13114A9D EQ PUSH2 0x3EC JUMPI PUSH1 0x0 DUP1 REVERT JUMPDEST CALLDATASIZE PUSH2 0x38C JUMPI STOP JUMPDEST PUSH1 0x0 DUP1 REVERT JUMPDEST CALLVALUE DUP1 ISZERO PUSH2 0x39D JUMPI PUSH1 0x0 DUP1 REVERT JUMPDEST POP PUSH2 0x3A6 PUSH2 0xB8F JUMP JUMPDEST PUSH1 0x40 MLOAD PUSH2 0x3B3 SWAP2 SWAP1 PUSH2 0x3157 JUMP JUMPDEST PUSH1 0x40 MLOAD DUP1 SWAP2 SUB SWAP1 RETURN JUMPDEST CALLVALUE DUP1 ISZERO PUSH2 0x3C8 JUMPI PUSH1 0x0 DUP1 REVERT JUMPDEST POP PUSH2 0x3DC PUSH2 0x3D7 CALLDATASIZE PUSH1 0x4 PUSH2 0x31BA JUMP JUMPDEST PUSH2 0xC21 JUMP JUMPDEST PUSH1 0x40 MLOAD SWAP1 ISZERO ISZERO DUP2 MSTORE PUSH1 0x20 ADD PUSH2 0x3B3 JUMP JUMPDEST CALLVALUE DUP1 ISZERO PUSH2 0x3F8 JUMPI PUSH1 0x0 DUP1 REVERT JUMPDEST POP PUSH1 0xD SLOAD JUMPDEST PUSH1 0x40 MLOAD SWAP1 DUP2 MSTORE PUSH1 0x20 ADD PUSH2 0x3B3 JUMP JUMPDEST CALLVALUE DUP1 ISZERO PUSH2 0x417 JUMPI PUSH1 0x0 DUP1 REVERT JUMPDEST POP PUSH1 0x4 SLOAD PUSH2 0x42C SWAP1 PUSH1 0x1 PUSH1 0xC0 SHL SWAP1 DIV PUSH1 0xFF AND DUP2 JUMP JUMPDEST PUSH1 0x40 MLOAD PUSH1 0xFF SWAP1 SWAP2 AND DUP2 MSTORE PUSH1 0x20 ADD PUSH2 0x3B3 JUMP JUMPDEST CALLVALUE DUP1 ISZERO PUSH2 0x44A JUMPI PUSH1 0x0 DUP1 REVERT JUMPDEST POP PUSH1 0xB SLOAD PUSH2 0x3FD JUMP JUMPDEST CALLVALUE DUP1 ISZERO PUSH2 0x45F JUMPI PUSH1 0x0 DUP1 REVERT JUMPDEST POP PUSH1 0x10 SLOAD PUSH2 0x42C SWAP1 PUSH1 0x1 PUSH1 0x48 SHL SWAP1 DIV PUSH1 0xFF AND DUP2 JUMP JUMPDEST CALLVALUE DUP1 ISZERO PUSH2 0x480 JUMPI PUSH1 0x0 DUP1 REVERT JUMPDEST POP PUSH2 0x3DC PUSH2 0x48F CALLDATASIZE PUSH1 0x4 PUSH2 0x31E6 JUMP JUMPDEST PUSH2 0xC38 JUMP JUMPDEST CALLVALUE DUP1 ISZERO PUSH2 0x4A0 JUMPI PUSH1 0x0 DUP1 REVERT JUMPDEST POP PUSH2 0x4C8 PUSH32 0x0 DUP2 JUMP JUMPDEST PUSH1 0x40 MLOAD PUSH1 0x1 PUSH1 0x1 PUSH1 0xA0 SHL SUB SWAP1 SWAP2 AND DUP2 MSTORE PUSH1 0x20 ADD PUSH2 0x3B3 JUMP JUMPDEST CALLVALUE DUP1 ISZERO PUSH2 0x4EC JUMPI PUSH1 0x0 DUP1 REVERT JUMPDEST POP PUSH2 0x3FD PUSH2 0x4FB CALLDATASIZE PUSH1 0x4 PUSH2 0x3227 JUMP JUMPDEST PUSH2 0xCA1 JUMP JUMPDEST CALLVALUE DUP1 ISZERO PUSH2 0x50C JUMPI PUSH1 0x0 DUP1 REVERT JUMPDEST POP PUSH1 0x10 SLOAD PUSH1 0xFF AND PUSH2 0x42C JUMP JUMPDEST CALLVALUE DUP1 ISZERO PUSH2 0x524 JUMPI PUSH1 0x0 DUP1 REVERT JUMPDEST POP PUSH1 0x4 SLOAD PUSH2 0x42C SWAP1 PUSH1 0x1 PUSH1 0xC8 SHL SWAP1 DIV PUSH1 0xFF AND DUP2 JUMP JUMPDEST CALLVALUE DUP1 ISZERO PUSH2 0x545 JUMPI PUSH1 0x0 DUP1 REVERT JUMPDEST POP PUSH2 0x3A6 PUSH1 0x40 MLOAD DUP1 PUSH1 0x40 ADD PUSH1 0x40 MSTORE DUP1 PUSH1 0x17 DUP2 MSTORE PUSH1 0x20 ADD PUSH23 0x68747470733A2F2F6D6574616D61782E66696E616E6365 PUSH1 0x48 SHL DUP2 MSTORE POP DUP2 JUMP JUMPDEST CALLVALUE DUP1 ISZERO PUSH2 0x588 JUMPI PUSH1 0x0 DUP1 REVERT JUMPDEST POP PUSH2 0x59C PUSH2 0x597 CALLDATASIZE PUSH1 0x4 PUSH2 0x3240 JUMP JUMPDEST PUSH2 0xD17 JUMP JUMPDEST STOP JUMPDEST CALLVALUE DUP1 ISZERO PUSH2 0x5AA JUMPI PUSH1 0x0 DUP1 REVERT JUMPDEST POP PUSH2 0x3DC PUSH2 0x5B9 CALLDATASIZE PUSH1 0x4 PUSH2 0x31BA JUMP JUMPDEST PUSH2 0xEC0 JUMP JUMPDEST CALLVALUE DUP1 ISZERO PUSH2 0x5CA JUMPI PUSH1 0x0 DUP1 REVERT JUMPDEST POP PUSH1 0x10 SLOAD PUSH2 0x42C SWAP1 PUSH2 0x100 SWAP1 DIV PUSH1 0xFF AND DUP2 JUMP JUMPDEST CALLVALUE DUP1 ISZERO PUSH2 0x5E9 JUMPI PUSH1 0x0 DUP1 REVERT JUMPDEST POP PUSH2 0x59C PUSH2 0x5F8 CALLDATASIZE PUSH1 0x4 PUSH2 0x3227 JUMP JUMPDEST PUSH2 0xEF6 JUMP JUMPDEST CALLVALUE DUP1 ISZERO PUSH2 0x609 JUMPI PUSH1 0x0 DUP1 REVERT JUMPDEST POP PUSH1 0x4 SLOAD PUSH2 0x42C SWAP1 PUSH1 0x1 PUSH1 0xB0 SHL SWAP1 DIV PUSH1 0xFF AND DUP2 JUMP JUMPDEST CALLVALUE DUP1 ISZERO PUSH2 0x62A JUMPI PUSH1 0x0 DUP1 REVERT JUMPDEST POP PUSH2 0x3DC PUSH2 0x639 CALLDATASIZE PUSH1 0x4 PUSH2 0x3227 JUMP JUMPDEST PUSH2 0xFE0 JUMP JUMPDEST CALLVALUE DUP1 ISZERO PUSH2 0x64A JUMPI PUSH1 0x0 DUP1 REVERT JUMPDEST POP PUSH1 0x4 SLOAD PUSH2 0x42C SWAP1 PUSH1 0x1 PUSH1 0xA0 SHL SWAP1 DIV PUSH1 0xFF AND DUP2 JUMP JUMPDEST CALLVALUE DUP1 ISZERO PUSH2 0x66B JUMPI PUSH1 0x0 DUP1 REVERT JUMPDEST POP PUSH2 0x59C PUSH2 0x67A CALLDATASIZE PUSH1 0x4 PUSH2 0x3240 JUMP JUMPDEST PUSH2 0x101E JUMP JUMPDEST CALLVALUE DUP1 ISZERO PUSH2 0x68B JUMPI PUSH1 0x0 DUP1 REVERT JUMPDEST POP PUSH2 0x3FD PUSH2 0x69A CALLDATASIZE PUSH1 0x4 PUSH2 0x326B JUMP JUMPDEST PUSH2 0x106C JUMP JUMPDEST CALLVALUE DUP1 ISZERO PUSH2 0x6AB JUMPI PUSH1 0x0 DUP1 REVERT JUMPDEST POP PUSH2 0x3A6 PUSH1 0x40 MLOAD DUP1 PUSH1 0x40 ADD PUSH1 0x40 MSTORE DUP1 PUSH1 0x6 DUP2 MSTORE PUSH1 0x20 ADD PUSH6 0x76312E302E3 PUSH1 0xD4 SHL DUP2 MSTORE POP DUP2 JUMP JUMPDEST CALLVALUE DUP1 ISZERO PUSH2 0x6DD JUMPI PUSH1 0x0 DUP1 REVERT JUMPDEST POP PUSH1 0x11 SLOAD PUSH2 0x3DC SWAP1 PUSH1 0xFF AND DUP2 JUMP JUMPDEST CALLVALUE DUP1 ISZERO PUSH2 0x6F7 JUMPI PUSH1 0x0 DUP1 REVERT JUMPDEST POP PUSH1 0x4 SLOAD PUSH2 0x42C SWAP1 PUSH1 0x1 PUSH1 0xB8 SHL SWAP1 DIV PUSH1 0xFF AND DUP2 JUMP JUMPDEST CALLVALUE DUP1 ISZERO PUSH2 0x718 JUMPI PUSH1 0x0 DUP1 REVERT JUMPDEST POP PUSH2 0x4C8 PUSH32 0x0 DUP2 JUMP JUMPDEST CALLVALUE DUP1 ISZERO PUSH2 0x74C JUMPI PUSH1 0x0 DUP1 REVERT JUMPDEST POP PUSH2 0x59C PUSH2 0x75B CALLDATASIZE PUSH1 0x4 PUSH2 0x3240 JUMP JUMPDEST PUSH2 0x10F9 JUMP JUMPDEST CALLVALUE DUP1 ISZERO PUSH2 0x76C JUMPI PUSH1 0x0 DUP1 REVERT JUMPDEST POP PUSH2 0x3DC PUSH2 0x77B CALLDATASIZE PUSH1 0x4 PUSH2 0x3240 JUMP JUMPDEST PUSH1 0x1 PUSH1 0x1 PUSH1 0xA0 SHL SUB AND PUSH1 0x0 SWAP1 DUP2 MSTORE PUSH1 0x8 PUSH1 0x20 MSTORE PUSH1 0x40 SWAP1 KECCAK256 SLOAD PUSH1 0xFF AND SWAP1 JUMP JUMPDEST CALLVALUE DUP1 ISZERO PUSH2 0x7A5 JUMPI PUSH1 0x0 DUP1 REVERT JUMPDEST POP PUSH1 0x10 SLOAD PUSH2 0x42C SWAP1 PUSH1 0x1 PUSH1 0x38 SHL SWAP1 DIV PUSH1 0xFF AND DUP2 JUMP JUMPDEST CALLVALUE DUP1 ISZERO PUSH2 0x7C6 JUMPI PUSH1 0x0 DUP1 REVERT JUMPDEST POP PUSH1 0x40 DUP1 MLOAD DUP1 DUP3 ADD SWAP1 SWAP2 MSTORE PUSH1 0x6 DUP2 MSTORE PUSH6 0x76312E302E3 PUSH1 0xD4 SHL PUSH1 0x20 DUP3 ADD MSTORE PUSH2 0x3A6 JUMP JUMPDEST CALLVALUE DUP1 ISZERO PUSH2 0x7F5 JUMPI PUSH1 0x0 DUP1 REVERT JUMPDEST POP PUSH1 0x10 SLOAD PUSH2 0x42C SWAP1 PUSH4 0x1000000 SWAP1 DIV PUSH1 0xFF AND DUP2 JUMP JUMPDEST CALLVALUE DUP1 ISZERO PUSH2 0x816 JUMPI PUSH1 0x0 DUP1 REVERT JUMPDEST POP PUSH1 0x4 SLOAD PUSH2 0x42C SWAP1 PUSH1 0x1 PUSH1 0xD0 SHL SWAP1 DIV PUSH1 0xFF AND DUP2 JUMP JUMPDEST CALLVALUE DUP1 ISZERO PUSH2 0x837 JUMPI PUSH1 0x0 DUP1 REVERT JUMPDEST POP PUSH2 0x3FD PUSH2 0x846 CALLDATASIZE PUSH1 0x4 PUSH2 0x3240 JUMP JUMPDEST PUSH2 0x1206 JUMP JUMPDEST CALLVALUE DUP1 ISZERO PUSH2 0x857 JUMPI PUSH1 0x0 DUP1 REVERT JUMPDEST POP PUSH2 0x59C PUSH2 0x1265 JUMP JUMPDEST CALLVALUE DUP1 ISZERO PUSH2 0x86C JUMPI PUSH1 0x0 DUP1 REVERT JUMPDEST POP PUSH1 0x40 DUP1 MLOAD DUP1 DUP3 ADD SWAP1 SWAP2 MSTORE PUSH1 0x17 DUP2 MSTORE PUSH23 0x68747470733A2F2F6D6574616D61782E66696E616E6365 PUSH1 0x48 SHL PUSH1 0x20 DUP3 ADD MSTORE PUSH2 0x3A6 JUMP JUMPDEST CALLVALUE DUP1 ISZERO PUSH2 0x8AC JUMPI PUSH1 0x0 DUP1 REVERT JUMPDEST POP PUSH2 0x59C PUSH2 0x8BB CALLDATASIZE PUSH1 0x4 PUSH2 0x3227 JUMP JUMPDEST PUSH2 0x12D9 JUMP JUMPDEST CALLVALUE DUP1 ISZERO PUSH2 0x8CC JUMPI PUSH1 0x0 DUP1 REVERT JUMPDEST POP PUSH2 0x3DC PUSH2 0x8DB CALLDATASIZE PUSH1 0x4 PUSH2 0x3240 JUMP JUMPDEST PUSH1 0x1 PUSH1 0x1 PUSH1 0xA0 SHL SUB AND PUSH1 0x0 SWAP1 DUP2 MSTORE PUSH1 0x9 PUSH1 0x20 MSTORE PUSH1 0x40 SWAP1 KECCAK256 SLOAD PUSH1 0xFF AND SWAP1 JUMP JUMPDEST CALLVALUE DUP1 ISZERO PUSH2 0x905 JUMPI PUSH1 0x0 DUP1 REVERT JUMPDEST POP PUSH1 0x0 SLOAD PUSH1 0x1 PUSH1 0x1 PUSH1 0xA0 SHL SUB AND PUSH2 0x4C8 JUMP JUMPDEST CALLVALUE DUP1 ISZERO PUSH2 0x923 JUMPI PUSH1 0x0 DUP1 REVERT JUMPDEST POP PUSH2 0x59C PUSH2 0x932 CALLDATASIZE PUSH1 0x4 PUSH2 0x3240 JUMP JUMPDEST PUSH2 0x1324 JUMP JUMPDEST CALLVALUE DUP1 ISZERO PUSH2 0x943 JUMPI PUSH1 0x0 DUP1 REVERT JUMPDEST POP PUSH2 0x3A6 PUSH2 0x13DD JUMP JUMPDEST CALLVALUE DUP1 ISZERO PUSH2 0x958 JUMPI PUSH1 0x0 DUP1 REVERT JUMPDEST POP PUSH2 0x3DC PUSH2 0x967 CALLDATASIZE PUSH1 0x4 PUSH2 0x3227 JUMP JUMPDEST PUSH2 0x13EC JUMP JUMPDEST CALLVALUE DUP1 ISZERO PUSH2 0x978 JUMPI PUSH1 0x0 DUP1 REVERT JUMPDEST POP PUSH2 0x3DC PUSH2 0x987 CALLDATASIZE PUSH1 0x4 PUSH2 0x31BA JUMP JUMPDEST PUSH2 0x1421 JUMP JUMPDEST CALLVALUE DUP1 ISZERO PUSH2 0x998 JUMPI PUSH1 0x0 DUP1 REVERT JUMPDEST POP PUSH2 0x3DC PUSH2 0x9A7 CALLDATASIZE PUSH1 0x4 PUSH2 0x31BA JUMP JUMPDEST PUSH2 0x1470 JUMP JUMPDEST CALLVALUE DUP1 ISZERO PUSH2 0x9B8 JUMPI PUSH1 0x0 DUP1 REVERT JUMPDEST POP PUSH2 0x3A6 PUSH2 0x147D JUMP JUMPDEST CALLVALUE DUP1 ISZERO PUSH2 0x9CD JUMPI PUSH1 0x0 DUP1 REVERT JUMPDEST POP PUSH2 0x3FD PUSH1 0xB SLOAD DUP2 JUMP JUMPDEST CALLVALUE DUP1 ISZERO PUSH2 0x9E3 JUMPI PUSH1 0x0 DUP1 REVERT JUMPDEST POP PUSH2 0x3A6 PUSH2 0x148C JUMP JUMPDEST CALLVALUE DUP1 ISZERO PUSH2 0x9F8 JUMPI PUSH1 0x0 DUP1 REVERT JUMPDEST POP PUSH2 0x59C PUSH2 0xA07 CALLDATASIZE PUSH1 0x4 PUSH2 0x31BA JUMP JUMPDEST PUSH2 0x151A JUMP JUMPDEST CALLVALUE DUP1 ISZERO PUSH2 0xA18 JUMPI PUSH1 0x0 DUP1 REVERT JUMPDEST POP PUSH1 0x13 SLOAD PUSH2 0x3FD JUMP JUMPDEST CALLVALUE DUP1 ISZERO PUSH2 0xA2D JUMPI PUSH1 0x0 DUP1 REVERT JUMPDEST POP PUSH1 0x10 SLOAD PUSH2 0x42C SWAP1 PUSH1 0x1 PUSH1 0x28 SHL SWAP1 DIV PUSH1 0xFF AND DUP2 JUMP JUMPDEST CALLVALUE DUP1 ISZERO PUSH2 0xA4E JUMPI PUSH1 0x0 DUP1 REVERT JUMPDEST POP PUSH1 0x1 PUSH2 0x3DC JUMP JUMPDEST CALLVALUE DUP1 ISZERO PUSH2 0xA62 JUMPI PUSH1 0x0 DUP1 REVERT JUMPDEST POP PUSH2 0x59C PUSH2 0xA71 CALLDATASIZE PUSH1 0x4 PUSH2 0x329B JUMP JUMPDEST PUSH2 0x1623 JUMP JUMPDEST CALLVALUE DUP1 ISZERO PUSH2 0xA82 JUMPI PUSH1 0x0 DUP1 REVERT JUMPDEST POP PUSH1 0x4 SLOAD PUSH2 0x42C SWAP1 PUSH1 0x1 PUSH1 0xA8 SHL SWAP1 DIV PUSH1 0xFF AND DUP2 JUMP JUMPDEST CALLVALUE DUP1 ISZERO PUSH2 0xAA3 JUMPI PUSH1 0x0 DUP1 REVERT JUMPDEST POP PUSH2 0x3FD PUSH1 0x12 SLOAD DUP2 JUMP JUMPDEST CALLVALUE DUP1 ISZERO PUSH2 0xAB9 JUMPI PUSH1 0x0 DUP1 REVERT JUMPDEST POP PUSH2 0x3A6 PUSH2 0x1694 JUMP JUMPDEST CALLVALUE DUP1 ISZERO PUSH2 0xACE JUMPI PUSH1 0x0 DUP1 REVERT JUMPDEST POP PUSH2 0x3FD PUSH2 0xADD CALLDATASIZE PUSH1 0x4 PUSH2 0x32B8 JUMP JUMPDEST PUSH1 0x1 PUSH1 0x1 PUSH1 0xA0 SHL SUB SWAP2 DUP3 AND PUSH1 0x0 SWAP1 DUP2 MSTORE PUSH1 0x7 PUSH1 0x20 SWAP1 DUP2 MSTORE PUSH1 0x40 DUP1 DUP4 KECCAK256 SWAP4 SWAP1 SWAP5 AND DUP3 MSTORE SWAP2 SWAP1 SWAP2 MSTORE KECCAK256 SLOAD SWAP1 JUMP JUMPDEST CALLVALUE DUP1 ISZERO PUSH2 0xB14 JUMPI PUSH1 0x0 DUP1 REVERT JUMPDEST POP PUSH2 0x59C PUSH2 0xB23 CALLDATASIZE PUSH1 0x4 PUSH2 0x3240 JUMP JUMPDEST PUSH2 0x16A1 JUMP JUMPDEST CALLVALUE DUP1 ISZERO PUSH2 0xB34 JUMPI PUSH1 0x0 DUP1 REVERT JUMPDEST POP PUSH1 0x10 SLOAD PUSH2 0x4C8 SWAP1 PUSH1 0x1 PUSH1 0x58 SHL SWAP1 DIV PUSH1 0x1 PUSH1 0x1 PUSH1 0xA0 SHL SUB AND DUP2 JUMP JUMPDEST CALLVALUE DUP1 ISZERO PUSH2 0xB5B JUMPI PUSH1 0x0 DUP1 REVERT JUMPDEST POP PUSH2 0x59C PUSH2 0xB6A CALLDATASIZE PUSH1 0x4 PUSH2 0x3240 JUMP JUMPDEST PUSH2 0x16EC JUMP JUMPDEST CALLVALUE DUP1 ISZERO PUSH2 0xB7B JUMPI PUSH1 0x0 DUP1 REVERT JUMPDEST POP PUSH2 0x59C PUSH2 0xB8A CALLDATASIZE PUSH1 0x4 PUSH2 0x32F7 JUMP JUMPDEST PUSH2 0x17DB JUMP JUMPDEST PUSH1 0x60 PUSH1 0xE DUP1 SLOAD PUSH2 0xB9E SWAP1 PUSH2 0x335C JUMP JUMPDEST DUP1 PUSH1 0x1F ADD PUSH1 0x20 DUP1 SWAP2 DIV MUL PUSH1 0x20 ADD PUSH1 0x40 MLOAD SWAP1 DUP2 ADD PUSH1 0x40 MSTORE DUP1 SWAP3 SWAP2 SWAP1 DUP2 DUP2 MSTORE PUSH1 0x20 ADD DUP3 DUP1 SLOAD PUSH2 0xBCA SWAP1 PUSH2 0x335C JUMP JUMPDEST DUP1 ISZERO PUSH2 0xC17 JUMPI DUP1 PUSH1 0x1F LT PUSH2 0xBEC JUMPI PUSH2 0x100 DUP1 DUP4 SLOAD DIV MUL DUP4 MSTORE SWAP2 PUSH1 0x20 ADD SWAP2 PUSH2 0xC17 JUMP JUMPDEST DUP3 ADD SWAP2 SWAP1 PUSH1 0x0 MSTORE PUSH1 0x20 PUSH1 0x0 KECCAK256 SWAP1 JUMPDEST DUP2 SLOAD DUP2 MSTORE SWAP1 PUSH1 0x1 ADD SWAP1 PUSH1 0x20 ADD DUP1 DUP4 GT PUSH2 0xBFA JUMPI DUP3 SWAP1 SUB PUSH1 0x1F AND DUP3 ADD SWAP2 JUMPDEST POP POP POP POP POP SWAP1 POP SWAP1 JUMP JUMPDEST PUSH1 0x0 PUSH2 0xC2E CALLER DUP5 DUP5 PUSH2 0x1A0E JUMP JUMPDEST POP PUSH1 0x1 JUMPDEST SWAP3 SWAP2 POP POP JUMP JUMPDEST PUSH1 0x0 PUSH2 0xC45 DUP5 DUP5 DUP5 PUSH2 0x1B1C JUMP JUMPDEST PUSH2 0xC97 DUP5 CALLER PUSH2 0xC92 DUP6 PUSH1 0x40 MLOAD DUP1 PUSH1 0x60 ADD PUSH1 0x40 MSTORE DUP1 PUSH1 0x28 DUP2 MSTORE PUSH1 0x20 ADD PUSH2 0x36CB PUSH1 0x28 SWAP2 CODECOPY PUSH1 0x1 PUSH1 0x1 PUSH1 0xA0 SHL SUB DUP11 AND PUSH1 0x0 SWAP1 DUP2 MSTORE PUSH1 0x7 PUSH1 0x20 SWAP1 DUP2 MSTORE PUSH1 0x40 DUP1 DUP4 KECCAK256 CALLER DUP5 MSTORE SWAP1 SWAP2 MSTORE SWAP1 KECCAK256 SLOAD SWAP2 SWAP1 PUSH2 0x1D7A JUMP JUMPDEST PUSH2 0x1A0E JUMP JUMPDEST POP PUSH1 0x1 SWAP4 SWAP3 POP POP POP JUMP JUMPDEST PUSH1 0x0 PUSH1 0xC SLOAD DUP3 GT ISZERO PUSH2 0xCFA JUMPI PUSH1 0x40 MLOAD PUSH3 0x461BCD PUSH1 0xE5 SHL DUP2 MSTORE PUSH1 0x20 PUSH1 0x4 DUP3 ADD MSTORE PUSH1 0x1E PUSH1 0x24 DUP3 ADD MSTORE PUSH32 0x416D74206D757374206265206C657373207468616E20746F74207265666C0000 PUSH1 0x44 DUP3 ADD MSTORE PUSH1 0x64 ADD JUMPDEST PUSH1 0x40 MLOAD DUP1 SWAP2 SUB SWAP1 REVERT JUMPDEST PUSH1 0x0 PUSH2 0xD04 PUSH2 0x1DA6 JUMP JUMPDEST SWAP1 POP PUSH2 0xD10 DUP4 DUP3 PUSH2 0x1A02 JUMP JUMPDEST SWAP4 SWAP3 POP POP POP JUMP JUMPDEST PUSH1 0x0 SLOAD PUSH1 0x1 PUSH1 0x1 PUSH1 0xA0 SHL SUB AND CALLER EQ PUSH2 0xD41 JUMPI PUSH1 0x40 MLOAD PUSH3 0x461BCD PUSH1 0xE5 SHL DUP2 MSTORE PUSH1 0x4 ADD PUSH2 0xCF1 SWAP1 PUSH2 0x3396 JUMP JUMPDEST PUSH1 0x1 PUSH1 0x1 PUSH1 0xA0 SHL SUB DUP2 AND PUSH1 0x0 SWAP1 DUP2 MSTORE PUSH1 0x9 PUSH1 0x20 MSTORE PUSH1 0x40 SWAP1 KECCAK256 SLOAD PUSH1 0xFF AND PUSH2 0xD9C JUMPI PUSH1 0x40 MLOAD PUSH3 0x461BCD PUSH1 0xE5 SHL DUP2 MSTORE PUSH1 0x20 PUSH1 0x4 DUP3 ADD MSTORE PUSH1 0x10 PUSH1 0x24 DUP3 ADD MSTORE PUSH16 0x105B1C9958591E48195E18DB1D591959 PUSH1 0x82 SHL PUSH1 0x44 DUP3 ADD MSTORE PUSH1 0x64 ADD PUSH2 0xCF1 JUMP JUMPDEST PUSH1 0x0 JUMPDEST PUSH1 0xA SLOAD DUP2 LT ISZERO PUSH2 0xEBC JUMPI DUP2 PUSH1 0x1 PUSH1 0x1 PUSH1 0xA0 SHL SUB AND PUSH1 0xA DUP3 DUP2 SLOAD DUP2 LT PUSH2 0xDC6 JUMPI PUSH2 0xDC6 PUSH2 0x33DB JUMP JUMPDEST PUSH1 0x0 SWAP2 DUP3 MSTORE PUSH1 0x20 SWAP1 SWAP2 KECCAK256 ADD SLOAD PUSH1 0x1 PUSH1 0x1 PUSH1 0xA0 SHL SUB AND SUB PUSH2 0xEAA JUMPI PUSH1 0xA DUP1 SLOAD PUSH2 0xDF0 SWAP1 PUSH1 0x1 SWAP1 PUSH2 0x3407 JUMP JUMPDEST DUP2 SLOAD DUP2 LT PUSH2 0xE00 JUMPI PUSH2 0xE00 PUSH2 0x33DB JUMP JUMPDEST PUSH1 0x0 SWAP2 DUP3 MSTORE PUSH1 0x20 SWAP1 SWAP2 KECCAK256 ADD SLOAD PUSH1 0xA DUP1 SLOAD PUSH1 0x1 PUSH1 0x1 PUSH1 0xA0 SHL SUB SWAP1 SWAP3 AND SWAP2 DUP4 SWAP1 DUP2 LT PUSH2 0xE2C JUMPI PUSH2 0xE2C PUSH2 0x33DB JUMP JUMPDEST PUSH1 0x0 SWAP2 DUP3 MSTORE PUSH1 0x20 DUP1 DUP4 KECCAK256 SWAP2 SWAP1 SWAP2 ADD DUP1 SLOAD PUSH1 0x1 PUSH1 0x1 PUSH1 0xA0 SHL SUB NOT AND PUSH1 0x1 PUSH1 0x1 PUSH1 0xA0 SHL SUB SWAP5 DUP6 AND OR SWAP1 SSTORE SWAP2 DUP5 AND DUP2 MSTORE PUSH1 0x6 DUP3 MSTORE PUSH1 0x40 DUP1 DUP3 KECCAK256 DUP3 SWAP1 SSTORE PUSH1 0x9 SWAP1 SWAP3 MSTORE KECCAK256 DUP1 SLOAD PUSH1 0xFF NOT AND SWAP1 SSTORE PUSH1 0xA DUP1 SLOAD DUP1 PUSH2 0xE84 JUMPI PUSH2 0xE84 PUSH2 0x341A JUMP JUMPDEST PUSH1 0x0 DUP3 DUP2 MSTORE PUSH1 0x20 SWAP1 KECCAK256 DUP2 ADD PUSH1 0x0 NOT SWAP1 DUP2 ADD DUP1 SLOAD PUSH1 0x1 PUSH1 0x1 PUSH1 0xA0 SHL SUB NOT AND SWAP1 SSTORE ADD SWAP1 SSTORE POP POP JUMP JUMPDEST DUP1 PUSH2 0xEB4 DUP2 PUSH2 0x3430 JUMP JUMPDEST SWAP2 POP POP PUSH2 0xD9F JUMP JUMPDEST POP POP JUMP JUMPDEST CALLER PUSH1 0x0 DUP2 DUP2 MSTORE PUSH1 0x7 PUSH1 0x20 SWAP1 DUP2 MSTORE PUSH1 0x40 DUP1 DUP4 KECCAK256 PUSH1 0x1 PUSH1 0x1 PUSH1 0xA0 SHL SUB DUP8 AND DUP5 MSTORE SWAP1 SWAP2 MSTORE DUP2 KECCAK256 SLOAD SWAP1 SWAP2 PUSH2 0xC2E SWAP2 DUP6 SWAP1 PUSH2 0xC92 SWAP1 DUP7 PUSH2 0x1DC9 JUMP JUMPDEST CALLER PUSH1 0x0 DUP2 DUP2 MSTORE PUSH1 0x9 PUSH1 0x20 MSTORE PUSH1 0x40 SWAP1 KECCAK256 SLOAD PUSH1 0xFF AND ISZERO PUSH2 0xF6B JUMPI PUSH1 0x40 MLOAD PUSH3 0x461BCD PUSH1 0xE5 SHL DUP2 MSTORE PUSH1 0x20 PUSH1 0x4 DUP3 ADD MSTORE PUSH1 0x2C PUSH1 0x24 DUP3 ADD MSTORE PUSH32 0x4578636C75646564206164647265737365732063616E6E6F742063616C6C2074 PUSH1 0x44 DUP3 ADD MSTORE PUSH12 0x3434B990333AB731BA34B7B7 PUSH1 0xA1 SHL PUSH1 0x64 DUP3 ADD MSTORE PUSH1 0x84 ADD PUSH2 0xCF1 JUMP JUMPDEST PUSH1 0x0 PUSH2 0xF76 DUP4 PUSH2 0x1DD5 JUMP JUMPDEST POP POP POP POP PUSH1 0x1 PUSH1 0x1 PUSH1 0xA0 SHL SUB DUP5 AND PUSH1 0x0 SWAP1 DUP2 MSTORE PUSH1 0x5 PUSH1 0x20 MSTORE PUSH1 0x40 SWAP1 KECCAK256 SLOAD SWAP2 SWAP3 POP PUSH2 0xFA2 SWAP2 SWAP1 POP DUP3 PUSH2 0x1E24 JUMP JUMPDEST PUSH1 0x1 PUSH1 0x1 PUSH1 0xA0 SHL SUB DUP4 AND PUSH1 0x0 SWAP1 DUP2 MSTORE PUSH1 0x5 PUSH1 0x20 MSTORE PUSH1 0x40 SWAP1 KECCAK256 SSTORE PUSH1 0xC SLOAD PUSH2 0xFC8 SWAP1 DUP3 PUSH2 0x1E24 JUMP JUMPDEST PUSH1 0xC SSTORE PUSH1 0xD SLOAD PUSH2 0xFD8 SWAP1 DUP5 PUSH2 0x1DC9 JUMP JUMPDEST PUSH1 0xD SSTORE POP POP POP JUMP JUMPDEST PUSH1 0x0 DUP1 SLOAD PUSH1 0x1 PUSH1 0x1 PUSH1 0xA0 SHL SUB AND CALLER EQ PUSH2 0x100B JUMPI PUSH1 0x40 MLOAD PUSH3 0x461BCD PUSH1 0xE5 SHL DUP2 MSTORE PUSH1 0x4 ADD PUSH2 0xCF1 SWAP1 PUSH2 0x3396 JUMP JUMPDEST PUSH2 0x1015 CALLER DUP4 PUSH2 0x1E30 JUMP JUMPDEST POP PUSH1 0x1 JUMPDEST SWAP2 SWAP1 POP JUMP JUMPDEST PUSH1 0x0 SLOAD PUSH1 0x1 PUSH1 0x1 PUSH1 0xA0 SHL SUB AND CALLER EQ PUSH2 0x1048 JUMPI PUSH1 0x40 MLOAD PUSH3 0x461BCD PUSH1 0xE5 SHL DUP2 MSTORE PUSH1 0x4 ADD PUSH2 0xCF1 SWAP1 PUSH2 0x3396 JUMP JUMPDEST PUSH1 0x1 PUSH1 0x1 PUSH1 0xA0 SHL SUB AND PUSH1 0x0 SWAP1 DUP2 MSTORE PUSH1 0x8 PUSH1 0x20 MSTORE PUSH1 0x40 SWAP1 KECCAK256 DUP1 SLOAD PUSH1 0xFF NOT AND PUSH1 0x1 OR SWAP1 SSTORE JUMP JUMPDEST PUSH1 0x0 PUSH1 0xB SLOAD DUP4 GT ISZERO PUSH2 0x10C0 JUMPI PUSH1 0x40 MLOAD PUSH3 0x461BCD PUSH1 0xE5 SHL DUP2 MSTORE PUSH1 0x20 PUSH1 0x4 DUP3 ADD MSTORE PUSH1 0x1C PUSH1 0x24 DUP3 ADD MSTORE PUSH32 0x416D74206D757374206265206C657373207468616E20737570706C7900000000 PUSH1 0x44 DUP3 ADD MSTORE PUSH1 0x64 ADD PUSH2 0xCF1 JUMP JUMPDEST DUP2 PUSH2 0x10DF JUMPI PUSH1 0x0 PUSH2 0x10D0 DUP5 PUSH2 0x1DD5 JUMP JUMPDEST POP SWAP4 SWAP6 POP PUSH2 0xC32 SWAP5 POP POP POP POP POP JUMP JUMPDEST PUSH1 0x0 PUSH2 0x10EA DUP5 PUSH2 0x1DD5 JUMP JUMPDEST POP SWAP3 SWAP6 POP PUSH2 0xC32 SWAP5 POP POP POP POP POP JUMP JUMPDEST PUSH1 0x0 SLOAD PUSH1 0x1 PUSH1 0x1 PUSH1 0xA0 SHL SUB AND CALLER EQ PUSH2 0x1123 JUMPI PUSH1 0x40 MLOAD PUSH3 0x461BCD PUSH1 0xE5 SHL DUP2 MSTORE PUSH1 0x4 ADD PUSH2 0xCF1 SWAP1 PUSH2 0x3396 JUMP JUMPDEST PUSH1 0x1 PUSH1 0x1 PUSH1 0xA0 SHL SUB DUP2 AND PUSH1 0x0 SWAP1 DUP2 MSTORE PUSH1 0x9 PUSH1 0x20 MSTORE PUSH1 0x40 SWAP1 KECCAK256 SLOAD PUSH1 0xFF AND PUSH2 0x1203 JUMPI PUSH1 0x1 PUSH1 0x1 PUSH1 0xA0 SHL SUB DUP2 AND PUSH1 0x0 SWAP1 DUP2 MSTORE PUSH1 0x5 PUSH1 0x20 MSTORE PUSH1 0x40 SWAP1 KECCAK256 SLOAD ISZERO PUSH2 0x119D JUMPI PUSH1 0x1 PUSH1 0x1 PUSH1 0xA0 SHL SUB DUP2 AND PUSH1 0x0 SWAP1 DUP2 MSTORE PUSH1 0x5 PUSH1 0x20 MSTORE PUSH1 0x40 SWAP1 KECCAK256 SLOAD PUSH2 0x1183 SWAP1 PUSH2 0xCA1 JUMP JUMPDEST PUSH1 0x1 PUSH1 0x1 PUSH1 0xA0 SHL SUB DUP3 AND PUSH1 0x0 SWAP1 DUP2 MSTORE PUSH1 0x6 PUSH1 0x20 MSTORE PUSH1 0x40 SWAP1 KECCAK256 SSTORE JUMPDEST PUSH1 0x1 PUSH1 0x1 PUSH1 0xA0 SHL SUB DUP2 AND PUSH1 0x0 DUP2 DUP2 MSTORE PUSH1 0x9 PUSH1 0x20 MSTORE PUSH1 0x40 DUP2 KECCAK256 DUP1 SLOAD PUSH1 0xFF NOT AND PUSH1 0x1 SWAP1 DUP2 OR SWAP1 SWAP2 SSTORE PUSH1 0xA DUP1 SLOAD SWAP2 DUP3 ADD DUP2 SSTORE SWAP1 SWAP2 MSTORE PUSH32 0xC65A7BB8D6351C1CF70C95A316CC6A92839C986682D98BC35F958F4883F9D2A8 ADD DUP1 SLOAD PUSH1 0x1 PUSH1 0x1 PUSH1 0xA0 SHL SUB NOT AND SWAP1 SWAP2 OR SWAP1 SSTORE JUMPDEST POP JUMP JUMPDEST PUSH1 0x1 PUSH1 0x1 PUSH1 0xA0 SHL SUB DUP2 AND PUSH1 0x0 SWAP1 DUP2 MSTORE PUSH1 0x9 PUSH1 0x20 MSTORE PUSH1 0x40 DUP2 KECCAK256 SLOAD PUSH1 0xFF AND ISZERO PUSH2 0x1243 JUMPI POP PUSH1 0x1 PUSH1 0x1 PUSH1 0xA0 SHL SUB AND PUSH1 0x0 SWAP1 DUP2 MSTORE PUSH1 0x6 PUSH1 0x20 MSTORE PUSH1 0x40 SWAP1 KECCAK256 SLOAD SWAP1 JUMP JUMPDEST PUSH1 0x1 PUSH1 0x1 PUSH1 0xA0 SHL SUB DUP3 AND PUSH1 0x0 SWAP1 DUP2 MSTORE PUSH1 0x5 PUSH1 0x20 MSTORE PUSH1 0x40 SWAP1 KECCAK256 SLOAD PUSH2 0xC32 SWAP1 PUSH2 0xCA1 JUMP JUMPDEST PUSH1 0x0 SLOAD PUSH1 0x1 PUSH1 0x1 PUSH1 0xA0 SHL SUB AND CALLER EQ PUSH2 0x128F JUMPI PUSH1 0x40 MLOAD PUSH3 0x461BCD PUSH1 0xE5 SHL DUP2 MSTORE PUSH1 0x4 ADD PUSH2 0xCF1 SWAP1 PUSH2 0x3396 JUMP JUMPDEST PUSH1 0x0 DUP1 SLOAD PUSH1 0x40 MLOAD PUSH1 0x1 PUSH1 0x1 PUSH1 0xA0 SHL SUB SWAP1 SWAP2 AND SWAP1 PUSH32 0x8BE0079C531659141344CD1FD0A4F28419497F9722A3DAAFE3B4186F6B6457E0 SWAP1 DUP4 SWAP1 LOG3 PUSH1 0x0 DUP1 SLOAD PUSH1 0x1 PUSH1 0x1 PUSH1 0xA0 SHL SUB NOT AND SWAP1 SSTORE JUMP JUMPDEST PUSH1 0x0 SLOAD PUSH1 0x1 PUSH1 0x1 PUSH1 0xA0 SHL SUB AND CALLER EQ PUSH2 0x1303 JUMPI PUSH1 0x40 MLOAD PUSH3 0x461BCD PUSH1 0xE5 SHL DUP2 MSTORE PUSH1 0x4 ADD PUSH2 0xCF1 SWAP1 PUSH2 0x3396 JUMP JUMPDEST PUSH1 0x10 SLOAD PUSH2 0x1314 SWAP1 PUSH1 0xFF AND PUSH1 0xA PUSH2 0x352D JUMP JUMPDEST PUSH2 0x131E SWAP1 DUP3 PUSH2 0x353C JUMP JUMPDEST PUSH1 0x13 SSTORE POP JUMP JUMPDEST PUSH1 0x0 SLOAD PUSH1 0x1 PUSH1 0x1 PUSH1 0xA0 SHL SUB AND CALLER EQ PUSH2 0x134E JUMPI PUSH1 0x40 MLOAD PUSH3 0x461BCD PUSH1 0xE5 SHL DUP2 MSTORE PUSH1 0x4 ADD PUSH2 0xCF1 SWAP1 PUSH2 0x3396 JUMP JUMPDEST PUSH1 0x1 PUSH1 0x1 PUSH1 0xA0 SHL SUB DUP2 AND PUSH2 0x1393 JUMPI PUSH1 0x40 MLOAD PUSH3 0x461BCD PUSH1 0xE5 SHL DUP2 MSTORE PUSH1 0x20 PUSH1 0x4 DUP3 ADD MSTORE PUSH1 0xC PUSH1 0x24 DUP3 ADD MSTORE PUSH12 0x5A45524F2041444452455353 PUSH1 0xA0 SHL PUSH1 0x44 DUP3 ADD MSTORE PUSH1 0x64 ADD PUSH2 0xCF1 JUMP JUMPDEST PUSH2 0x139C DUP2 PUSH2 0x10F9 JUMP JUMPDEST PUSH1 0x10 DUP1 SLOAD PUSH1 0x1 PUSH1 0x1 PUSH1 0xA0 SHL SUB SWAP1 SWAP3 AND PUSH1 0x1 PUSH1 0x58 SHL MUL PUSH32 0xFF0000000000000000000000000000000000000000FFFFFFFFFFFFFFFFFFFFFF SWAP1 SWAP3 AND SWAP2 SWAP1 SWAP2 OR SWAP1 SSTORE JUMP JUMPDEST PUSH1 0x60 PUSH1 0xF DUP1 SLOAD PUSH2 0xB9E SWAP1 PUSH2 0x335C JUMP JUMPDEST PUSH1 0x0 DUP1 SLOAD PUSH1 0x1 PUSH1 0x1 PUSH1 0xA0 SHL SUB AND CALLER EQ PUSH2 0x1417 JUMPI PUSH1 0x40 MLOAD PUSH3 0x461BCD PUSH1 0xE5 SHL DUP2 MSTORE PUSH1 0x4 ADD PUSH2 0xCF1 SWAP1 PUSH2 0x3396 JUMP JUMPDEST PUSH2 0x1015 CALLER DUP4 PUSH2 0x1F42 JUMP JUMPDEST PUSH1 0x0 PUSH2 0xC2E CALLER DUP5 PUSH2 0xC92 DUP6 PUSH1 0x40 MLOAD DUP1 PUSH1 0x60 ADD PUSH1 0x40 MSTORE DUP1 PUSH1 0x25 DUP2 MSTORE PUSH1 0x20 ADD PUSH2 0x3735 PUSH1 0x25 SWAP2 CODECOPY CALLER PUSH1 0x0 SWAP1 DUP2 MSTORE PUSH1 0x7 PUSH1 0x20 SWAP1 DUP2 MSTORE PUSH1 0x40 DUP1 DUP4 KECCAK256 PUSH1 0x1 PUSH1 0x1 PUSH1 0xA0 SHL SUB DUP14 AND DUP5 MSTORE SWAP1 SWAP2 MSTORE SWAP1 KECCAK256 SLOAD SWAP2 SWAP1 PUSH2 0x1D7A JUMP JUMPDEST PUSH1 0x0 PUSH2 0xC2E CALLER DUP5 DUP5 PUSH2 0x1B1C JUMP JUMPDEST PUSH1 0x60 PUSH1 0x2 DUP1 SLOAD PUSH2 0xB9E SWAP1 PUSH2 0x335C JUMP JUMPDEST PUSH1 0xF DUP1 SLOAD PUSH2 0x1499 SWAP1 PUSH2 0x335C JUMP JUMPDEST DUP1 PUSH1 0x1F ADD PUSH1 0x20 DUP1 SWAP2 DIV MUL PUSH1 0x20 ADD PUSH1 0x40 MLOAD SWAP1 DUP2 ADD PUSH1 0x40 MSTORE DUP1 SWAP3 SWAP2 SWAP1 DUP2 DUP2 MSTORE PUSH1 0x20 ADD DUP3 DUP1 SLOAD PUSH2 0x14C5 SWAP1 PUSH2 0x335C JUMP JUMPDEST DUP1 ISZERO PUSH2 0x1512 JUMPI DUP1 PUSH1 0x1F LT PUSH2 0x14E7 JUMPI PUSH2 0x100 DUP1 DUP4 SLOAD DIV MUL DUP4 MSTORE SWAP2 PUSH1 0x20 ADD SWAP2 PUSH2 0x1512 JUMP JUMPDEST DUP3 ADD SWAP2 SWAP1 PUSH1 0x0 MSTORE PUSH1 0x20 PUSH1 0x0 KECCAK256 SWAP1 JUMPDEST DUP2 SLOAD DUP2 MSTORE SWAP1 PUSH1 0x1 ADD SWAP1 PUSH1 0x20 ADD DUP1 DUP4 GT PUSH2 0x14F5 JUMPI DUP3 SWAP1 SUB PUSH1 0x1F AND DUP3 ADD SWAP2 JUMPDEST POP POP POP POP POP DUP2 JUMP JUMPDEST PUSH1 0x0 SLOAD PUSH1 0x1 PUSH1 0x1 PUSH1 0xA0 SHL SUB AND CALLER EQ PUSH2 0x1544 JUMPI PUSH1 0x40 MLOAD PUSH3 0x461BCD PUSH1 0xE5 SHL DUP2 MSTORE PUSH1 0x4 ADD PUSH2 0xCF1 SWAP1 PUSH2 0x3396 JUMP JUMPDEST ADDRESS PUSH1 0x1 PUSH1 0x1 PUSH1 0xA0 SHL SUB DUP4 AND SUB PUSH2 0x158C JUMPI PUSH1 0x40 MLOAD PUSH3 0x461BCD PUSH1 0xE5 SHL DUP2 MSTORE PUSH1 0x20 PUSH1 0x4 DUP3 ADD MSTORE PUSH1 0xD PUSH1 0x24 DUP3 ADD MSTORE PUSH13 0x53656C66207769746864726177 PUSH1 0x98 SHL PUSH1 0x44 DUP3 ADD MSTORE PUSH1 0x64 ADD PUSH2 0xCF1 JUMP JUMPDEST DUP2 PUSH1 0x1 PUSH1 0x1 PUSH1 0xA0 SHL SUB AND PUSH4 0xA9059CBB PUSH2 0x15AD PUSH1 0x0 SLOAD PUSH1 0x1 PUSH1 0x1 PUSH1 0xA0 SHL SUB AND SWAP1 JUMP JUMPDEST PUSH1 0x40 MLOAD PUSH1 0x1 PUSH1 0x1 PUSH1 0xE0 SHL SUB NOT PUSH1 0xE0 DUP5 SWAP1 SHL AND DUP2 MSTORE PUSH1 0x1 PUSH1 0x1 PUSH1 0xA0 SHL SUB SWAP1 SWAP2 AND PUSH1 0x4 DUP3 ADD MSTORE PUSH1 0x24 DUP2 ADD DUP5 SWAP1 MSTORE PUSH1 0x44 ADD PUSH1 0x20 PUSH1 0x40 MLOAD DUP1 DUP4 SUB DUP2 PUSH1 0x0 DUP8 GAS CALL ISZERO DUP1 ISZERO PUSH2 0x15FA JUMPI RETURNDATASIZE PUSH1 0x0 DUP1 RETURNDATACOPY RETURNDATASIZE PUSH1 0x0 REVERT JUMPDEST POP POP POP POP PUSH1 0x40 MLOAD RETURNDATASIZE PUSH1 0x1F NOT PUSH1 0x1F DUP3 ADD AND DUP3 ADD DUP1 PUSH1 0x40 MSTORE POP DUP2 ADD SWAP1 PUSH2 0x161E SWAP2 SWAP1 PUSH2 0x3553 JUMP JUMPDEST POP POP POP JUMP JUMPDEST PUSH1 0x0 SLOAD PUSH1 0x1 PUSH1 0x1 PUSH1 0xA0 SHL SUB AND CALLER EQ PUSH2 0x164D JUMPI PUSH1 0x40 MLOAD PUSH3 0x461BCD PUSH1 0xE5 SHL DUP2 MSTORE PUSH1 0x4 ADD PUSH2 0xCF1 SWAP1 PUSH2 0x3396 JUMP JUMPDEST PUSH1 0x11 DUP1 SLOAD PUSH1 0xFF NOT AND DUP3 ISZERO ISZERO SWAP1 DUP2 OR SWAP1 SWAP2 SSTORE PUSH1 0x40 MLOAD SWAP1 DUP2 MSTORE PUSH32 0x53726DFCAF90650AA7EB35524F4D3220F07413C8D6CB404CC8C18BF5591BC159 SWAP1 PUSH1 0x20 ADD PUSH1 0x40 MLOAD DUP1 SWAP2 SUB SWAP1 LOG1 POP JUMP JUMPDEST PUSH1 0xE DUP1 SLOAD PUSH2 0x1499 SWAP1 PUSH2 0x335C JUMP JUMPDEST PUSH1 0x0 SLOAD PUSH1 0x1 PUSH1 0x1 PUSH1 0xA0 SHL SUB AND CALLER EQ PUSH2 0x16CB JUMPI PUSH1 0x40 MLOAD PUSH3 0x461BCD PUSH1 0xE5 SHL DUP2 MSTORE PUSH1 0x4 ADD PUSH2 0xCF1 SWAP1 PUSH2 0x3396 JUMP JUMPDEST PUSH1 0x1 PUSH1 0x1 PUSH1 0xA0 SHL SUB AND PUSH1 0x0 SWAP1 DUP2 MSTORE PUSH1 0x8 PUSH1 0x20 MSTORE PUSH1 0x40 SWAP1 KECCAK256 DUP1 SLOAD PUSH1 0xFF NOT AND SWAP1 SSTORE JUMP JUMPDEST PUSH1 0x0 SLOAD PUSH1 0x1 PUSH1 0x1 PUSH1 0xA0 SHL SUB AND CALLER EQ PUSH2 0x1716 JUMPI PUSH1 0x40 MLOAD PUSH3 0x461BCD PUSH1 0xE5 SHL DUP2 MSTORE PUSH1 0x4 ADD PUSH2 0xCF1 SWAP1 PUSH2 0x3396 JUMP JUMPDEST PUSH1 0x1 PUSH1 0x1 PUSH1 0xA0 SHL SUB DUP2 AND PUSH2 0x1780 JUMPI PUSH1 0x40 MLOAD PUSH3 0x461BCD PUSH1 0xE5 SHL DUP2 MSTORE PUSH1 0x20 PUSH1 0x4 DUP3 ADD MSTORE PUSH1 0x2B PUSH1 0x24 DUP3 ADD MSTORE PUSH32 0x45524332304F776E61626C653A206E6577206F776E657220697320746865207A PUSH1 0x44 DUP3 ADD MSTORE PUSH11 0x65726F2061646472657373 PUSH1 0xA8 SHL PUSH1 0x64 DUP3 ADD MSTORE PUSH1 0x84 ADD PUSH2 0xCF1 JUMP JUMPDEST PUSH1 0x0 DUP1 SLOAD PUSH1 0x40 MLOAD PUSH1 0x1 PUSH1 0x1 PUSH1 0xA0 SHL SUB DUP1 DUP6 AND SWAP4 SWAP3 AND SWAP2 PUSH32 0x8BE0079C531659141344CD1FD0A4F28419497F9722A3DAAFE3B4186F6B6457E0 SWAP2 LOG3 PUSH1 0x0 DUP1 SLOAD PUSH1 0x1 PUSH1 0x1 PUSH1 0xA0 SHL SUB NOT AND PUSH1 0x1 PUSH1 0x1 PUSH1 0xA0 SHL SUB SWAP3 SWAP1 SWAP3 AND SWAP2 SWAP1 SWAP2 OR SWAP1 SSTORE JUMP JUMPDEST PUSH1 0x0 SLOAD PUSH1 0x1 PUSH1 0x1 PUSH1 0xA0 SHL SUB AND CALLER EQ PUSH2 0x1805 JUMPI PUSH1 0x40 MLOAD PUSH3 0x461BCD PUSH1 0xE5 SHL DUP2 MSTORE PUSH1 0x4 ADD PUSH2 0xCF1 SWAP1 PUSH2 0x3396 JUMP JUMPDEST PUSH1 0x4 SLOAD PUSH1 0xFF PUSH1 0x1 PUSH1 0xA8 SHL SWAP1 SWAP2 DIV DUP2 AND SWAP1 DUP7 AND GT ISZERO PUSH2 0x1850 JUMPI PUSH1 0x40 MLOAD PUSH3 0x461BCD PUSH1 0xE5 SHL DUP2 MSTORE PUSH1 0x20 PUSH1 0x4 DUP3 ADD MSTORE PUSH1 0x8 PUSH1 0x24 DUP3 ADD MSTORE PUSH8 0x2A231032B93937B9 PUSH1 0xC1 SHL PUSH1 0x44 DUP3 ADD MSTORE PUSH1 0x64 ADD PUSH2 0xCF1 JUMP JUMPDEST PUSH1 0x4 SLOAD PUSH1 0xFF PUSH1 0x1 PUSH1 0xA0 SHL SWAP1 SWAP2 DIV DUP2 AND SWAP1 DUP6 AND GT ISZERO PUSH2 0x189B JUMPI PUSH1 0x40 MLOAD PUSH3 0x461BCD PUSH1 0xE5 SHL DUP2 MSTORE PUSH1 0x20 PUSH1 0x4 DUP3 ADD MSTORE PUSH1 0x8 PUSH1 0x24 DUP3 ADD MSTORE PUSH8 0x26231032B93937B9 PUSH1 0xC1 SHL PUSH1 0x44 DUP3 ADD MSTORE PUSH1 0x64 ADD PUSH2 0xCF1 JUMP JUMPDEST PUSH1 0x4 SLOAD PUSH1 0xFF PUSH1 0x1 PUSH1 0xB0 SHL SWAP1 SWAP2 DIV DUP2 AND SWAP1 DUP5 AND GT ISZERO PUSH2 0x18E6 JUMPI PUSH1 0x40 MLOAD PUSH3 0x461BCD PUSH1 0xE5 SHL DUP2 MSTORE PUSH1 0x20 PUSH1 0x4 DUP3 ADD MSTORE PUSH1 0x8 PUSH1 0x24 DUP3 ADD MSTORE PUSH8 0x21231032B93937B9 PUSH1 0xC1 SHL PUSH1 0x44 DUP3 ADD MSTORE PUSH1 0x64 ADD PUSH2 0xCF1 JUMP JUMPDEST PUSH1 0x4 SLOAD PUSH1 0xFF PUSH1 0x1 PUSH1 0xB8 SHL SWAP1 SWAP2 DIV DUP2 AND SWAP1 DUP4 AND GT ISZERO PUSH2 0x1931 JUMPI PUSH1 0x40 MLOAD PUSH3 0x461BCD PUSH1 0xE5 SHL DUP2 MSTORE PUSH1 0x20 PUSH1 0x4 DUP3 ADD MSTORE PUSH1 0x8 PUSH1 0x24 DUP3 ADD MSTORE PUSH8 0x2BA31032B93937B9 PUSH1 0xC1 SHL PUSH1 0x44 DUP3 ADD MSTORE PUSH1 0x64 ADD PUSH2 0xCF1 JUMP JUMPDEST PUSH1 0x4 SLOAD PUSH1 0xFF PUSH1 0x1 PUSH1 0xC0 SHL SWAP1 SWAP2 DIV DUP2 AND SWAP1 DUP3 AND GT ISZERO PUSH2 0x197D JUMPI PUSH1 0x40 MLOAD PUSH3 0x461BCD PUSH1 0xE5 SHL DUP2 MSTORE PUSH1 0x20 PUSH1 0x4 DUP3 ADD MSTORE PUSH1 0x9 PUSH1 0x24 DUP3 ADD MSTORE PUSH9 0x2121231032B93937B9 PUSH1 0xB9 SHL PUSH1 0x44 DUP3 ADD MSTORE PUSH1 0x64 ADD PUSH2 0xCF1 JUMP JUMPDEST PUSH1 0x10 DUP1 SLOAD PUSH4 0xFF00FF00 NOT AND PUSH2 0x100 PUSH1 0xFF SWAP8 DUP9 AND MUL PUSH4 0xFF000000 NOT AND OR PUSH4 0x1000000 SWAP6 DUP8 AND SWAP6 SWAP1 SWAP6 MUL SWAP5 SWAP1 SWAP5 OR PUSH10 0xFF000000FF0000000000 NOT AND PUSH1 0x1 PUSH1 0x28 SHL SWAP4 DUP7 AND SWAP4 SWAP1 SWAP4 MUL PUSH1 0xFF PUSH1 0x48 SHL NOT AND SWAP3 SWAP1 SWAP3 OR PUSH1 0x1 PUSH1 0x48 SHL SWAP3 DUP6 AND SWAP3 SWAP1 SWAP3 MUL SWAP2 SWAP1 SWAP2 OR PUSH1 0xFF PUSH1 0x38 SHL NOT AND PUSH1 0x1 PUSH1 0x38 SHL SWAP2 SWAP1 SWAP4 AND MUL SWAP2 SWAP1 SWAP2 OR SWAP1 SSTORE JUMP JUMPDEST PUSH1 0x0 PUSH2 0xD10 DUP3 DUP5 PUSH2 0x353C JUMP JUMPDEST PUSH1 0x0 PUSH2 0xD10 DUP3 DUP5 PUSH2 0x3570 JUMP JUMPDEST PUSH1 0x1 PUSH1 0x1 PUSH1 0xA0 SHL SUB DUP4 AND PUSH2 0x1A64 JUMPI PUSH1 0x40 MLOAD PUSH3 0x461BCD PUSH1 0xE5 SHL DUP2 MSTORE PUSH1 0x20 PUSH1 0x4 DUP3 ADD DUP2 SWAP1 MSTORE PUSH1 0x24 DUP3 ADD MSTORE PUSH32 0x45524332303A20617070726F76652066726F6D207A65726F2061646472657373 PUSH1 0x44 DUP3 ADD MSTORE PUSH1 0x64 ADD PUSH2 0xCF1 JUMP JUMPDEST PUSH1 0x1 PUSH1 0x1 PUSH1 0xA0 SHL SUB DUP3 AND PUSH2 0x1ABA JUMPI PUSH1 0x40 MLOAD PUSH3 0x461BCD PUSH1 0xE5 SHL DUP2 MSTORE PUSH1 0x20 PUSH1 0x4 DUP3 ADD MSTORE PUSH1 0x1E PUSH1 0x24 DUP3 ADD MSTORE PUSH32 0x45524332303A20617070726F766520746F207A65726F20616464726573730000 PUSH1 0x44 DUP3 ADD MSTORE PUSH1 0x64 ADD PUSH2 0xCF1 JUMP JUMPDEST PUSH1 0x1 PUSH1 0x1 PUSH1 0xA0 SHL SUB DUP4 DUP2 AND PUSH1 0x0 DUP2 DUP2 MSTORE PUSH1 0x7 PUSH1 0x20 SWAP1 DUP2 MSTORE PUSH1 0x40 DUP1 DUP4 KECCAK256 SWAP5 DUP8 AND DUP1 DUP5 MSTORE SWAP5 DUP3 MSTORE SWAP2 DUP3 SWAP1 KECCAK256 DUP6 SWAP1 SSTORE SWAP1 MLOAD DUP5 DUP2 MSTORE PUSH32 0x8C5BE1E5EBEC7D5BD14F71427D1E84F3DD0314C0F7B2291E5B200AC8C7C3B925 SWAP2 ADD JUMPDEST PUSH1 0x40 MLOAD DUP1 SWAP2 SUB SWAP1 LOG3 POP POP POP JUMP JUMPDEST PUSH1 0x1 PUSH1 0x1 PUSH1 0xA0 SHL SUB DUP4 AND PUSH2 0x1B7C JUMPI PUSH1 0x40 MLOAD PUSH3 0x461BCD PUSH1 0xE5 SHL DUP2 MSTORE PUSH1 0x20 PUSH1 0x4 DUP3 ADD MSTORE PUSH1 0x21 PUSH1 0x24 DUP3 ADD MSTORE PUSH32 0x45524332303A207472616E736665722066726F6D207A65726F20616464726573 PUSH1 0x44 DUP3 ADD MSTORE PUSH1 0x73 PUSH1 0xF8 SHL PUSH1 0x64 DUP3 ADD MSTORE PUSH1 0x84 ADD PUSH2 0xCF1 JUMP JUMPDEST PUSH1 0x1 PUSH1 0x1 PUSH1 0xA0 SHL SUB DUP3 AND PUSH2 0x1BD2 JUMPI PUSH1 0x40 MLOAD PUSH3 0x461BCD PUSH1 0xE5 SHL DUP2 MSTORE PUSH1 0x20 PUSH1 0x4 DUP3 ADD MSTORE PUSH1 0x1F PUSH1 0x24 DUP3 ADD MSTORE PUSH32 0x45524332303A207472616E7366657220746F207A65726F206164647265737300 PUSH1 0x44 DUP3 ADD MSTORE PUSH1 0x64 ADD PUSH2 0xCF1 JUMP JUMPDEST PUSH1 0x0 DUP2 GT PUSH2 0x1C34 JUMPI PUSH1 0x40 MLOAD PUSH3 0x461BCD PUSH1 0xE5 SHL DUP2 MSTORE PUSH1 0x20 PUSH1 0x4 DUP3 ADD MSTORE PUSH1 0x29 PUSH1 0x24 DUP3 ADD MSTORE PUSH32 0x5472616E7366657220616D6F756E74206D757374206265206772656174657220 PUSH1 0x44 DUP3 ADD MSTORE PUSH9 0x7468616E207A65726F PUSH1 0xB8 SHL PUSH1 0x64 DUP3 ADD MSTORE PUSH1 0x84 ADD PUSH2 0xCF1 JUMP JUMPDEST PUSH1 0x0 PUSH2 0x1C3F ADDRESS PUSH2 0x1206 JUMP JUMPDEST PUSH1 0x10 SLOAD SWAP1 SWAP2 POP PUSH1 0x1 PUSH1 0xF8 SHL SWAP1 DIV PUSH1 0xFF AND ISZERO DUP1 ISZERO PUSH2 0x1C8D JUMPI POP PUSH32 0x0 PUSH1 0x1 PUSH1 0x1 PUSH1 0xA0 SHL SUB AND DUP4 PUSH1 0x1 PUSH1 0x1 PUSH1 0xA0 SHL SUB AND EQ JUMPDEST DUP1 ISZERO PUSH2 0x1C9B JUMPI POP PUSH1 0x11 SLOAD PUSH1 0xFF AND JUMPDEST ISZERO PUSH2 0x1D1C JUMPI PUSH1 0x12 SLOAD DUP2 LT PUSH2 0x1CB6 JUMPI POP PUSH1 0x12 SLOAD PUSH2 0x1CB6 DUP2 PUSH2 0x202B JUMP JUMPDEST PUSH1 0x10 SLOAD PUSH1 0x1 PUSH1 0x48 SHL SWAP1 DIV PUSH1 0xFF AND ISZERO PUSH2 0x1D1C JUMPI PUSH1 0x10 SLOAD SELFBALANCE SWAP1 PUSH2 0x1CDB SWAP1 PUSH1 0xFF AND PUSH1 0xA PUSH2 0x352D JUMP JUMPDEST PUSH2 0x1CE6 SWAP1 PUSH1 0x1 PUSH2 0x353C JUMP JUMPDEST DUP2 GT ISZERO PUSH2 0x1D1A JUMPI PUSH1 0x13 SLOAD DUP2 GT ISZERO PUSH2 0x1CFC JUMPI POP PUSH1 0x13 SLOAD JUMPDEST PUSH2 0x1D1A PUSH2 0x1D15 PUSH1 0x64 PUSH2 0x1D0F DUP5 PUSH1 0x32 PUSH2 0x19F6 JUMP JUMPDEST SWAP1 PUSH2 0x1A02 JUMP JUMPDEST PUSH2 0x2250 JUMP JUMPDEST POP JUMPDEST PUSH1 0x1 PUSH1 0x1 PUSH1 0xA0 SHL SUB DUP5 AND PUSH1 0x0 SWAP1 DUP2 MSTORE PUSH1 0x8 PUSH1 0x20 MSTORE PUSH1 0x40 SWAP1 KECCAK256 SLOAD PUSH1 0x1 SWAP1 PUSH1 0xFF AND DUP1 PUSH2 0x1D5E JUMPI POP PUSH1 0x1 PUSH1 0x1 PUSH1 0xA0 SHL SUB DUP5 AND PUSH1 0x0 SWAP1 DUP2 MSTORE PUSH1 0x8 PUSH1 0x20 MSTORE PUSH1 0x40 SWAP1 KECCAK256 SLOAD PUSH1 0xFF AND JUMPDEST ISZERO PUSH2 0x1D67 JUMPI POP PUSH1 0x0 JUMPDEST PUSH2 0x1D73 DUP6 DUP6 DUP6 DUP5 PUSH2 0x2286 JUMP JUMPDEST POP POP POP POP POP JUMP JUMPDEST PUSH1 0x0 DUP2 DUP5 DUP5 GT ISZERO PUSH2 0x1D9E JUMPI PUSH1 0x40 MLOAD PUSH3 0x461BCD PUSH1 0xE5 SHL DUP2 MSTORE PUSH1 0x4 ADD PUSH2 0xCF1 SWAP2 SWAP1 PUSH2 0x3157 JUMP JUMPDEST POP POP POP SWAP1 SUB SWAP1 JUMP JUMPDEST PUSH1 0x0 DUP1 PUSH1 0x0 PUSH2 0x1DB3 PUSH2 0x24A7 JUMP JUMPDEST SWAP1 SWAP3 POP SWAP1 POP PUSH2 0x1DC2 DUP3 DUP3 PUSH2 0x1A02 JUMP JUMPDEST SWAP3 POP POP POP SWAP1 JUMP JUMPDEST PUSH1 0x0 PUSH2 0xD10 DUP3 DUP5 PUSH2 0x3592 JUMP JUMPDEST PUSH1 0x0 DUP1 PUSH1 0x0 DUP1 PUSH1 0x0 DUP1 PUSH1 0x0 DUP1 PUSH1 0x0 PUSH2 0x1DEC DUP11 PUSH2 0x2629 JUMP JUMPDEST SWAP3 POP SWAP3 POP SWAP3 POP PUSH1 0x0 DUP1 PUSH1 0x0 PUSH2 0x1E0A DUP14 DUP7 DUP7 PUSH2 0x1E05 PUSH2 0x1DA6 JUMP JUMPDEST PUSH2 0x266B JUMP JUMPDEST SWAP2 SWAP16 SWAP1 SWAP15 POP SWAP1 SWAP13 POP SWAP6 SWAP11 POP SWAP4 SWAP9 POP SWAP2 SWAP7 POP SWAP3 SWAP5 POP POP POP POP POP JUMP JUMPDEST PUSH1 0x0 PUSH2 0xD10 DUP3 DUP5 PUSH2 0x3407 JUMP JUMPDEST PUSH1 0x1 PUSH1 0x1 PUSH1 0xA0 SHL SUB DUP3 AND PUSH2 0x1E90 JUMPI PUSH1 0x40 MLOAD PUSH3 0x461BCD PUSH1 0xE5 SHL DUP2 MSTORE PUSH1 0x20 PUSH1 0x4 DUP3 ADD MSTORE PUSH1 0x21 PUSH1 0x24 DUP3 ADD MSTORE PUSH32 0x42455032303A206275726E2066726F6D20746865207A65726F20616464726573 PUSH1 0x44 DUP3 ADD MSTORE PUSH1 0x73 PUSH1 0xF8 SHL PUSH1 0x64 DUP3 ADD MSTORE PUSH1 0x84 ADD PUSH2 0xCF1 JUMP JUMPDEST PUSH1 0x10 SLOAD PUSH1 0x0 SWAP1 PUSH2 0x1EA4 SWAP1 PUSH1 0xFF AND PUSH1 0xA PUSH2 0x35A5 JUMP JUMPDEST PUSH2 0x1EAE SWAP1 DUP4 PUSH2 0x353C JUMP JUMPDEST SWAP1 POP PUSH2 0x1EED DUP2 PUSH1 0x40 MLOAD DUP1 PUSH1 0x60 ADD PUSH1 0x40 MSTORE DUP1 PUSH1 0x22 DUP2 MSTORE PUSH1 0x20 ADD PUSH2 0x3713 PUSH1 0x22 SWAP2 CODECOPY PUSH1 0x1 PUSH1 0x1 PUSH1 0xA0 SHL SUB DUP7 AND PUSH1 0x0 SWAP1 DUP2 MSTORE PUSH1 0x6 PUSH1 0x20 MSTORE PUSH1 0x40 SWAP1 KECCAK256 SLOAD SWAP2 SWAP1 PUSH2 0x1D7A JUMP JUMPDEST PUSH1 0x1 PUSH1 0x1 PUSH1 0xA0 SHL SUB DUP5 AND PUSH1 0x0 SWAP1 DUP2 MSTORE PUSH1 0x6 PUSH1 0x20 MSTORE PUSH1 0x40 SWAP1 KECCAK256 SSTORE PUSH1 0xB SLOAD PUSH2 0x1F13 SWAP1 DUP3 PUSH2 0x1E24 JUMP JUMPDEST PUSH1 0xB SSTORE PUSH1 0x40 MLOAD DUP2 DUP2 MSTORE PUSH1 0x0 SWAP1 PUSH1 0x1 PUSH1 0x1 PUSH1 0xA0 SHL SUB DUP6 AND SWAP1 PUSH1 0x0 DUP1 MLOAD PUSH1 0x20 PUSH2 0x36F3 DUP4 CODECOPY DUP2 MLOAD SWAP2 MSTORE SWAP1 PUSH1 0x20 ADD PUSH2 0x1B0F JUMP JUMPDEST PUSH1 0x1 PUSH1 0x1 PUSH1 0xA0 SHL SUB DUP3 AND PUSH2 0x1F98 JUMPI PUSH1 0x40 MLOAD PUSH3 0x461BCD PUSH1 0xE5 SHL DUP2 MSTORE PUSH1 0x20 PUSH1 0x4 DUP3 ADD MSTORE PUSH1 0x1F PUSH1 0x24 DUP3 ADD MSTORE PUSH32 0x42455032303A206D696E7420746F20746865207A65726F206164647265737300 PUSH1 0x44 DUP3 ADD MSTORE PUSH1 0x64 ADD PUSH2 0xCF1 JUMP JUMPDEST PUSH1 0x10 SLOAD PUSH1 0x0 SWAP1 PUSH2 0x1FAC SWAP1 PUSH1 0xFF AND PUSH1 0xA PUSH2 0x35A5 JUMP JUMPDEST PUSH2 0x1FB6 SWAP1 DUP4 PUSH2 0x353C JUMP JUMPDEST PUSH1 0xB SLOAD SWAP1 SWAP2 POP PUSH2 0x1FC6 SWAP1 DUP3 PUSH2 0x1DC9 JUMP JUMPDEST PUSH1 0xB SSTORE PUSH1 0x1 PUSH1 0x1 PUSH1 0xA0 SHL SUB DUP4 AND PUSH1 0x0 SWAP1 DUP2 MSTORE PUSH1 0x6 PUSH1 0x20 MSTORE PUSH1 0x40 SWAP1 KECCAK256 SLOAD PUSH2 0x1FEC SWAP1 DUP3 PUSH2 0x1DC9 JUMP JUMPDEST PUSH1 0x1 PUSH1 0x1 PUSH1 0xA0 SHL SUB DUP5 AND PUSH1 0x0 DUP2 DUP2 MSTORE PUSH1 0x6 PUSH1 0x20 MSTORE PUSH1 0x40 DUP1 DUP3 KECCAK256 SWAP4 SWAP1 SWAP4 SSTORE SWAP2 MLOAD SWAP1 SWAP2 SWAP1 PUSH1 0x0 DUP1 MLOAD PUSH1 0x20 PUSH2 0x36F3 DUP4 CODECOPY DUP2 MLOAD SWAP2 MSTORE SWAP1 PUSH2 0x1B0F SWAP1 DUP6 DUP2 MSTORE PUSH1 0x20 ADD SWAP1 JUMP JUMPDEST PUSH1 0x10 DUP1 SLOAD PUSH1 0x1 PUSH1 0x1 PUSH1 0xF8 SHL SUB AND PUSH1 0x1 PUSH1 0xF8 SHL OR SWAP1 DUP2 SWAP1 SSTORE PUSH1 0x0 SWAP1 PUSH1 0x1 PUSH1 0x48 SHL DUP2 DIV PUSH1 0xFF SWAP1 DUP2 AND SWAP2 PUSH4 0x1000000 DUP2 DIV DUP3 AND SWAP2 PUSH2 0x2078 SWAP2 PUSH1 0x1 PUSH1 0x38 SHL DUP2 DIV DUP3 AND SWAP2 PUSH1 0x1 PUSH1 0x28 SHL SWAP1 SWAP2 DIV AND PUSH2 0x35B1 JUMP JUMPDEST PUSH2 0x2082 SWAP2 SWAP1 PUSH2 0x35B1 JUMP JUMPDEST PUSH2 0x208C SWAP2 SWAP1 PUSH2 0x35B1 JUMP JUMPDEST PUSH1 0x10 SLOAD SWAP1 SWAP2 POP PUSH1 0x0 SWAP1 DUP2 SWAP1 PUSH1 0x1 PUSH1 0x28 SHL SWAP1 DIV PUSH1 0xFF AND ISZERO PUSH2 0x20EB JUMPI PUSH1 0x10 SLOAD PUSH2 0x20CD SWAP1 PUSH1 0xFF PUSH1 0x1 PUSH1 0x28 SHL SWAP1 SWAP2 DIV DUP2 AND SWAP1 PUSH2 0x20C7 SWAP1 DUP8 SWAP1 DUP8 AND PUSH2 0x1A02 JUMP JUMPDEST SWAP1 PUSH2 0x19F6 JUMP JUMPDEST PUSH1 0x3 SLOAD SWAP1 SWAP3 POP PUSH2 0x20E8 SWAP1 ADDRESS SWAP1 PUSH1 0x1 PUSH1 0x1 PUSH1 0xA0 SHL SUB AND DUP5 PUSH2 0x26BB JUMP JUMPDEST POP DUP1 JUMPDEST PUSH1 0x10 SLOAD PUSH1 0x1 PUSH1 0x38 SHL SWAP1 DIV PUSH1 0xFF AND ISZERO PUSH2 0x214D JUMPI PUSH1 0x10 SLOAD PUSH2 0x211E SWAP1 PUSH1 0xFF PUSH1 0x1 PUSH1 0x38 SHL SWAP1 SWAP2 DIV DUP2 AND SWAP1 PUSH2 0x20C7 SWAP1 DUP8 SWAP1 DUP8 AND PUSH2 0x1A02 JUMP JUMPDEST SWAP2 POP PUSH2 0x2140 ADDRESS PUSH1 0x10 PUSH1 0xB SWAP1 SLOAD SWAP1 PUSH2 0x100 EXP SWAP1 DIV PUSH1 0x1 PUSH1 0x1 PUSH1 0xA0 SHL SUB AND DUP5 PUSH2 0x26BB JUMP JUMPDEST PUSH2 0x214A DUP3 DUP3 PUSH2 0x3592 JUMP JUMPDEST SWAP1 POP JUMPDEST PUSH1 0x10 SLOAD PUSH1 0x1 PUSH1 0x48 SHL SWAP1 DIV PUSH1 0xFF AND ISZERO PUSH2 0x2198 JUMPI PUSH1 0x10 SLOAD PUSH2 0x2180 SWAP1 PUSH1 0xFF PUSH1 0x1 PUSH1 0x48 SHL SWAP1 SWAP2 DIV DUP2 AND SWAP1 PUSH2 0x20C7 SWAP1 DUP8 SWAP1 DUP8 AND PUSH2 0x1A02 JUMP JUMPDEST SWAP2 POP PUSH2 0x218B DUP3 PUSH2 0x280F JUMP JUMPDEST PUSH2 0x2195 DUP3 DUP3 PUSH2 0x3592 JUMP JUMPDEST SWAP1 POP JUMPDEST PUSH1 0x10 SLOAD PUSH4 0x1000000 SWAP1 DIV PUSH1 0xFF AND ISZERO PUSH2 0x223B JUMPI PUSH2 0x21B4 DUP5 DUP3 PUSH2 0x1E24 JUMP JUMPDEST SWAP4 POP PUSH1 0x0 PUSH2 0x21C3 DUP6 PUSH1 0x2 PUSH2 0x1A02 JUMP JUMPDEST SWAP1 POP PUSH1 0x0 PUSH2 0x21D1 DUP7 DUP4 PUSH2 0x1E24 JUMP JUMPDEST SWAP1 POP SELFBALANCE PUSH2 0x21DD DUP4 PUSH2 0x280F JUMP JUMPDEST PUSH1 0x0 PUSH2 0x21E9 SELFBALANCE DUP4 PUSH2 0x1E24 JUMP JUMPDEST SWAP1 POP PUSH2 0x21F5 DUP4 DUP3 PUSH2 0x29DA JUMP JUMPDEST PUSH1 0x40 DUP1 MLOAD DUP6 DUP2 MSTORE PUSH1 0x20 DUP2 ADD DUP4 SWAP1 MSTORE SWAP1 DUP2 ADD DUP5 SWAP1 MSTORE PUSH32 0x17BBFB9A6069321B6DED73BD96327C9E6B7212A5CD51FF219CD61370ACAFB561 SWAP1 PUSH1 0x60 ADD PUSH1 0x40 MLOAD DUP1 SWAP2 SUB SWAP1 LOG1 POP POP POP POP JUMPDEST POP POP PUSH1 0x10 DUP1 SLOAD PUSH1 0x1 PUSH1 0x1 PUSH1 0xF8 SHL SUB AND SWAP1 SSTORE POP POP JUMP JUMPDEST PUSH1 0x10 DUP1 SLOAD PUSH1 0x1 PUSH1 0x1 PUSH1 0xF8 SHL SUB AND PUSH1 0x1 PUSH1 0xF8 SHL OR SWAP1 SSTORE DUP1 ISZERO PUSH2 0x2274 JUMPI PUSH2 0x2274 DUP2 PUSH2 0x2AE4 JUMP JUMPDEST POP PUSH1 0x10 DUP1 SLOAD PUSH1 0x1 PUSH1 0x1 PUSH1 0xF8 SHL SUB AND SWAP1 SSTORE JUMP JUMPDEST DUP1 PUSH2 0x2293 JUMPI PUSH2 0x2293 PUSH2 0x2C7A JUMP JUMPDEST PUSH1 0x1 PUSH1 0x1 PUSH1 0xA0 SHL SUB DUP5 AND PUSH1 0x0 SWAP1 DUP2 MSTORE PUSH1 0x9 PUSH1 0x20 MSTORE PUSH1 0x40 SWAP1 KECCAK256 SLOAD PUSH1 0xFF AND DUP1 ISZERO PUSH2 0x22D4 JUMPI POP PUSH1 0x1 PUSH1 0x1 PUSH1 0xA0 SHL SUB DUP4 AND PUSH1 0x0 SWAP1 DUP2 MSTORE PUSH1 0x9 PUSH1 0x20 MSTORE PUSH1 0x40 SWAP1 KECCAK256 SLOAD PUSH1 0xFF AND ISZERO JUMPDEST ISZERO PUSH2 0x22E9 JUMPI PUSH2 0x22E4 DUP5 DUP5 DUP5 PUSH2 0x2DB6 JUMP JUMPDEST PUSH2 0x23E7 JUMP JUMPDEST PUSH1 0x1 PUSH1 0x1 PUSH1 0xA0 SHL SUB DUP5 AND PUSH1 0x0 SWAP1 DUP2 MSTORE PUSH1 0x9 PUSH1 0x20 MSTORE PUSH1 0x40 SWAP1 KECCAK256 SLOAD PUSH1 0xFF AND ISZERO DUP1 ISZERO PUSH2 0x232A JUMPI POP PUSH1 0x1 PUSH1 0x1 PUSH1 0xA0 SHL SUB DUP4 AND PUSH1 0x0 SWAP1 DUP2 MSTORE PUSH1 0x9 PUSH1 0x20 MSTORE PUSH1 0x40 SWAP1 KECCAK256 SLOAD PUSH1 0xFF AND JUMPDEST ISZERO PUSH2 0x233A JUMPI PUSH2 0x22E4 DUP5 DUP5 DUP5 PUSH2 0x2ECA JUMP JUMPDEST PUSH1 0x1 PUSH1 0x1 PUSH1 0xA0 SHL SUB DUP5 AND PUSH1 0x0 SWAP1 DUP2 MSTORE PUSH1 0x9 PUSH1 0x20 MSTORE PUSH1 0x40 SWAP1 KECCAK256 SLOAD PUSH1 0xFF AND ISZERO DUP1 ISZERO PUSH2 0x237C JUMPI POP PUSH1 0x1 PUSH1 0x1 PUSH1 0xA0 SHL SUB DUP4 AND PUSH1 0x0 SWAP1 DUP2 MSTORE PUSH1 0x9 PUSH1 0x20 MSTORE PUSH1 0x40 SWAP1 KECCAK256 SLOAD PUSH1 0xFF AND ISZERO JUMPDEST ISZERO PUSH2 0x238C JUMPI PUSH2 0x22E4 DUP5 DUP5 DUP5 PUSH2 0x2F73 JUMP JUMPDEST PUSH1 0x1 PUSH1 0x1 PUSH1 0xA0 SHL SUB DUP5 AND PUSH1 0x0 SWAP1 DUP2 MSTORE PUSH1 0x9 PUSH1 0x20 MSTORE PUSH1 0x40 SWAP1 KECCAK256 SLOAD PUSH1 0xFF AND DUP1 ISZERO PUSH2 0x23CC JUMPI POP PUSH1 0x1 PUSH1 0x1 PUSH1 0xA0 SHL SUB DUP4 AND PUSH1 0x0 SWAP1 DUP2 MSTORE PUSH1 0x9 PUSH1 0x20 MSTORE PUSH1 0x40 SWAP1 KECCAK256 SLOAD PUSH1 0xFF AND JUMPDEST ISZERO PUSH2 0x23DC JUMPI PUSH2 0x22E4 DUP5 DUP5 DUP5 PUSH2 0x2FB7 JUMP JUMPDEST PUSH2 0x23E7 DUP5 DUP5 DUP5 PUSH2 0x2F73 JUMP JUMPDEST DUP1 PUSH2 0x24A1 JUMPI PUSH1 0x10 DUP1 SLOAD PUSH1 0xFF PUSH1 0x48 SHL NOT PUSH8 0xFF00FF0000000000 NOT PUSH4 0xFF00FF00 NOT DUP4 AND PUSH4 0xFF000000 NOT PUSH2 0x100 PUSH3 0x10000 DUP7 DIV PUSH1 0xFF SWAP1 DUP2 AND SWAP2 SWAP1 SWAP2 MUL SWAP2 DUP3 AND SWAP3 SWAP1 SWAP3 OR PUSH5 0x100000000 PUSH2 0xFF00 NOT SWAP1 SWAP7 AND SWAP1 SWAP2 OR SWAP5 SWAP1 SWAP5 DIV DUP2 AND PUSH4 0x1000000 MUL SWAP4 SWAP1 SWAP4 OR SWAP1 DUP2 AND PUSH1 0xFF PUSH1 0x38 SHL NOT PUSH7 0x1000000000000 DUP4 DIV DUP6 AND PUSH1 0x1 PUSH1 0x28 SHL MUL SWAP1 DUP2 AND SWAP2 SWAP1 SWAP2 OR PUSH1 0x1 PUSH1 0x40 SHL PUSH6 0xFF0000000000 NOT SWAP1 SWAP4 AND SWAP1 SWAP2 OR SWAP2 SWAP1 SWAP2 DIV DUP4 AND PUSH1 0x1 PUSH1 0x38 SHL MUL OR SWAP1 DUP2 AND PUSH1 0x1 PUSH1 0x50 SHL SWAP1 SWAP2 DIV SWAP1 SWAP2 AND PUSH1 0x1 PUSH1 0x48 SHL MUL OR SWAP1 SSTORE JUMPDEST POP POP POP POP JUMP JUMPDEST PUSH1 0xC SLOAD PUSH1 0xB SLOAD PUSH1 0x0 SWAP2 DUP3 SWAP2 DUP3 JUMPDEST PUSH1 0xA SLOAD DUP2 LT ISZERO PUSH2 0x25F9 JUMPI DUP3 PUSH1 0x5 PUSH1 0x0 PUSH1 0xA DUP5 DUP2 SLOAD DUP2 LT PUSH2 0x24D6 JUMPI PUSH2 0x24D6 PUSH2 0x33DB JUMP JUMPDEST PUSH1 0x0 SWAP2 DUP3 MSTORE PUSH1 0x20 DUP1 DUP4 KECCAK256 SWAP1 SWAP2 ADD SLOAD PUSH1 0x1 PUSH1 0x1 PUSH1 0xA0 SHL SUB AND DUP4 MSTORE DUP3 ADD SWAP3 SWAP1 SWAP3 MSTORE PUSH1 0x40 ADD SWAP1 KECCAK256 SLOAD GT DUP1 PUSH2 0x2541 JUMPI POP DUP2 PUSH1 0x6 PUSH1 0x0 PUSH1 0xA DUP5 DUP2 SLOAD DUP2 LT PUSH2 0x251A JUMPI PUSH2 0x251A PUSH2 0x33DB JUMP JUMPDEST PUSH1 0x0 SWAP2 DUP3 MSTORE PUSH1 0x20 DUP1 DUP4 KECCAK256 SWAP1 SWAP2 ADD SLOAD PUSH1 0x1 PUSH1 0x1 PUSH1 0xA0 SHL SUB AND DUP4 MSTORE DUP3 ADD SWAP3 SWAP1 SWAP3 MSTORE PUSH1 0x40 ADD SWAP1 KECCAK256 SLOAD GT JUMPDEST ISZERO PUSH2 0x2557 JUMPI PUSH1 0xC SLOAD PUSH1 0xB SLOAD SWAP5 POP SWAP5 POP POP POP POP SWAP1 SWAP2 JUMP JUMPDEST PUSH2 0x259D PUSH1 0x5 PUSH1 0x0 PUSH1 0xA DUP5 DUP2 SLOAD DUP2 LT PUSH2 0x2571 JUMPI PUSH2 0x2571 PUSH2 0x33DB JUMP JUMPDEST PUSH1 0x0 SWAP2 DUP3 MSTORE PUSH1 0x20 DUP1 DUP4 KECCAK256 SWAP1 SWAP2 ADD SLOAD PUSH1 0x1 PUSH1 0x1 PUSH1 0xA0 SHL SUB AND DUP4 MSTORE DUP3 ADD SWAP3 SWAP1 SWAP3 MSTORE PUSH1 0x40 ADD SWAP1 KECCAK256 SLOAD DUP5 SWAP1 PUSH2 0x1E24 JUMP JUMPDEST SWAP3 POP PUSH2 0x25E5 PUSH1 0x6 PUSH1 0x0 PUSH1 0xA DUP5 DUP2 SLOAD DUP2 LT PUSH2 0x25B9 JUMPI PUSH2 0x25B9 PUSH2 0x33DB JUMP JUMPDEST PUSH1 0x0 SWAP2 DUP3 MSTORE PUSH1 0x20 DUP1 DUP4 KECCAK256 SWAP1 SWAP2 ADD SLOAD PUSH1 0x1 PUSH1 0x1 PUSH1 0xA0 SHL SUB AND DUP4 MSTORE DUP3 ADD SWAP3 SWAP1 SWAP3 MSTORE PUSH1 0x40 ADD SWAP1 KECCAK256 SLOAD DUP4 SWAP1 PUSH2 0x1E24 JUMP JUMPDEST SWAP2 POP DUP1 PUSH2 0x25F1 DUP2 PUSH2 0x3430 JUMP JUMPDEST SWAP2 POP POP PUSH2 0x24B4 JUMP JUMPDEST POP PUSH1 0xB SLOAD PUSH1 0xC SLOAD PUSH2 0x2609 SWAP2 PUSH2 0x1A02 JUMP JUMPDEST DUP3 LT ISZERO PUSH2 0x2620 JUMPI PUSH1 0xC SLOAD PUSH1 0xB SLOAD SWAP4 POP SWAP4 POP POP POP SWAP1 SWAP2 JUMP JUMPDEST SWAP1 SWAP4 SWAP1 SWAP3 POP SWAP1 POP JUMP JUMPDEST PUSH1 0x0 DUP1 PUSH1 0x0 DUP1 PUSH2 0x2638 DUP6 PUSH2 0x302A JUMP JUMPDEST SWAP1 POP PUSH1 0x0 PUSH2 0x2645 DUP7 PUSH2 0x304A JUMP JUMPDEST SWAP1 POP PUSH1 0x0 PUSH2 0x265D DUP3 PUSH2 0x2657 DUP10 DUP7 PUSH2 0x1E24 JUMP JUMPDEST SWAP1 PUSH2 0x1E24 JUMP JUMPDEST SWAP8 SWAP3 SWAP7 POP SWAP1 SWAP5 POP SWAP1 SWAP3 POP POP POP JUMP JUMPDEST PUSH1 0x0 DUP1 DUP1 DUP1 PUSH2 0x267A DUP9 DUP7 PUSH2 0x19F6 JUMP JUMPDEST SWAP1 POP PUSH1 0x0 PUSH2 0x2688 DUP9 DUP8 PUSH2 0x19F6 JUMP JUMPDEST SWAP1 POP PUSH1 0x0 PUSH2 0x2696 DUP9 DUP9 PUSH2 0x19F6 JUMP JUMPDEST SWAP1 POP PUSH1 0x0 PUSH2 0x26A8 DUP3 PUSH2 0x2657 DUP7 DUP7 PUSH2 0x1E24 JUMP JUMPDEST SWAP4 SWAP12 SWAP4 SWAP11 POP SWAP2 SWAP9 POP SWAP2 SWAP7 POP POP POP POP POP POP POP JUMP JUMPDEST PUSH1 0x1 PUSH1 0x1 PUSH1 0xA0 SHL SUB DUP4 AND PUSH1 0x0 SWAP1 DUP2 MSTORE PUSH1 0x5 PUSH1 0x20 MSTORE PUSH1 0x40 SWAP1 KECCAK256 SLOAD PUSH2 0x26DE SWAP1 DUP3 PUSH2 0x1E24 JUMP JUMPDEST PUSH1 0x1 PUSH1 0x1 PUSH1 0xA0 SHL SUB DUP1 DUP6 AND PUSH1 0x0 SWAP1 DUP2 MSTORE PUSH1 0x5 PUSH1 0x20 MSTORE PUSH1 0x40 DUP1 DUP3 KECCAK256 SWAP4 SWAP1 SWAP4 SSTORE SWAP1 DUP5 AND DUP2 MSTORE KECCAK256 SLOAD PUSH2 0x270D SWAP1 DUP3 PUSH2 0x1DC9 JUMP JUMPDEST PUSH1 0x1 PUSH1 0x1 PUSH1 0xA0 SHL SUB DUP1 DUP5 AND PUSH1 0x0 SWAP1 DUP2 MSTORE PUSH1 0x5 PUSH1 0x20 SWAP1 DUP2 MSTORE PUSH1 0x40 DUP1 DUP4 KECCAK256 SWAP5 SWAP1 SWAP5 SSTORE SWAP2 DUP7 AND DUP2 MSTORE PUSH1 0x9 SWAP1 SWAP2 MSTORE KECCAK256 SLOAD PUSH1 0xFF AND ISZERO PUSH2 0x277E JUMPI PUSH1 0x1 PUSH1 0x1 PUSH1 0xA0 SHL SUB DUP4 AND PUSH1 0x0 SWAP1 DUP2 MSTORE PUSH1 0x6 PUSH1 0x20 MSTORE PUSH1 0x40 SWAP1 KECCAK256 SLOAD PUSH2 0x2764 SWAP1 DUP3 PUSH2 0x1E24 JUMP JUMPDEST PUSH1 0x1 PUSH1 0x1 PUSH1 0xA0 SHL SUB DUP5 AND PUSH1 0x0 SWAP1 DUP2 MSTORE PUSH1 0x6 PUSH1 0x20 MSTORE PUSH1 0x40 SWAP1 KECCAK256 SSTORE JUMPDEST PUSH1 0x1 PUSH1 0x1 PUSH1 0xA0 SHL SUB DUP3 AND PUSH1 0x0 SWAP1 DUP2 MSTORE PUSH1 0x9 PUSH1 0x20 MSTORE PUSH1 0x40 SWAP1 KECCAK256 SLOAD PUSH1 0xFF AND ISZERO PUSH2 0x27DC JUMPI PUSH1 0x1 PUSH1 0x1 PUSH1 0xA0 SHL SUB DUP3 AND PUSH1 0x0 SWAP1 DUP2 MSTORE PUSH1 0x6 PUSH1 0x20 MSTORE PUSH1 0x40 SWAP1 KECCAK256 SLOAD PUSH2 0x27C2 SWAP1 DUP3 PUSH2 0x1DC9 JUMP JUMPDEST PUSH1 0x1 PUSH1 0x1 PUSH1 0xA0 SHL SUB DUP4 AND PUSH1 0x0 SWAP1 DUP2 MSTORE PUSH1 0x6 PUSH1 0x20 MSTORE PUSH1 0x40 SWAP1 KECCAK256 SSTORE JUMPDEST DUP2 PUSH1 0x1 PUSH1 0x1 PUSH1 0xA0 SHL SUB AND DUP4 PUSH1 0x1 PUSH1 0x1 PUSH1 0xA0 SHL SUB AND PUSH1 0x0 DUP1 MLOAD PUSH1 0x20 PUSH2 0x36F3 DUP4 CODECOPY DUP2 MLOAD SWAP2 MSTORE DUP4 PUSH1 0x40 MLOAD PUSH2 0x1B0F SWAP2 DUP2 MSTORE PUSH1 0x20 ADD SWAP1 JUMP JUMPDEST PUSH1 0x40 DUP1 MLOAD PUSH1 0x2 DUP1 DUP3 MSTORE PUSH1 0x60 DUP3 ADD DUP4 MSTORE PUSH1 0x0 SWAP3 PUSH1 0x20 DUP4 ADD SWAP1 DUP1 CALLDATASIZE DUP4 CALLDATACOPY ADD SWAP1 POP POP SWAP1 POP ADDRESS DUP2 PUSH1 0x0 DUP2 MLOAD DUP2 LT PUSH2 0x2844 JUMPI PUSH2 0x2844 PUSH2 0x33DB JUMP JUMPDEST PUSH1 0x20 MUL PUSH1 0x20 ADD ADD SWAP1 PUSH1 0x1 PUSH1 0x1 PUSH1 0xA0 SHL SUB AND SWAP1 DUP2 PUSH1 0x1 PUSH1 0x1 PUSH1 0xA0 SHL SUB AND DUP2 MSTORE POP POP PUSH32 0x0 PUSH1 0x1 PUSH1 0x1 PUSH1 0xA0 SHL SUB AND PUSH4 0xAD5C4648 PUSH1 0x40 MLOAD DUP2 PUSH4 0xFFFFFFFF AND PUSH1 0xE0 SHL DUP2 MSTORE PUSH1 0x4 ADD PUSH1 0x20 PUSH1 0x40 MLOAD DUP1 DUP4 SUB DUP2 DUP7 GAS STATICCALL ISZERO DUP1 ISZERO PUSH2 0x28C2 JUMPI RETURNDATASIZE PUSH1 0x0 DUP1 RETURNDATACOPY RETURNDATASIZE PUSH1 0x0 REVERT JUMPDEST POP POP POP POP PUSH1 0x40 MLOAD RETURNDATASIZE PUSH1 0x1F NOT PUSH1 0x1F DUP3 ADD AND DUP3 ADD DUP1 PUSH1 0x40 MSTORE POP DUP2 ADD SWAP1 PUSH2 0x28E6 SWAP2 SWAP1 PUSH2 0x35CA JUMP JUMPDEST DUP2 PUSH1 0x1 DUP2 MLOAD DUP2 LT PUSH2 0x28F9 JUMPI PUSH2 0x28F9 PUSH2 0x33DB JUMP JUMPDEST PUSH1 0x20 MUL PUSH1 0x20 ADD ADD SWAP1 PUSH1 0x1 PUSH1 0x1 PUSH1 0xA0 SHL SUB AND SWAP1 DUP2 PUSH1 0x1 PUSH1 0x1 PUSH1 0xA0 SHL SUB AND DUP2 MSTORE POP POP PUSH2 0x2944 ADDRESS PUSH32 0x0 DUP5 PUSH2 0x1A0E JUMP JUMPDEST PUSH1 0x1 PUSH1 0x1 PUSH1 0xA0 SHL SUB PUSH32 0x0 AND PUSH4 0x791AC947 DUP4 PUSH1 0x0 DUP5 ADDRESS PUSH2 0x2984 TIMESTAMP PUSH2 0x12C PUSH2 0x1DC9 JUMP JUMPDEST PUSH1 0x40 MLOAD DUP7 PUSH4 0xFFFFFFFF AND PUSH1 0xE0 SHL DUP2 MSTORE PUSH1 0x4 ADD PUSH2 0x29A4 SWAP6 SWAP5 SWAP4 SWAP3 SWAP2 SWAP1 PUSH2 0x362B JUMP JUMPDEST PUSH1 0x0 PUSH1 0x40 MLOAD DUP1 DUP4 SUB DUP2 PUSH1 0x0 DUP8 DUP1 EXTCODESIZE ISZERO DUP1 ISZERO PUSH2 0x29BE JUMPI PUSH1 0x0 DUP1 REVERT JUMPDEST POP GAS CALL ISZERO DUP1 ISZERO PUSH2 0x29D2 JUMPI RETURNDATASIZE PUSH1 0x0 DUP1 RETURNDATACOPY RETURNDATASIZE PUSH1 0x0 REVERT JUMPDEST POP POP POP POP POP POP JUMP JUMPDEST PUSH2 0x2A05 ADDRESS PUSH32 0x0 DUP5 PUSH2 0x1A0E JUMP JUMPDEST PUSH1 0x3 SLOAD PUSH1 0x1 PUSH1 0x1 PUSH1 0xA0 SHL SUB PUSH32 0x0 DUP2 AND SWAP2 PUSH4 0xF305D719 SWAP2 DUP5 SWAP2 ADDRESS SWAP2 DUP8 SWAP2 PUSH1 0x0 SWAP2 DUP3 SWAP2 AND PUSH2 0x2A52 TIMESTAMP PUSH2 0x12C PUSH2 0x1DC9 JUMP JUMPDEST PUSH1 0x40 MLOAD PUSH1 0xE0 DUP10 SWAP1 SHL PUSH1 0x1 PUSH1 0x1 PUSH1 0xE0 SHL SUB NOT AND DUP2 MSTORE PUSH1 0x1 PUSH1 0x1 PUSH1 0xA0 SHL SUB SWAP7 DUP8 AND PUSH1 0x4 DUP3 ADD MSTORE PUSH1 0x24 DUP2 ADD SWAP6 SWAP1 SWAP6 MSTORE PUSH1 0x44 DUP6 ADD SWAP4 SWAP1 SWAP4 MSTORE PUSH1 0x64 DUP5 ADD SWAP2 SWAP1 SWAP2 MSTORE SWAP1 SWAP3 AND PUSH1 0x84 DUP3 ADD MSTORE PUSH1 0xA4 DUP2 ADD SWAP2 SWAP1 SWAP2 MSTORE PUSH1 0xC4 ADD PUSH1 0x60 PUSH1 0x40 MLOAD DUP1 DUP4 SUB DUP2 DUP6 DUP9 GAS CALL ISZERO DUP1 ISZERO PUSH2 0x2ABF JUMPI RETURNDATASIZE PUSH1 0x0 DUP1 RETURNDATACOPY RETURNDATASIZE PUSH1 0x0 REVERT JUMPDEST POP POP POP POP POP PUSH1 0x40 MLOAD RETURNDATASIZE PUSH1 0x1F NOT PUSH1 0x1F DUP3 ADD AND DUP3 ADD DUP1 PUSH1 0x40 MSTORE POP DUP2 ADD SWAP1 PUSH2 0x1D73 SWAP2 SWAP1 PUSH2 0x3667 JUMP JUMPDEST PUSH1 0x40 DUP1 MLOAD PUSH1 0x2 DUP1 DUP3 MSTORE PUSH1 0x60 DUP3 ADD DUP4 MSTORE PUSH1 0x0 SWAP3 PUSH1 0x20 DUP4 ADD SWAP1 DUP1 CALLDATASIZE DUP4 CALLDATACOPY ADD SWAP1 POP POP SWAP1 POP PUSH32 0x0 PUSH1 0x1 PUSH1 0x1 PUSH1 0xA0 SHL SUB AND PUSH4 0xAD5C4648 PUSH1 0x40 MLOAD DUP2 PUSH4 0xFFFFFFFF AND PUSH1 0xE0 SHL DUP2 MSTORE PUSH1 0x4 ADD PUSH1 0x20 PUSH1 0x40 MLOAD DUP1 DUP4 SUB DUP2 DUP7 GAS STATICCALL ISZERO DUP1 ISZERO PUSH2 0x2B63 JUMPI RETURNDATASIZE PUSH1 0x0 DUP1 RETURNDATACOPY RETURNDATASIZE PUSH1 0x0 REVERT JUMPDEST POP POP POP POP PUSH1 0x40 MLOAD RETURNDATASIZE PUSH1 0x1F NOT PUSH1 0x1F DUP3 ADD AND DUP3 ADD DUP1 PUSH1 0x40 MSTORE POP DUP2 ADD SWAP1 PUSH2 0x2B87 SWAP2 SWAP1 PUSH2 0x35CA JUMP JUMPDEST DUP2 PUSH1 0x0 DUP2 MLOAD DUP2 LT PUSH2 0x2B9A JUMPI PUSH2 0x2B9A PUSH2 0x33DB JUMP JUMPDEST PUSH1 0x20 MUL PUSH1 0x20 ADD ADD SWAP1 PUSH1 0x1 PUSH1 0x1 PUSH1 0xA0 SHL SUB AND SWAP1 DUP2 PUSH1 0x1 PUSH1 0x1 PUSH1 0xA0 SHL SUB AND DUP2 MSTORE POP POP ADDRESS DUP2 PUSH1 0x1 DUP2 MLOAD DUP2 LT PUSH2 0x2BCE JUMPI PUSH2 0x2BCE PUSH2 0x33DB JUMP JUMPDEST PUSH1 0x1 PUSH1 0x1 PUSH1 0xA0 SHL SUB SWAP3 DUP4 AND PUSH1 0x20 SWAP2 DUP3 MUL SWAP3 SWAP1 SWAP3 ADD ADD MSTORE PUSH1 0x3 SLOAD PUSH32 0x0 DUP3 AND SWAP2 PUSH4 0xB6F9DE95 SWAP2 DUP6 SWAP2 PUSH1 0x0 SWAP2 DUP7 SWAP2 AND PUSH2 0x2C25 TIMESTAMP PUSH2 0x12C PUSH2 0x1DC9 JUMP JUMPDEST PUSH1 0x40 MLOAD DUP7 PUSH4 0xFFFFFFFF AND PUSH1 0xE0 SHL DUP2 MSTORE PUSH1 0x4 ADD PUSH2 0x2C44 SWAP5 SWAP4 SWAP3 SWAP2 SWAP1 PUSH2 0x3695 JUMP JUMPDEST PUSH1 0x0 PUSH1 0x40 MLOAD DUP1 DUP4 SUB DUP2 DUP6 DUP9 DUP1 EXTCODESIZE ISZERO DUP1 ISZERO PUSH2 0x2C5D JUMPI PUSH1 0x0 DUP1 REVERT JUMPDEST POP GAS CALL ISZERO DUP1 ISZERO PUSH2 0x2C71 JUMPI RETURNDATASIZE PUSH1 0x0 DUP1 RETURNDATACOPY RETURNDATASIZE PUSH1 0x0 REVERT JUMPDEST POP POP POP POP POP POP POP JUMP JUMPDEST PUSH1 0x10 SLOAD PUSH2 0x100 SWAP1 DIV PUSH1 0xFF AND ISZERO DUP1 ISZERO PUSH2 0x2C9C JUMPI POP PUSH1 0x10 SLOAD PUSH4 0x1000000 SWAP1 DIV PUSH1 0xFF AND ISZERO JUMPDEST DUP1 ISZERO PUSH2 0x2CB2 JUMPI POP PUSH1 0x10 SLOAD PUSH1 0x1 PUSH1 0x28 SHL SWAP1 DIV PUSH1 0xFF AND ISZERO JUMPDEST DUP1 ISZERO PUSH2 0x2CC8 JUMPI POP PUSH1 0x10 SLOAD PUSH1 0x1 PUSH1 0x38 SHL SWAP1 DIV PUSH1 0xFF AND ISZERO JUMPDEST DUP1 ISZERO PUSH2 0x2CDE JUMPI POP PUSH1 0x10 SLOAD PUSH1 0x1 PUSH1 0x48 SHL SWAP1 DIV PUSH1 0xFF AND ISZERO JUMPDEST ISZERO PUSH2 0x2CE5 JUMPI JUMP JUMPDEST PUSH1 0x10 DUP1 SLOAD PUSH11 0xFFFF00FF00FF00FF00FF00 NOT PUSH9 0xFF00FF000000000000 NOT PUSH5 0xFF00FF0000 NOT DUP4 AND PUSH5 0xFF00000000 NOT PUSH2 0x100 DUP6 DIV PUSH1 0xFF SWAP1 DUP2 AND PUSH3 0x10000 MUL SWAP2 DUP3 AND SWAP3 SWAP1 SWAP3 OR PUSH4 0x1000000 PUSH3 0xFF0000 NOT SWAP1 SWAP7 AND SWAP1 SWAP2 OR SWAP5 SWAP1 SWAP5 DIV DUP2 AND PUSH5 0x100000000 MUL SWAP4 SWAP1 SWAP4 OR SWAP1 DUP2 AND PUSH9 0xFF0000000000000000 NOT PUSH1 0x1 PUSH1 0x28 SHL DUP4 DIV DUP6 AND PUSH7 0x1000000000000 MUL SWAP1 DUP2 AND SWAP2 SWAP1 SWAP2 OR PUSH1 0x1 PUSH1 0x38 SHL PUSH7 0xFF000000000000 NOT SWAP1 SWAP4 AND SWAP1 SWAP2 OR SWAP2 SWAP1 SWAP2 DIV DUP4 AND PUSH1 0x1 PUSH1 0x40 SHL MUL OR SWAP1 DUP2 AND PUSH1 0x1 PUSH1 0x48 SHL SWAP1 SWAP2 DIV SWAP1 SWAP2 AND PUSH1 0x1 PUSH1 0x50 SHL MUL PUSH10 0xFF00FF00FF00FF00FF00 NOT AND OR SWAP1 SSTORE JUMP JUMPDEST PUSH1 0x0 DUP1 PUSH1 0x0 DUP1 PUSH1 0x0 DUP1 PUSH2 0x2DC8 DUP8 PUSH2 0x1DD5 JUMP JUMPDEST PUSH1 0x1 PUSH1 0x1 PUSH1 0xA0 SHL SUB DUP16 AND PUSH1 0x0 SWAP1 DUP2 MSTORE PUSH1 0x6 PUSH1 0x20 MSTORE PUSH1 0x40 SWAP1 KECCAK256 SLOAD SWAP6 SWAP12 POP SWAP4 SWAP10 POP SWAP2 SWAP8 POP SWAP6 POP SWAP4 POP SWAP2 POP PUSH2 0x2DFA SWAP1 DUP9 PUSH2 0x1E24 JUMP JUMPDEST PUSH1 0x1 PUSH1 0x1 PUSH1 0xA0 SHL SUB DUP11 AND PUSH1 0x0 SWAP1 DUP2 MSTORE PUSH1 0x6 PUSH1 0x20 SWAP1 DUP2 MSTORE PUSH1 0x40 DUP1 DUP4 KECCAK256 SWAP4 SWAP1 SWAP4 SSTORE PUSH1 0x5 SWAP1 MSTORE KECCAK256 SLOAD PUSH2 0x2E29 SWAP1 DUP8 PUSH2 0x1E24 JUMP JUMPDEST PUSH1 0x1 PUSH1 0x1 PUSH1 0xA0 SHL SUB DUP1 DUP12 AND PUSH1 0x0 SWAP1 DUP2 MSTORE PUSH1 0x5 PUSH1 0x20 MSTORE PUSH1 0x40 DUP1 DUP3 KECCAK256 SWAP4 SWAP1 SWAP4 SSTORE SWAP1 DUP11 AND DUP2 MSTORE KECCAK256 SLOAD PUSH2 0x2E58 SWAP1 DUP7 PUSH2 0x1DC9 JUMP JUMPDEST PUSH1 0x1 PUSH1 0x1 PUSH1 0xA0 SHL SUB DUP10 AND PUSH1 0x0 SWAP1 DUP2 MSTORE PUSH1 0x5 PUSH1 0x20 MSTORE PUSH1 0x40 SWAP1 KECCAK256 SSTORE PUSH2 0x2E7A DUP2 PUSH2 0x30AB JUMP JUMPDEST PUSH2 0x2E84 DUP5 DUP4 PUSH2 0x3133 JUMP JUMPDEST DUP8 PUSH1 0x1 PUSH1 0x1 PUSH1 0xA0 SHL SUB AND DUP10 PUSH1 0x1 PUSH1 0x1 PUSH1 0xA0 SHL SUB AND PUSH1 0x0 DUP1 MLOAD PUSH1 0x20 PUSH2 0x36F3 DUP4 CODECOPY DUP2 MLOAD SWAP2 MSTORE DUP6 PUSH1 0x40 MLOAD PUSH2 0x2EB7 SWAP2 DUP2 MSTORE PUSH1 0x20 ADD SWAP1 JUMP JUMPDEST PUSH1 0x40 MLOAD DUP1 SWAP2 SUB SWAP1 LOG3 POP POP POP POP POP POP POP POP POP JUMP JUMPDEST PUSH1 0x0 DUP1 PUSH1 0x0 DUP1 PUSH1 0x0 DUP1 PUSH2 0x2EDC DUP8 PUSH2 0x1DD5 JUMP JUMPDEST PUSH1 0x1 PUSH1 0x1 PUSH1 0xA0 SHL SUB DUP16 AND PUSH1 0x0 SWAP1 DUP2 MSTORE PUSH1 0x5 PUSH1 0x20 MSTORE PUSH1 0x40 SWAP1 KECCAK256 SLOAD SWAP6 SWAP12 POP SWAP4 SWAP10 POP SWAP2 SWAP8 POP SWAP6 POP SWAP4 POP SWAP2 POP PUSH2 0x2F0E SWAP1 DUP8 PUSH2 0x1E24 JUMP JUMPDEST PUSH1 0x1 PUSH1 0x1 PUSH1 0xA0 SHL SUB DUP1 DUP12 AND PUSH1 0x0 SWAP1 DUP2 MSTORE PUSH1 0x5 PUSH1 0x20 SWAP1 DUP2 MSTORE PUSH1 0x40 DUP1 DUP4 KECCAK256 SWAP5 SWAP1 SWAP5 SSTORE SWAP2 DUP12 AND DUP2 MSTORE PUSH1 0x6 SWAP1 SWAP2 MSTORE KECCAK256 SLOAD PUSH2 0x2F44 SWAP1 DUP5 PUSH2 0x1DC9 JUMP JUMPDEST PUSH1 0x1 PUSH1 0x1 PUSH1 0xA0 SHL SUB DUP10 AND PUSH1 0x0 SWAP1 DUP2 MSTORE PUSH1 0x6 PUSH1 0x20 SWAP1 DUP2 MSTORE PUSH1 0x40 DUP1 DUP4 KECCAK256 SWAP4 SWAP1 SWAP4 SSTORE PUSH1 0x5 SWAP1 MSTORE KECCAK256 SLOAD PUSH2 0x2E58 SWAP1 DUP7 PUSH2 0x1DC9 JUMP JUMPDEST PUSH1 0x0 DUP1 PUSH1 0x0 DUP1 PUSH1 0x0 DUP1 PUSH2 0x2F85 DUP8 PUSH2 0x1DD5 JUMP JUMPDEST PUSH1 0x1 PUSH1 0x1 PUSH1 0xA0 SHL SUB DUP16 AND PUSH1 0x0 SWAP1 DUP2 MSTORE PUSH1 0x5 PUSH1 0x20 MSTORE PUSH1 0x40 SWAP1 KECCAK256 SLOAD SWAP6 SWAP12 POP SWAP4 SWAP10 POP SWAP2 SWAP8 POP SWAP6 POP SWAP4 POP SWAP2 POP PUSH2 0x2E29 SWAP1 DUP8 PUSH2 0x1E24 JUMP JUMPDEST PUSH1 0x0 DUP1 PUSH1 0x0 DUP1 PUSH1 0x0 DUP1 PUSH2 0x2FC9 DUP8 PUSH2 0x1DD5 JUMP JUMPDEST PUSH1 0x1 PUSH1 0x1 PUSH1 0xA0 SHL SUB DUP16 AND PUSH1 0x0 SWAP1 DUP2 MSTORE PUSH1 0x6 PUSH1 0x20 MSTORE PUSH1 0x40 SWAP1 KECCAK256 SLOAD SWAP6 SWAP12 POP SWAP4 SWAP10 POP SWAP2 SWAP8 POP SWAP6 POP SWAP4 POP SWAP2 POP PUSH2 0x2FFB SWAP1 DUP9 PUSH2 0x1E24 JUMP JUMPDEST PUSH1 0x1 PUSH1 0x1 PUSH1 0xA0 SHL SUB DUP11 AND PUSH1 0x0 SWAP1 DUP2 MSTORE PUSH1 0x6 PUSH1 0x20 SWAP1 DUP2 MSTORE PUSH1 0x40 DUP1 DUP4 KECCAK256 SWAP4 SWAP1 SWAP4 SSTORE PUSH1 0x5 SWAP1 MSTORE KECCAK256 SLOAD PUSH2 0x2F0E SWAP1 DUP8 PUSH2 0x1E24 JUMP JUMPDEST PUSH1 0x10 SLOAD PUSH1 0x0 SWAP1 PUSH2 0xC32 SWAP1 PUSH1 0x64 SWAP1 PUSH2 0x1D0F SWAP1 DUP6 SWAP1 PUSH2 0x100 SWAP1 DIV PUSH1 0xFF AND PUSH2 0x19F6 JUMP JUMPDEST PUSH1 0x10 SLOAD PUSH1 0x0 SWAP1 PUSH2 0xC32 SWAP1 PUSH1 0x64 SWAP1 PUSH2 0x1D0F SWAP1 PUSH1 0xFF PUSH1 0x1 PUSH1 0x48 SHL DUP3 DIV DUP2 AND SWAP2 PUSH1 0x1 PUSH1 0x38 SHL DUP2 DIV DUP3 AND SWAP2 PUSH2 0x308D SWAP2 PUSH1 0x1 PUSH1 0x28 SHL DUP2 DIV DUP3 AND SWAP2 PUSH4 0x1000000 SWAP1 SWAP2 DIV AND PUSH2 0x35B1 JUMP JUMPDEST PUSH2 0x3097 SWAP2 SWAP1 PUSH2 0x35B1 JUMP JUMPDEST PUSH2 0x30A1 SWAP2 SWAP1 PUSH2 0x35B1 JUMP JUMPDEST DUP6 SWAP1 PUSH1 0xFF AND PUSH2 0x19F6 JUMP JUMPDEST PUSH1 0x0 PUSH2 0x30B5 PUSH2 0x1DA6 JUMP JUMPDEST SWAP1 POP PUSH1 0x0 PUSH2 0x30C3 DUP4 DUP4 PUSH2 0x19F6 JUMP JUMPDEST ADDRESS PUSH1 0x0 SWAP1 DUP2 MSTORE PUSH1 0x5 PUSH1 0x20 MSTORE PUSH1 0x40 SWAP1 KECCAK256 SLOAD SWAP1 SWAP2 POP PUSH2 0x30E0 SWAP1 DUP3 PUSH2 0x1DC9 JUMP JUMPDEST ADDRESS PUSH1 0x0 SWAP1 DUP2 MSTORE PUSH1 0x5 PUSH1 0x20 SWAP1 DUP2 MSTORE PUSH1 0x40 DUP1 DUP4 KECCAK256 SWAP4 SWAP1 SWAP4 SSTORE PUSH1 0x9 SWAP1 MSTORE KECCAK256 SLOAD PUSH1 0xFF AND ISZERO PUSH2 0x161E JUMPI ADDRESS PUSH1 0x0 SWAP1 DUP2 MSTORE PUSH1 0x6 PUSH1 0x20 MSTORE PUSH1 0x40 SWAP1 KECCAK256 SLOAD PUSH2 0x311E SWAP1 DUP5 PUSH2 0x1DC9 JUMP JUMPDEST ADDRESS PUSH1 0x0 SWAP1 DUP2 MSTORE PUSH1 0x6 PUSH1 0x20 MSTORE PUSH1 0x40 SWAP1 KECCAK256 SSTORE POP POP POP JUMP JUMPDEST PUSH1 0xC SLOAD PUSH2 0x3140 SWAP1 DUP4 PUSH2 0x1E24 JUMP JUMPDEST PUSH1 0xC SSTORE PUSH1 0xD SLOAD PUSH2 0x3150 SWAP1 DUP3 PUSH2 0x1DC9 JUMP JUMPDEST PUSH1 0xD SSTORE POP POP JUMP JUMPDEST PUSH1 0x0 PUSH1 0x20 DUP1 DUP4 MSTORE DUP4 MLOAD DUP1 DUP3 DUP6 ADD MSTORE PUSH1 0x0 JUMPDEST DUP2 DUP2 LT ISZERO PUSH2 0x3184 JUMPI DUP6 DUP2 ADD DUP4 ADD MLOAD DUP6 DUP3 ADD PUSH1 0x40 ADD MSTORE DUP3 ADD PUSH2 0x3168 JUMP JUMPDEST POP PUSH1 0x0 PUSH1 0x40 DUP3 DUP7 ADD ADD MSTORE PUSH1 0x40 PUSH1 0x1F NOT PUSH1 0x1F DUP4 ADD AND DUP6 ADD ADD SWAP3 POP POP POP SWAP3 SWAP2 POP POP JUMP JUMPDEST PUSH1 0x1 PUSH1 0x1 PUSH1 0xA0 SHL SUB DUP2 AND DUP2 EQ PUSH2 0x1203 JUMPI PUSH1 0x0 DUP1 REVERT JUMPDEST PUSH1 0x0 DUP1 PUSH1 0x40 DUP4 DUP6 SUB SLT ISZERO PUSH2 0x31CD JUMPI PUSH1 0x0 DUP1 REVERT JUMPDEST DUP3 CALLDATALOAD PUSH2 0x31D8 DUP2 PUSH2 0x31A5 JUMP JUMPDEST SWAP5 PUSH1 0x20 SWAP4 SWAP1 SWAP4 ADD CALLDATALOAD SWAP4 POP POP POP JUMP JUMPDEST PUSH1 0x0 DUP1 PUSH1 0x0 PUSH1 0x60 DUP5 DUP7 SUB SLT ISZERO PUSH2 0x31FB JUMPI PUSH1 0x0 DUP1 REVERT JUMPDEST DUP4 CALLDATALOAD PUSH2 0x3206 DUP2 PUSH2 0x31A5 JUMP JUMPDEST SWAP3 POP PUSH1 0x20 DUP5 ADD CALLDATALOAD PUSH2 0x3216 DUP2 PUSH2 0x31A5 JUMP JUMPDEST SWAP3 SWAP6 SWAP3 SWAP5 POP POP POP PUSH1 0x40 SWAP2 SWAP1 SWAP2 ADD CALLDATALOAD SWAP1 JUMP JUMPDEST PUSH1 0x0 PUSH1 0x20 DUP3 DUP5 SUB SLT ISZERO PUSH2 0x3239 JUMPI PUSH1 0x0 DUP1 REVERT JUMPDEST POP CALLDATALOAD SWAP2 SWAP1 POP JUMP JUMPDEST PUSH1 0x0 PUSH1 0x20 DUP3 DUP5 SUB SLT ISZERO PUSH2 0x3252 JUMPI PUSH1 0x0 DUP1 REVERT JUMPDEST DUP2 CALLDATALOAD PUSH2 0xD10 DUP2 PUSH2 0x31A5 JUMP JUMPDEST DUP1 ISZERO ISZERO DUP2 EQ PUSH2 0x1203 JUMPI PUSH1 0x0 DUP1 REVERT JUMPDEST PUSH1 0x0 DUP1 PUSH1 0x40 DUP4 DUP6 SUB SLT ISZERO PUSH2 0x327E JUMPI PUSH1 0x0 DUP1 REVERT JUMPDEST DUP3 CALLDATALOAD SWAP2 POP PUSH1 0x20 DUP4 ADD CALLDATALOAD PUSH2 0x3290 DUP2 PUSH2 0x325D JUMP JUMPDEST DUP1 SWAP2 POP POP SWAP3 POP SWAP3 SWAP1 POP JUMP JUMPDEST PUSH1 0x0 PUSH1 0x20 DUP3 DUP5 SUB SLT ISZERO PUSH2 0x32AD JUMPI PUSH1 0x0 DUP1 REVERT JUMPDEST DUP2 CALLDATALOAD PUSH2 0xD10 DUP2 PUSH2 0x325D JUMP JUMPDEST PUSH1 0x0 DUP1 PUSH1 0x40 DUP4 DUP6 SUB SLT ISZERO PUSH2 0x32CB JUMPI PUSH1 0x0 DUP1 REVERT JUMPDEST DUP3 CALLDATALOAD PUSH2 0x32D6 DUP2 PUSH2 0x31A5 JUMP JUMPDEST SWAP2 POP PUSH1 0x20 DUP4 ADD CALLDATALOAD PUSH2 0x3290 DUP2 PUSH2 0x31A5 JUMP JUMPDEST DUP1 CALLDATALOAD PUSH1 0xFF DUP2 AND DUP2 EQ PUSH2 0x1019 JUMPI PUSH1 0x0 DUP1 REVERT JUMPDEST PUSH1 0x0 DUP1 PUSH1 0x0 DUP1 PUSH1 0x0 PUSH1 0xA0 DUP7 DUP9 SUB SLT ISZERO PUSH2 0x330F JUMPI PUSH1 0x0 DUP1 REVERT JUMPDEST PUSH2 0x3318 DUP7 PUSH2 0x32E6 JUMP JUMPDEST SWAP5 POP PUSH2 0x3326 PUSH1 0x20 DUP8 ADD PUSH2 0x32E6 JUMP JUMPDEST SWAP4 POP PUSH2 0x3334 PUSH1 0x40 DUP8 ADD PUSH2 0x32E6 JUMP JUMPDEST SWAP3 POP PUSH2 0x3342 PUSH1 0x60 DUP8 ADD PUSH2 0x32E6 JUMP JUMPDEST SWAP2 POP PUSH2 0x3350 PUSH1 0x80 DUP8 ADD PUSH2 0x32E6 JUMP JUMPDEST SWAP1 POP SWAP3 SWAP6 POP SWAP3 SWAP6 SWAP1 SWAP4 POP JUMP JUMPDEST PUSH1 0x1 DUP2 DUP2 SHR SWAP1 DUP3 AND DUP1 PUSH2 0x3370 JUMPI PUSH1 0x7F DUP3 AND SWAP2 POP JUMPDEST PUSH1 0x20 DUP3 LT DUP2 SUB PUSH2 0x3390 JUMPI PUSH4 0x4E487B71 PUSH1 0xE0 SHL PUSH1 0x0 MSTORE PUSH1 0x22 PUSH1 0x4 MSTORE PUSH1 0x24 PUSH1 0x0 REVERT JUMPDEST POP SWAP2 SWAP1 POP JUMP JUMPDEST PUSH1 0x20 DUP1 DUP3 MSTORE PUSH1 0x25 SWAP1 DUP3 ADD MSTORE PUSH32 0x45524332304F776E61626C653A2063616C6C6572206973206E6F742074686520 PUSH1 0x40 DUP3 ADD MSTORE PUSH5 0x37BBB732B9 PUSH1 0xD9 SHL PUSH1 0x60 DUP3 ADD MSTORE PUSH1 0x80 ADD SWAP1 JUMP JUMPDEST PUSH4 0x4E487B71 PUSH1 0xE0 SHL PUSH1 0x0 MSTORE PUSH1 0x32 PUSH1 0x4 MSTORE PUSH1 0x24 PUSH1 0x0 REVERT JUMPDEST PUSH4 0x4E487B71 PUSH1 0xE0 SHL PUSH1 0x0 MSTORE PUSH1 0x11 PUSH1 0x4 MSTORE PUSH1 0x24 PUSH1 0x0 REVERT JUMPDEST DUP2 DUP2 SUB DUP2 DUP2 GT ISZERO PUSH2 0xC32 JUMPI PUSH2 0xC32 PUSH2 0x33F1 JUMP JUMPDEST PUSH4 0x4E487B71 PUSH1 0xE0 SHL PUSH1 0x0 MSTORE PUSH1 0x31 PUSH1 0x4 MSTORE PUSH1 0x24 PUSH1 0x0 REVERT JUMPDEST PUSH1 0x0 PUSH1 0x1 DUP3 ADD PUSH2 0x3442 JUMPI PUSH2 0x3442 PUSH2 0x33F1 JUMP JUMPDEST POP PUSH1 0x1 ADD SWAP1 JUMP JUMPDEST PUSH1 0x1 DUP2 DUP2 JUMPDEST DUP1 DUP6 GT ISZERO PUSH2 0x3484 JUMPI DUP2 PUSH1 0x0 NOT DIV DUP3 GT ISZERO PUSH2 0x346A JUMPI PUSH2 0x346A PUSH2 0x33F1 JUMP JUMPDEST DUP1 DUP6 AND ISZERO PUSH2 0x3477 JUMPI SWAP2 DUP2 MUL SWAP2 JUMPDEST SWAP4 DUP5 SHR SWAP4 SWAP1 DUP1 MUL SWAP1 PUSH2 0x344E JUMP JUMPDEST POP SWAP3 POP SWAP3 SWAP1 POP JUMP JUMPDEST PUSH1 0x0 DUP3 PUSH2 0x349B JUMPI POP PUSH1 0x1 PUSH2 0xC32 JUMP JUMPDEST DUP2 PUSH2 0x34A8 JUMPI POP PUSH1 0x0 PUSH2 0xC32 JUMP JUMPDEST DUP2 PUSH1 0x1 DUP2 EQ PUSH2 0x34BE JUMPI PUSH1 0x2 DUP2 EQ PUSH2 0x34C8 JUMPI PUSH2 0x34E4 JUMP JUMPDEST PUSH1 0x1 SWAP2 POP POP PUSH2 0xC32 JUMP JUMPDEST PUSH1 0xFF DUP5 GT ISZERO PUSH2 0x34D9 JUMPI PUSH2 0x34D9 PUSH2 0x33F1 JUMP JUMPDEST POP POP PUSH1 0x1 DUP3 SHL PUSH2 0xC32 JUMP JUMPDEST POP PUSH1 0x20 DUP4 LT PUSH2 0x133 DUP4 LT AND PUSH1 0x4E DUP5 LT PUSH1 0xB DUP5 LT AND OR ISZERO PUSH2 0x3507 JUMPI POP DUP2 DUP2 EXP PUSH2 0xC32 JUMP JUMPDEST PUSH2 0x3511 DUP4 DUP4 PUSH2 0x3449 JUMP JUMPDEST DUP1 PUSH1 0x0 NOT DIV DUP3 GT ISZERO PUSH2 0x3525 JUMPI PUSH2 0x3525 PUSH2 0x33F1 JUMP JUMPDEST MUL SWAP4 SWAP3 POP POP POP JUMP JUMPDEST PUSH1 0x0 PUSH2 0xD10 PUSH1 0xFF DUP5 AND DUP4 PUSH2 0x348C JUMP JUMPDEST DUP1 DUP3 MUL DUP2 ISZERO DUP3 DUP3 DIV DUP5 EQ OR PUSH2 0xC32 JUMPI PUSH2 0xC32 PUSH2 0x33F1 JUMP JUMPDEST PUSH1 0x0 PUSH1 0x20 DUP3 DUP5 SUB SLT ISZERO PUSH2 0x3565 JUMPI PUSH1 0x0 DUP1 REVERT JUMPDEST DUP2 MLOAD PUSH2 0xD10 DUP2 PUSH2 0x325D JUMP JUMPDEST PUSH1 0x0 DUP3 PUSH2 0x358D JUMPI PUSH4 0x4E487B71 PUSH1 0xE0 SHL PUSH1 0x0 MSTORE PUSH1 0x12 PUSH1 0x4 MSTORE PUSH1 0x24 PUSH1 0x0 REVERT JUMPDEST POP DIV SWAP1 JUMP JUMPDEST DUP1 DUP3 ADD DUP1 DUP3 GT ISZERO PUSH2 0xC32 JUMPI PUSH2 0xC32 PUSH2 0x33F1 JUMP JUMPDEST PUSH1 0x0 PUSH2 0xD10 DUP4 DUP4 PUSH2 0x348C JUMP JUMPDEST PUSH1 0xFF DUP2 DUP2 AND DUP4 DUP3 AND ADD SWAP1 DUP2 GT ISZERO PUSH2 0xC32 JUMPI PUSH2 0xC32 PUSH2 0x33F1 JUMP JUMPDEST PUSH1 0x0 PUSH1 0x20 DUP3 DUP5 SUB SLT ISZERO PUSH2 0x35DC JUMPI PUSH1 0x0 DUP1 REVERT JUMPDEST DUP2 MLOAD PUSH2 0xD10 DUP2 PUSH2 0x31A5 JUMP JUMPDEST PUSH1 0x0 DUP2 MLOAD DUP1 DUP5 MSTORE PUSH1 0x20 DUP1 DUP6 ADD SWAP5 POP DUP1 DUP5 ADD PUSH1 0x0 JUMPDEST DUP4 DUP2 LT ISZERO PUSH2 0x3620 JUMPI DUP2 MLOAD PUSH1 0x1 PUSH1 0x1 PUSH1 0xA0 SHL SUB AND DUP8 MSTORE SWAP6 DUP3 ADD SWAP6 SWAP1 DUP3 ADD SWAP1 PUSH1 0x1 ADD PUSH2 0x35FB JUMP JUMPDEST POP SWAP5 SWAP6 SWAP5 POP POP POP POP POP JUMP JUMPDEST DUP6 DUP2 MSTORE DUP5 PUSH1 0x20 DUP3 ADD MSTORE PUSH1 0xA0 PUSH1 0x40 DUP3 ADD MSTORE PUSH1 0x0 PUSH2 0x364A PUSH1 0xA0 DUP4 ADD DUP7 PUSH2 0x35E7 JUMP JUMPDEST PUSH1 0x1 PUSH1 0x1 PUSH1 0xA0 SHL SUB SWAP5 SWAP1 SWAP5 AND PUSH1 0x60 DUP4 ADD MSTORE POP PUSH1 0x80 ADD MSTORE SWAP4 SWAP3 POP POP POP JUMP JUMPDEST PUSH1 0x0 DUP1 PUSH1 0x0 PUSH1 0x60 DUP5 DUP7 SUB SLT ISZERO PUSH2 0x367C JUMPI PUSH1 0x0 DUP1 REVERT JUMPDEST DUP4 MLOAD SWAP3 POP PUSH1 0x20 DUP5 ADD MLOAD SWAP2 POP PUSH1 0x40 DUP5 ADD MLOAD SWAP1 POP SWAP3 POP SWAP3 POP SWAP3 JUMP JUMPDEST DUP5 DUP2 MSTORE PUSH1 0x80 PUSH1 0x20 DUP3 ADD MSTORE PUSH1 0x0 PUSH2 0x36AE PUSH1 0x80 DUP4 ADD DUP7 PUSH2 0x35E7 JUMP JUMPDEST PUSH1 0x1 PUSH1 0x1 PUSH1 0xA0 SHL SUB SWAP5 SWAP1 SWAP5 AND PUSH1 0x40 DUP4 ADD MSTORE POP PUSH1 0x60 ADD MSTORE SWAP3 SWAP2 POP POP JUMP INVALID GASLIMIT MSTORE NUMBER ORIGIN ADDRESS GASPRICE KECCAK256 PUSH21 0x72616E7366657220616D6F756E7420657863656564 PUSH20 0x20616C6C6F77616E6365DDF252AD1BE2C89B69C2 0xB0 PUSH9 0xFC378DAA952BA7F163 0xC4 LOG1 AND 0x28 CREATE2 GAS 0x4D CREATE2 0x23 0xB3 0xEF TIMESTAMP GASLIMIT POP ORIGIN ADDRESS GASPRICE KECCAK256 PUSH3 0x75726E KECCAK256 PUSH2 0x6D6F PUSH22 0x6E7420657863656564732062616C616E636545524332 ADDRESS GASPRICE KECCAK256 PUSH5 0x6563726561 PUSH20 0x656420616C6C6F77616E63652062656C6F77207A PUSH6 0x726FA2646970 PUSH7 0x7358221220AA8F 0xD3 LOG2 DUP15 SWAP5 0xC4 DUP1 RETURNDATASIZE GASPRICE PUSH29 0xD354FFDEA2342B4C7F76B0FC07E155AE523B73927A64736F6C63430008 SLT STOP CALLER "
		},
		"gasEstimates": {
			"creation": {
				"codeDepositCost": "2844600",
				"executionCost": "infinite",
				"totalCost": "infinite"
			},
			"external": {
				"_GENERATOR()": "infinite",
				"_VERSION()": "infinite",
				"_burnFee()": "2419",
				"_buybackFee()": "2443",
				"_liquidityFee()": "2393",
				"_name()": "infinite",
				"_symbol()": "infinite",
				"_tTotal()": "2363",
				"_taxFee()": "2393",
				"_walletFee()": "2441",
				"allowance(address,address)": "infinite",
				"approve(address,uint256)": "24684",
				"balanceOf(address)": "infinite",
				"burn(uint256)": "infinite",
				"buyBackUpperLimitAmount()": "2359",
				"createdByMetacrypt()": "309",
				"decimals()": "2420",
				"decreaseAllowance(address,uint256)": "infinite",
				"deliver(uint256)": "infinite",
				"excludeFromFee(address)": "26856",
				"excludeFromReward(address)": "infinite",
				"feeWallet()": "2442",
				"generator()": "infinite",
				"getIdentifier()": "infinite",
				"includeInFee(address)": "26804",
				"includeInReward(address)": "infinite",
				"increaseAllowance(address,uint256)": "infinite",
				"isExcludedFromFee(address)": "2632",
				"isExcludedFromReward(address)": "2677",
				"maxBurnFee()": "2443",
				"maxBuybackFee()": "2399",
				"maxLiqFee()": "2420",
				"maxTaxFee()": "2397",
				"maxWalletFee()": "2442",
				"minMxTxPercentage()": "2398",
				"minMxWalletPercentage()": "2421",
				"mint(uint256)": "infinite",
				"name()": "infinite",
				"numTokensSellToAddToLiquidity()": "2384",
				"owner()": "2399",
				"pcsV2Pair()": "infinite",
				"pcsV2Router()": "infinite",
				"recoverToken(address,uint256)": "infinite",
				"reflectionFromToken(uint256,bool)": "infinite",
				"renounceOwnership()": "30233",
				"setAllFeePercent(uint8,uint8,uint8,uint8,uint8)": "infinite",
				"setBuybackUpperLimit(uint256)": "infinite",
				"setFeeWallet(address)": "infinite",
				"setSwapAndLiquifyEnabled(bool)": "27855",
				"swapAndLiquifyEnabled()": "2400",
				"symbol()": "infinite",
				"tokenFromReflection(uint256)": "infinite",
				"totalFees()": "2395",
				"totalSupply()": "2383",
				"transfer(address,uint256)": "infinite",
				"transferFrom(address,address,uint256)": "infinite",
				"transferOwnership(address)": "30504",
				"version()": "infinite"
			},
			"internal": {
				"_approve(address,address,uint256)": "infinite",
				"_burn(address,uint256)": "infinite",
				"_burnFrom(address,uint256)": "infinite",
				"_getCurrentSupply()": "infinite",
				"_getRValues(uint256,uint256,uint256,uint256)": "infinite",
				"_getRate()": "infinite",
				"_getTValues(uint256)": "infinite",
				"_getValues(uint256)": "infinite",
				"_mint(address,uint256)": "infinite",
				"_reflectFee(uint256,uint256)": "infinite",
				"_takeLiquidity(uint256)": "infinite",
				"_tokenTransfer(address,address,uint256,bool)": "infinite",
				"_tokenTransferNoFee(address,address,uint256)": "infinite",
				"_transfer(address,address,uint256)": "infinite",
				"_transferBothExcluded(address,address,uint256)": "infinite",
				"_transferFromExcluded(address,address,uint256)": "infinite",
				"_transferStandard(address,address,uint256)": "infinite",
				"_transferToExcluded(address,address,uint256)": "infinite",
				"addLiquidity(uint256,uint256)": "infinite",
				"buyBackTokens(uint256)": "infinite",
				"calculateLiquidityFee(uint256)": "infinite",
				"calculateTaxFee(uint256)": "infinite",
				"removeAllFee()": "35306",
				"restoreAllFee()": "infinite",
				"swapAndLiquify(uint256)": "infinite",
				"swapBNBForTokens(uint256)": "infinite",
				"swapTokensForBNB(uint256)": "infinite"
			}
		},
		"methodIdentifiers": {
			"_GENERATOR()": "34b1a50c",
			"_VERSION()": "49b0db14",
			"_burnFee()": "c0b0fda2",
			"_buybackFee()": "19de79ab",
			"_liquidityFee()": "6bc87c3a",
			"_name()": "d28d8852",
			"_symbol()": "b09f1266",
			"_tTotal()": "af465a27",
			"_taxFee()": "3b124fe7",
			"_walletFee()": "54ce6578",
			"allowance(address,address)": "dd62ed3e",
			"approve(address,uint256)": "095ea7b3",
			"balanceOf(address)": "70a08231",
			"burn(uint256)": "42966c68",
			"buyBackUpperLimitAmount()": "bdc653ef",
			"createdByMetacrypt()": "c2e7d95c",
			"decimals()": "313ce567",
			"decreaseAllowance(address,uint256)": "a457c2d7",
			"deliver(uint256)": "3bd5d173",
			"excludeFromFee(address)": "437823ec",
			"excludeFromReward(address)": "52390c02",
			"feeWallet()": "f25f4b56",
			"generator()": "7afa1eed",
			"getIdentifier()": "aa23e03d",
			"includeInFee(address)": "ea2f0b37",
			"includeInReward(address)": "3685d419",
			"increaseAllowance(address,uint256)": "39509351",
			"isExcludedFromFee(address)": "5342acb4",
			"isExcludedFromReward(address)": "88f82020",
			"maxBurnFee()": "3c81385c",
			"maxBuybackFee()": "15fa749a",
			"maxLiqFee()": "430ca090",
			"maxTaxFee()": "c7992f9a",
			"maxWalletFee()": "51330a19",
			"minMxTxPercentage()": "324f8dbf",
			"minMxWalletPercentage()": "70690b11",
			"mint(uint256)": "a0712d68",
			"name()": "06fdde03",
			"numTokensSellToAddToLiquidity()": "d12a7688",
			"owner()": "8da5cb5b",
			"pcsV2Pair()": "52143290",
			"pcsV2Router()": "2d6abf87",
			"recoverToken(address,uint256)": "b29a8140",
			"reflectionFromToken(uint256,bool)": "4549b039",
			"renounceOwnership()": "715018a6",
			"setAllFeePercent(uint8,uint8,uint8,uint8,uint8)": "f6a3c9a9",
			"setBuybackUpperLimit(uint256)": "82d2a4bb",
			"setFeeWallet(address)": "90d49b9d",
			"setSwapAndLiquifyEnabled(bool)": "c49b9a80",
			"swapAndLiquifyEnabled()": "4a74bb02",
			"symbol()": "95d89b41",
			"tokenFromReflection(uint256)": "2d838119",
			"totalFees()": "13114a9d",
			"totalSupply()": "18160ddd",
			"transfer(address,uint256)": "a9059cbb",
			"transferFrom(address,address,uint256)": "23b872dd",
			"transferOwnership(address)": "f2fde38b",
			"version()": "54fd4d50"
		}
	},
	"abi": [
		{
			"inputs": [
				{
					"internalType": "address",
					"name": "__metaMax_target",
					"type": "address"
				},
				{
					"internalType": "string",
					"name": "__metaMax_name",
					"type": "string"
				},
				{
					"internalType": "string",
					"name": "__metaMax_symbol",
					"type": "string"
				},
				{
					"internalType": "uint8",
					"name": "__metaMax_decimals",
					"type": "uint8"
				},
				{
					"internalType": "uint256",
					"name": "__metaMax_initial",
					"type": "uint256"
				},
				{
					"internalType": "address",
					"name": "__metaMax_router",
					"type": "address"
				},
				{
					"internalType": "uint8",
					"name": "__metaMax_tax_reflection",
					"type": "uint8"
				},
				{
					"internalType": "uint8",
					"name": "__metaMax_tax_wallet",
					"type": "uint8"
				},
				{
					"internalType": "uint8",
					"name": "__metaMax_tax_burn",
					"type": "uint8"
				},
				{
					"internalType": "uint8",
					"name": "__metaMax_tax_liquidity",
					"type": "uint8"
				},
				{
					"internalType": "uint8",
					"name": "__metaMax_tax_buyback",
					"type": "uint8"
				}
			],
			"stateMutability": "payable",
			"type": "constructor"
		},
		{
			"anonymous": false,
			"inputs": [
				{
					"indexed": true,
					"internalType": "address",
					"name": "owner",
					"type": "address"
				},
				{
					"indexed": true,
					"internalType": "address",
					"name": "spender",
					"type": "address"
				},
				{
					"indexed": false,
					"internalType": "uint256",
					"name": "value",
					"type": "uint256"
				}
			],
			"name": "Approval",
			"type": "event"
		},
		{
			"anonymous": false,
			"inputs": [
				{
					"indexed": true,
					"internalType": "address",
					"name": "previousOwner",
					"type": "address"
				},
				{
					"indexed": true,
					"internalType": "address",
					"name": "newOwner",
					"type": "address"
				}
			],
			"name": "OwnershipTransferred",
			"type": "event"
		},
		{
			"anonymous": false,
			"inputs": [
				{
					"indexed": false,
					"internalType": "uint256",
					"name": "tokensSwapped",
					"type": "uint256"
				},
				{
					"indexed": false,
					"internalType": "uint256",
					"name": "ethReceived",
					"type": "uint256"
				},
				{
					"indexed": false,
					"internalType": "uint256",
					"name": "tokensIntoLiqudity",
					"type": "uint256"
				}
			],
			"name": "SwapAndLiquify",
			"type": "event"
		},
		{
			"anonymous": false,
			"inputs": [
				{
					"indexed": false,
					"internalType": "bool",
					"name": "enabled",
					"type": "bool"
				}
			],
			"name": "SwapAndLiquifyEnabledUpdated",
			"type": "event"
		},
		{
			"anonymous": false,
			"inputs": [
				{
					"indexed": true,
					"internalType": "address",
					"name": "from",
					"type": "address"
				},
				{
					"indexed": true,
					"internalType": "address",
					"name": "to",
					"type": "address"
				},
				{
					"indexed": false,
					"internalType": "uint256",
					"name": "value",
					"type": "uint256"
				}
			],
			"name": "Transfer",
			"type": "event"
		},
		{
			"inputs": [],
			"name": "_GENERATOR",
			"outputs": [
				{
					"internalType": "string",
					"name": "",
					"type": "string"
				}
			],
			"stateMutability": "view",
			"type": "function"
		},
		{
			"inputs": [],
			"name": "_VERSION",
			"outputs": [
				{
					"internalType": "string",
					"name": "",
					"type": "string"
				}
			],
			"stateMutability": "view",
			"type": "function"
		},
		{
			"inputs": [],
			"name": "_burnFee",
			"outputs": [
				{
					"internalType": "uint8",
					"name": "",
					"type": "uint8"
				}
			],
			"stateMutability": "view",
			"type": "function"
		},
		{
			"inputs": [],
			"name": "_buybackFee",
			"outputs": [
				{
					"internalType": "uint8",
					"name": "",
					"type": "uint8"
				}
			],
			"stateMutability": "view",
			"type": "function"
		},
		{
			"inputs": [],
			"name": "_liquidityFee",
			"outputs": [
				{
					"internalType": "uint8",
					"name": "",
					"type": "uint8"
				}
			],
			"stateMutability": "view",
			"type": "function"
		},
		{
			"inputs": [],
			"name": "_name",
			"outputs": [
				{
					"internalType": "string",
					"name": "",
					"type": "string"
				}
			],
			"stateMutability": "view",
			"type": "function"
		},
		{
			"inputs": [],
			"name": "_symbol",
			"outputs": [
				{
					"internalType": "string",
					"name": "",
					"type": "string"
				}
			],
			"stateMutability": "view",
			"type": "function"
		},
		{
			"inputs": [],
			"name": "_tTotal",
			"outputs": [
				{
					"internalType": "uint256",
					"name": "",
					"type": "uint256"
				}
			],
			"stateMutability": "view",
			"type": "function"
		},
		{
			"inputs": [],
			"name": "_taxFee",
			"outputs": [
				{
					"internalType": "uint8",
					"name": "",
					"type": "uint8"
				}
			],
			"stateMutability": "view",
			"type": "function"
		},
		{
			"inputs": [],
			"name": "_walletFee",
			"outputs": [
				{
					"internalType": "uint8",
					"name": "",
					"type": "uint8"
				}
			],
			"stateMutability": "view",
			"type": "function"
		},
		{
			"inputs": [
				{
					"internalType": "address",
					"name": "owner",
					"type": "address"
				},
				{
					"internalType": "address",
					"name": "spender",
					"type": "address"
				}
			],
			"name": "allowance",
			"outputs": [
				{
					"internalType": "uint256",
					"name": "",
					"type": "uint256"
				}
			],
			"stateMutability": "view",
			"type": "function"
		},
		{
			"inputs": [
				{
					"internalType": "address",
					"name": "spender",
					"type": "address"
				},
				{
					"internalType": "uint256",
					"name": "amount",
					"type": "uint256"
				}
			],
			"name": "approve",
			"outputs": [
				{
					"internalType": "bool",
					"name": "",
					"type": "bool"
				}
			],
			"stateMutability": "nonpayable",
			"type": "function"
		},
		{
			"inputs": [
				{
					"internalType": "address",
					"name": "account",
					"type": "address"
				}
			],
			"name": "balanceOf",
			"outputs": [
				{
					"internalType": "uint256",
					"name": "",
					"type": "uint256"
				}
			],
			"stateMutability": "view",
			"type": "function"
		},
		{
			"inputs": [
				{
					"internalType": "uint256",
					"name": "amount",
					"type": "uint256"
				}
			],
			"name": "burn",
			"outputs": [
				{
					"internalType": "bool",
					"name": "",
					"type": "bool"
				}
			],
			"stateMutability": "nonpayable",
			"type": "function"
		},
		{
			"inputs": [],
			"name": "buyBackUpperLimitAmount",
			"outputs": [
				{
					"internalType": "uint256",
					"name": "",
					"type": "uint256"
				}
			],
			"stateMutability": "view",
			"type": "function"
		},
		{
			"inputs": [],
			"name": "createdByMetacrypt",
			"outputs": [
				{
					"internalType": "bool",
					"name": "",
					"type": "bool"
				}
			],
			"stateMutability": "pure",
			"type": "function"
		},
		{
			"inputs": [],
			"name": "decimals",
			"outputs": [
				{
					"internalType": "uint8",
					"name": "",
					"type": "uint8"
				}
			],
			"stateMutability": "view",
			"type": "function"
		},
		{
			"inputs": [
				{
					"internalType": "address",
					"name": "spender",
					"type": "address"
				},
				{
					"internalType": "uint256",
					"name": "subtractedValue",
					"type": "uint256"
				}
			],
			"name": "decreaseAllowance",
			"outputs": [
				{
					"internalType": "bool",
					"name": "",
					"type": "bool"
				}
			],
			"stateMutability": "nonpayable",
			"type": "function"
		},
		{
			"inputs": [
				{
					"internalType": "uint256",
					"name": "tAmount",
					"type": "uint256"
				}
			],
			"name": "deliver",
			"outputs": [],
			"stateMutability": "nonpayable",
			"type": "function"
		},
		{
			"inputs": [
				{
					"internalType": "address",
					"name": "account",
					"type": "address"
				}
			],
			"name": "excludeFromFee",
			"outputs": [],
			"stateMutability": "nonpayable",
			"type": "function"
		},
		{
			"inputs": [
				{
					"internalType": "address",
					"name": "account",
					"type": "address"
				}
			],
			"name": "excludeFromReward",
			"outputs": [],
			"stateMutability": "nonpayable",
			"type": "function"
		},
		{
			"inputs": [],
			"name": "feeWallet",
			"outputs": [
				{
					"internalType": "address payable",
					"name": "",
					"type": "address"
				}
			],
			"stateMutability": "view",
			"type": "function"
		},
		{
			"inputs": [],
			"name": "generator",
			"outputs": [
				{
					"internalType": "string",
					"name": "",
					"type": "string"
				}
			],
			"stateMutability": "pure",
			"type": "function"
		},
		{
			"inputs": [],
			"name": "getIdentifier",
			"outputs": [
				{
					"internalType": "string",
					"name": "",
					"type": "string"
				}
			],
			"stateMutability": "view",
			"type": "function"
		},
		{
			"inputs": [
				{
					"internalType": "address",
					"name": "account",
					"type": "address"
				}
			],
			"name": "includeInFee",
			"outputs": [],
			"stateMutability": "nonpayable",
			"type": "function"
		},
		{
			"inputs": [
				{
					"internalType": "address",
					"name": "account",
					"type": "address"
				}
			],
			"name": "includeInReward",
			"outputs": [],
			"stateMutability": "nonpayable",
			"type": "function"
		},
		{
			"inputs": [
				{
					"internalType": "address",
					"name": "spender",
					"type": "address"
				},
				{
					"internalType": "uint256",
					"name": "addedValue",
					"type": "uint256"
				}
			],
			"name": "increaseAllowance",
			"outputs": [
				{
					"internalType": "bool",
					"name": "",
					"type": "bool"
				}
			],
			"stateMutability": "nonpayable",
			"type": "function"
		},
		{
			"inputs": [
				{
					"internalType": "address",
					"name": "account",
					"type": "address"
				}
			],
			"name": "isExcludedFromFee",
			"outputs": [
				{
					"internalType": "bool",
					"name": "",
					"type": "bool"
				}
			],
			"stateMutability": "view",
			"type": "function"
		},
		{
			"inputs": [
				{
					"internalType": "address",
					"name": "account",
					"type": "address"
				}
			],
			"name": "isExcludedFromReward",
			"outputs": [
				{
					"internalType": "bool",
					"name": "",
					"type": "bool"
				}
			],
			"stateMutability": "view",
			"type": "function"
		},
		{
			"inputs": [],
			"name": "maxBurnFee",
			"outputs": [
				{
					"internalType": "uint8",
					"name": "",
					"type": "uint8"
				}
			],
			"stateMutability": "view",
			"type": "function"
		},
		{
			"inputs": [],
			"name": "maxBuybackFee",
			"outputs": [
				{
					"internalType": "uint8",
					"name": "",
					"type": "uint8"
				}
			],
			"stateMutability": "view",
			"type": "function"
		},
		{
			"inputs": [],
			"name": "maxLiqFee",
			"outputs": [
				{
					"internalType": "uint8",
					"name": "",
					"type": "uint8"
				}
			],
			"stateMutability": "view",
			"type": "function"
		},
		{
			"inputs": [],
			"name": "maxTaxFee",
			"outputs": [
				{
					"internalType": "uint8",
					"name": "",
					"type": "uint8"
				}
			],
			"stateMutability": "view",
			"type": "function"
		},
		{
			"inputs": [],
			"name": "maxWalletFee",
			"outputs": [
				{
					"internalType": "uint8",
					"name": "",
					"type": "uint8"
				}
			],
			"stateMutability": "view",
			"type": "function"
		},
		{
			"inputs": [],
			"name": "minMxTxPercentage",
			"outputs": [
				{
					"internalType": "uint8",
					"name": "",
					"type": "uint8"
				}
			],
			"stateMutability": "view",
			"type": "function"
		},
		{
			"inputs": [],
			"name": "minMxWalletPercentage",
			"outputs": [
				{
					"internalType": "uint8",
					"name": "",
					"type": "uint8"
				}
			],
			"stateMutability": "view",
			"type": "function"
		},
		{
			"inputs": [
				{
					"internalType": "uint256",
					"name": "amount",
					"type": "uint256"
				}
			],
			"name": "mint",
			"outputs": [
				{
					"internalType": "bool",
					"name": "",
					"type": "bool"
				}
			],
			"stateMutability": "nonpayable",
			"type": "function"
		},
		{
			"inputs": [],
			"name": "name",
			"outputs": [
				{
					"internalType": "string",
					"name": "",
					"type": "string"
				}
			],
			"stateMutability": "view",
			"type": "function"
		},
		{
			"inputs": [],
			"name": "numTokensSellToAddToLiquidity",
			"outputs": [
				{
					"internalType": "uint256",
					"name": "",
					"type": "uint256"
				}
			],
			"stateMutability": "view",
			"type": "function"
		},
		{
			"inputs": [],
			"name": "owner",
			"outputs": [
				{
					"internalType": "address",
					"name": "",
					"type": "address"
				}
			],
			"stateMutability": "view",
			"type": "function"
		},
		{
			"inputs": [],
			"name": "pcsV2Pair",
			"outputs": [
				{
					"internalType": "address",
					"name": "",
					"type": "address"
				}
			],
			"stateMutability": "view",
			"type": "function"
		},
		{
			"inputs": [],
			"name": "pcsV2Router",
			"outputs": [
				{
					"internalType": "contract IUniswapV2Router02",
					"name": "",
					"type": "address"
				}
			],
			"stateMutability": "view",
			"type": "function"
		},
		{
			"inputs": [
				{
					"internalType": "address",
					"name": "tokenAddress",
					"type": "address"
				},
				{
					"internalType": "uint256",
					"name": "tokenAmount",
					"type": "uint256"
				}
			],
			"name": "recoverToken",
			"outputs": [],
			"stateMutability": "nonpayable",
			"type": "function"
		},
		{
			"inputs": [
				{
					"internalType": "uint256",
					"name": "tAmount",
					"type": "uint256"
				},
				{
					"internalType": "bool",
					"name": "deductTransferFee",
					"type": "bool"
				}
			],
			"name": "reflectionFromToken",
			"outputs": [
				{
					"internalType": "uint256",
					"name": "",
					"type": "uint256"
				}
			],
			"stateMutability": "view",
			"type": "function"
		},
		{
			"inputs": [],
			"name": "renounceOwnership",
			"outputs": [],
			"stateMutability": "nonpayable",
			"type": "function"
		},
		{
			"inputs": [
				{
					"internalType": "uint8",
					"name": "taxFee",
					"type": "uint8"
				},
				{
					"internalType": "uint8",
					"name": "liquidityFee",
					"type": "uint8"
				},
				{
					"internalType": "uint8",
					"name": "burnFee",
					"type": "uint8"
				},
				{
					"internalType": "uint8",
					"name": "walletFee",
					"type": "uint8"
				},
				{
					"internalType": "uint8",
					"name": "buybackFee",
					"type": "uint8"
				}
			],
			"name": "setAllFeePercent",
			"outputs": [],
			"stateMutability": "nonpayable",
			"type": "function"
		},
		{
			"inputs": [
				{
					"internalType": "uint256",
					"name": "buyBackLimit",
					"type": "uint256"
				}
			],
			"name": "setBuybackUpperLimit",
			"outputs": [],
			"stateMutability": "nonpayable",
			"type": "function"
		},
		{
			"inputs": [
				{
					"internalType": "address payable",
					"name": "newFeeWallet",
					"type": "address"
				}
			],
			"name": "setFeeWallet",
			"outputs": [],
			"stateMutability": "nonpayable",
			"type": "function"
		},
		{
			"inputs": [
				{
					"internalType": "bool",
					"name": "_enabled",
					"type": "bool"
				}
			],
			"name": "setSwapAndLiquifyEnabled",
			"outputs": [],
			"stateMutability": "nonpayable",
			"type": "function"
		},
		{
			"inputs": [],
			"name": "swapAndLiquifyEnabled",
			"outputs": [
				{
					"internalType": "bool",
					"name": "",
					"type": "bool"
				}
			],
			"stateMutability": "view",
			"type": "function"
		},
		{
			"inputs": [],
			"name": "symbol",
			"outputs": [
				{
					"internalType": "string",
					"name": "",
					"type": "string"
				}
			],
			"stateMutability": "view",
			"type": "function"
		},
		{
			"inputs": [
				{
					"internalType": "uint256",
					"name": "rAmount",
					"type": "uint256"
				}
			],
			"name": "tokenFromReflection",
			"outputs": [
				{
					"internalType": "uint256",
					"name": "",
					"type": "uint256"
				}
			],
			"stateMutability": "view",
			"type": "function"
		},
		{
			"inputs": [],
			"name": "totalFees",
			"outputs": [
				{
					"internalType": "uint256",
					"name": "",
					"type": "uint256"
				}
			],
			"stateMutability": "view",
			"type": "function"
		},
		{
			"inputs": [],
			"name": "totalSupply",
			"outputs": [
				{
					"internalType": "uint256",
					"name": "",
					"type": "uint256"
				}
			],
			"stateMutability": "view",
			"type": "function"
		},
		{
			"inputs": [
				{
					"internalType": "address",
					"name": "recipient",
					"type": "address"
				},
				{
					"internalType": "uint256",
					"name": "amount",
					"type": "uint256"
				}
			],
			"name": "transfer",
			"outputs": [
				{
					"internalType": "bool",
					"name": "",
					"type": "bool"
				}
			],
			"stateMutability": "nonpayable",
			"type": "function"
		},
		{
			"inputs": [
				{
					"internalType": "address",
					"name": "sender",
					"type": "address"
				},
				{
					"internalType": "address",
					"name": "recipient",
					"type": "address"
				},
				{
					"internalType": "uint256",
					"name": "amount",
					"type": "uint256"
				}
			],
			"name": "transferFrom",
			"outputs": [
				{
					"internalType": "bool",
					"name": "",
					"type": "bool"
				}
			],
			"stateMutability": "nonpayable",
			"type": "function"
		},
		{
			"inputs": [
				{
					"internalType": "address",
					"name": "newOwner",
					"type": "address"
				}
			],
			"name": "transferOwnership",
			"outputs": [],
			"stateMutability": "nonpayable",
			"type": "function"
		},
		{
			"inputs": [],
			"name": "version",
			"outputs": [
				{
					"internalType": "string",
					"name": "",
					"type": "string"
				}
			],
			"stateMutability": "pure",
			"type": "function"
		},
		{
			"stateMutability": "payable",
			"type": "receive"
		}
	]
}